:100000000000011089010000210200002702000009
:100010002D020000330200003902000096F3FEEFCB
:100020000000000000000000000000003F0200008F
:1000300045020000000000004B020000E514000033
:100040005702000057020000C115000057020000CF
:10005000570200000D19000057020000570200006F
:10006000E917000057020000DD09000057020000F8
:10007000570200005702000057020000570200001C
:10008000570200005702000057020000570200000C
:1000900057020000570200005702000057020000FC
:1000A000570200005702000005050000570200003B
:1000B00057020000570200005702000057020000DC
:1000C00057020000570200005702000057020000CC
:1000D00057020000570200005508000057020000B8
:1000E00057020000083F000000000010DC00000084
:1000F000083F00000000002000000000DC000010AD
:100100004C020000000000200000000080B489B014
:1001100000AFF860B9607A60BB68FB61FB68BB61E7
:1001200000237B610AE0BA69131DBB61FB69191DDD
:10013000F96112681A607B6904337B617A697B68B4
:100140009A42F0D300BF2437BD465DF8047B704768
:1001500080B485B000AF786039607B68FB600023B5
:10016000BB6007E0FB681A1DFA6000221A60BB68DA
:100170000433BB60BA683B689A42F3D300BF1437BC
:10018000BD465DF8047B704780B586B000AF1F4B5D
:100190007B6113E07B691A1D7A611B683B617B6997
:1001A0001A1D7A611B68FB607B691A1D7A611B68E6
:1001B000BB60BA68F9683869FFF7A8FF7B69144A21
:1001C0009342E7D30DE07B691A1D7A611B68FB60DF
:1001D0007B691A1D7A611B68BB60B968F868FFF714
:1001E000B7FF7B690B4A9342EDD3DFF870000168DB
:1001F00041F470010160084B7B60084A7B681A601B
:1002000001F088F902F0B8FEFEE700BFE40000004C
:10021000FC0000000C01000008ED00E00000000000
:1002200080B400AFFEE780B400AFFEE780B400AF5B
:10023000FEE780B400AFFEE780B400AFFEE780B415
:1002400000AFFEE780B400AFFEE780B400AFFEE78A
:1002500080B400AFFEE780B400AFFEE788ED00E0B9
:10026000FFFFFFFFFFFFFFFFFFFFFFFFFFFFFFFF9E
:10027000FFFFFFFFFFFFFFFFFFFFFFFFFFFFFFFF8E
:10028000FFFFFFFFFFFFFFFFFFFFFFFFFFFFFFFF7E
:10029000FFFFFFFFFFFFFFFFFFFFFFFFFFFFFFFF6E
:1002A000FFFFFFFFFFFFFFFFFFFFFFFFFFFFFFFF5E
:1002B000FFFFFFFFFFFFFFFFFFFFFFFFFFFFFFFF4E
:1002C000FFFFFFFFFFFFFFFFFFFFFFFFFFFFFFFF3E
:1002D000FFFFFFFFFFFFFFFFFFFFFFFFFFFFFFFF2E
:1002E000FFFFFFFFFFFFFFFFFFFFFFFFFFFFFFFF1E
:1002F000FFFFFFFFFFFFFFFFFFFFFFFFFFFFFFFF0E
:1003000080B500AF01F0ACFB01F0C8F800F04EFA88
:1003100001F042F800F0B8F800F0F2FA00F0BCFC8E
:1003200001F0E8F900BF80BD90B585B000AF03468D
:10033000FB71032002F022FE0346FB60FB791B09E0
:10034000DBB2184600F056FF03461A46FB681A70E7
:10035000FB7903F00F03DAB2FB685C1C104600F077
:1003600049FF03462370FB68023300221A70FB68C2
:1003700018461437BD4690BD80B584B000AFFFF776
:10038000BFFF4FF6FF7000F0E9FC4FF6FF71002051
:1003900000F00EFC022000F023FC4FF6FF7000F08E
:1003A000DDFC00233B71FF237B7107F1080208236A
:1003B0000821082000F0FCFA3B1D02221946082003
:1003C00000F0E4FA1E21502000F0DAFB3B7A1846D8
:1003D000FFF7AAFF0346184600F0F0FE3221502036
:1003E00000F0CEFB7B7A1846FFF79EFF03461846C7
:1003F00000F0E4FE4621502000F0C2FBBB7A184614
:10040000FFF792FF0346184600F0D8FE5A2150200D
:1004100000F0B6FBFB7A1846FFF786FF0346184646
:1004200000F0CCFE6E21502000F0AAFB3B7B18466A
:10043000FFF77AFF0346184600F0C0FE82215020E5
:1004400000F09EFB7B7B1846FFF76EFF03461846C5
:1004500000F0B4FE9621502000F092FBBB7B1846C2
:10046000FFF762FF0346184600F0A8FEAA215020BD
:1004700000F086FBFB7B1846FFF756FF0346184645
:1004800000F09CFE91E7FFFF80B500AF124B134ACE
:100490001A60114B1B68104A1268126822F00102A0
:1004A0001A600D4B1B680C4A1268126842F0010278
:1004B0001A60094B1B68084A1268126822F0800211
:1004C0001A600749074801F065FA01220021054832
:1004D00001F09AFA00BF80BDE40000105CC0024049
:1004E000DC0000100040034080B582B000AF7860AF
:1004F0007968034801F090FC00BF0837BD4680BD15
:1005000000C0084080B582B002AF0E4B1B78DBB252
:1005100019460D4801F0F6FD0346012B0ED10B4B99
:100520001B689847074B1B78D9B2094A802301936F
:10053000012300930923044801F030FF00BFBD46AA
:1005400080BD00BFE8020010000008200400001079
:10055000E800001080B483B000AF0346FB71FB7964
:1005600003F01F03012202FA03F1064A97F907304C
:100570005B0942F8231000BF0C37BD465DF8047BD1
:10058000704700BF00E100E080B483B000AF0346D5
:100590003960FB7197F90730002B0BDA3B68DAB250
:1005A0000C49FB7903F00F03043BD200D2B20B4499
:1005B0001A7609E03B68DAB2074997F90730D200AA
:1005C000D2B20B4483F8002300BF0C37BD465DF860
:1005D000047B704700ED00E000E100E080B582B0F0
:1005E00000AF78600F2001F01FFB00BF0837BD4649
:1005F00080BD80B582B000AF78600F2001F014FBA1
:1006000000BF0837BD4680BD80B483B000AF7860BE
:10061000084611461A460346FB700B46BB7013464C
:100620007B707B78002B0ED0FB785B017A681344DB
:100630009969BB7801229A40FB785B017868034492
:100640000A439A610DE0FB785B017A681344D9692B
:10065000BB7801229A40FB785B01786803440A4327
:10066000DA6100BF0C37BD465DF8047B704780B48B
:1006700083B000AF78600B46FB701346BB70FB780D
:100680005B017A6813445A69BB7822FA03F303F0DA
:100690000103002B14BF01230023DBB218460C37E3
:1006A000BD465DF8047B704780B483B000AF7860CE
:1006B0000B46FB701346BB70FB785B017A681344F2
:1006C0001968BB7801229A40FB785B017868034483
:1006D0000A431A6000BF0C37BD465DF8047B7047C3
:1006E00080B483B000AF78600B46FB701346BB70DC
:1006F000FB785B017A6813441968BB78012202FA1F
:1007000003F3DA43FB785B01786803440A401A601C
:1007100000BF0C37BD465DF8047B704780B584B0E0
:1007200000AF78600B46FB701346BB70BA78FB785D
:1007300019467868FFF79BFF0346002B14BF01237F
:100740000023DBB283F00103DBB2FB73FB7B03F01E
:100750000103FB73FB7BBA78F9787868FFF754FFE5
:1007600000BF1037BD4680BD80B582B000AF786055
:100770000F2001F059FA00BF0837BD4680BD80B494
:1007800085B000AFF8600B467A60FB72FB7A002BF5
:1007900003D1FB687A68DA6002E0FB687A68DA62A3
:1007A00000BF1437BD465DF8047B704780B500AFCD
:1007B0002648FFF71EFF2648FFF710FF0020FFF72F
:1007C000D3FF03212620FFF7DFFE2620FFF7C2FE1E
:1007D000122201211D48FFF767FF0D2200211B484F
:1007E000FFF762FF0D2201211848FFF75DFF13227A
:1007F00002211648FFF758FF002205211348FFF792
:1008000053FF172200211148FFF76AFF1822002129
:100810000E48FFF765FF0123122201210B48FFF765
:10082000F3FE01230D2200210848FFF7EDFE00230F
:100830000D2201210548FFF7E7FE002313220221C4
:100840000248FFF7E1FE00BF80BD00BF0080092025
:1008500000C0024080B500AF4FF080720021002040
:10086000FFF78DFF0D2200210248FFF757FF00BF61
:1008700080BD00BF0080092080B483B000AF034674
:10088000FB71094997F907305B09FA7902F01F02F9
:10089000012000FA02F241F8232000BF0C37BD46C8
:1008A0005DF8047B704700BF00E100E080B483B0D6
:1008B00000AF03463960FB7197F90730002B0BDA64
:1008C0000D49FB7903F00F03043B3A68D2B2D20022
:1008D000D2B20B441A7609E0084997F907303A6812
:1008E000D2B2D200D2B20B4483F8002300BF0C373F
:1008F000BD465DF8047B704700ED00E000E100E0DC
:1009000080B500AF1C4B1D4A1A601B4B1B681A4A6E
:100910001268126822F005021A60174B1B68164A0B
:100920001268126842F005021A60134B144A1A60EA
:10093000114B1B68104A1268126822F005021A60F7
:100940000D4B1B680C4A1268126842F005021A60CF
:10095000002001F06BFF0B49002001F081FF0A49E4
:10096000002001F0B1FF02210A20FFF79FFF0A20BB
:10097000FFF782FF00BF80BDEC02001088C202407A
:100980008CC20240A0860100E127000080B584B03F
:1009900000AF0346B9607A60FB737B68DBB2F97B1A
:1009A000BA68002002F004F800BF1037BD4680BDD1
:1009B00080B586B002AFBA607B600346FB730B461E
:1009C000BB73BA7BF97B7B680093BB68002002F0A5
:1009D0001BF800BF1037BD4680BD00BF80B500AF1B
:1009E000002002F041F800BF80BD00BF80B483B09A
:1009F00000AF7860084611461A460346FB700B4666
:100A0000BB7013467B707B78002B0FD0FB785B01AB
:100A10007A681344FA78520179680A449169BA787D
:100A2000012000FA02F20A439A610EE0FB785B01B2
:100A30007A681344FA78520179680A44D169BA781D
:100A4000012000FA02F20A43DA6100BF0C37BD460A
:100A50005DF8047B704700BF80B582B000AF0346ED
:100A6000FB80FB88DBB29BB2184600F0F7FC00BFAE
:100A70000837BD4680BD00BF80B582B000AF0346D9
:100A8000FB800123002205210548FFF7AFFFFB880B
:100A90001846FFF7E1FF00BF0837BD4680BD00BF25
:100AA0000080092080B582B000AF0346FB800023A0
:100AB000002205210548FFF799FFFB881846FFF73C
:100AC000CBFF00BF0837BD4680BD00BF00800920B6
:100AD00080B582B000AF03460A46FB711346BB7176
:100AE0000023002205210B48FFF780FFFB799BB212
:100AF0001846FFF7B1FF0123002205210548FFF743
:100B000075FFBB799BB21846FFF7A6FF00BF0837F9
:100B1000BD4680BD0080092080B584B000AF03468B
:100B20000A46FB801346BB80FB881B0A9BB2FB7303
:100B3000FB88BB73FB7B9BB21846FFF7B3FFBB7B05
:100B40009BB21846FFF7AEFFBB881B0A9BB2FB7334
:100B5000BB88BB730123002205210848FFF746FF2D
:100B6000FB7B9BB21846FFF787FFBB7B9BB2184607
:100B7000FFF782FF00BF1037BD4680BD008009200F
:100B800080B483B000AF03460A46FB801346BB80A7
:100B9000054AFB881380054ABB88138000BF0C37C9
:100BA000BD465DF8047B7047F0020010F2020010B1
:100BB00080B483B000AF03460A46FB801346BB8077
:100BC000054AFB881380054ABB88138000BF0C3799
:100BD000BD465DF8047B7047F6020010F802001075
:100BE00080B483B000AF0346FB71FB79082B08D8B3
:100BF000FB79002B01D0FB7900E00123044A13703C
:100C000000E000BF0C37BD465DF8047B704700BFB5
:100C1000F402001090B583B000AF044608461146B8
:100C20001A462346FB800346BB800B467B80134657
:100C30003B802A20FFF736FFFB881B0A9BB2184631
:100C4000FFF71AFFFB881846FFF716FF7B881B0A81
:100C50009BB21846FFF710FF7B881846FFF70CFF82
:100C60002B20FFF71FFFBB881B0A9BB21846FFF71C
:100C700003FFBB881846FFF7FFFE3B881B0A9BB2A9
:100C80001846FFF7F9FE3B881846FFF7F5FE00BF50
:100C90000C37BD4690BD00BF80B500AF2D4B4FF463
:100CA000A0721A802C4BF0221A800020FFF7FAFE67
:100CB0000020FFF7E1FE0020FFF7DEFE0020FFF737
:100CC000DBFE00210120FFF703FF00212820FFF7B2
:100CD000FFFE2321C020FFF7FBFE1121C120FFF7FB
:100CE000F7FEC520FFF7DEFE3D20FFF7C5FE3020F2
:100CF000FFF7C2FEAA21C720FFF7EAFE282136200F
:100D0000FFF7E6FE3A20FFF7CDFE5520FFF7B4FED1
:100D10000020FFF7B1FE1B21B120FFF7FDFE0721E8
:100D2000B720FFF7D5FE00211120FFF7D1FE0021EB
:100D30002920FFF7CDFE074B1B88013B9AB2064BDB
:100D40001B88013B9BB200210020FFF763FF00BF1F
:100D500080BD00BFFA020010FC02001080B586B012
:100D600000AF0346FB804FF496333B61FB881B0AC0
:100D70009BB2FB73FB88BB733B699B09FB82EF2330
:100D800040F23F1200210020FFF744FF2C20FFF724
:100D900089FE0123002205212F48FFF727FEFB7B58
:100DA0009BB21846FFF758FEBB7B9BB21846FFF775
:100DB00053FE3B69013B3B612FE010237B75FB7BBE
:100DC0009BB21846FFF748FEBB7B9BB21846FFF765
:100DD00043FEFB7B9BB21846FFF73EFEBB7B9BB2FC
:100DE0001846FFF739FEFB7B9BB21846FFF734FE2F
:100DF000BB7B9BB21846FFF72FFEFB7B9BB21846CE
:100E0000FFF72AFEBB7B9BB21846FFF725FE7B7DD2
:100E1000013B7B757B7D002BD1D1FB8A5A1EFA8268
:100E2000002BCAD13B69DBB203F03F037B7509E0BD
:100E3000FB7B9BB21846FFF70FFEBB7B9BB21846AD
:100E4000FFF70AFE7B7D5A1E7A75002BF0D100BF9A
:100E50001837BD4680BD00BF0080092080B582B034
:100E600000AF0346FB800B46BB8013467B80FB88AC
:100E700001339AB2BB8801339BB2B988F888FFF777
:100E8000C9FE0023002205210C48FFF7AFFD2C20EE
:100E9000FFF7E2FD0123002205210848FFF7A6FD28
:100EA0007B881B0A9BB21846FFF7D6FD7B88184645
:100EB000FFF7D2FD00BF0837BD4680BD0080092086
:100EC00090B583B000AF0446084611461A46234643
:100ED000FB800346BB800B467B8013463B80FB8830
:100EE000B3F5A07F4ED2BB88EF2B4BD8FA887B8816
:100EF0001344013BB3F5A07F03DBFB88C3F5A0736C
:100F00007B80BA883B881344013BEF2B03DDBB8811
:100F1000C3F1F0033B80FA887B8813449BB2013B0A
:100F20009CB2BA883B8813449BB2013B9BB2B98800
:100F3000F8882246FFF76EFE2C20FFF7B3FD012351
:100F4000002205211148FFF751FD3B88BB8015E0C9
:100F50007B88FB800CE03B8B1B0A9BB21846FFF79B
:100F60007BFD3B8B1846FFF777FDFB88013BFB8041
:100F7000FB88002BEFD1BB88013BBB80BB88002BDB
:100F8000E6D100E000BF0C37BD4690BD00800920CF
:100F900090B587B002AF0446084611461A4623466C
:100FA000FB800346BB800B46FB7013463B80FB88EF
:100FB000B3F5A07F80F0B380BB88EF2B00F2AF8049
:100FC000F98897F8242013465B0013445B000B4418
:100FD000013B002BC0F2A380BA8897F82430DB00D5
:100FE0001344013B002BC0F29A800023FB7391E075
:100FF000FB7B052B02D10023BB730AE0FA78134672
:101000009B0013441A46FB7B1344474A13441B7846
:10101000BB7300237B7377E0BB7B03F00103002BE2
:1010200034D097F82430012B0ED1FB7B9AB2FB8889
:10103000134498B27B7B9AB2BB8813449BB23A8824
:101040001946FFF70BFF59E0FB7B9AB297F8243063
:101050009BB212FB03F39AB2FB88134498B27B7BDA
:101060009AB297F824309BB212FB03F39AB2BB8872
:10107000134499B297F824309AB297F824309CB26E
:101080003B8800932346FFF71BFF37E03A8C3B88F1
:101090009A4233D097F82430012B0ED1FB7B9AB2C1
:1010A000FB88134498B27B7B9AB2BB8813449BB2F3
:1010B0003A8C1946FFF7D2FE20E0FB7B9AB297F8F4
:1010C00024309BB212FB03F39AB2FB88134498B20C
:1010D0007B7B9AB297F824309BB212FB03F39AB24F
:1010E000BB88134499B297F824309AB297F8243009
:1010F0009CB23B8C00932346FFF7E2FEBB7B5B0870
:10110000BB737B7B01337B737B7B072B84D9FB7B9E
:101110000133FB73FB7B052B7FF66AAF00E000BF5A
:101120001437BD4690BD00BFC8390000B0B584B0CB
:1011300002AF0346FB71FB790A2B0ED11A4B1B78C9
:101140009BB2DB009AB2194B1B8813449AB2174B1F
:101150001A80174B00221A8021E0FB790D2B1ED03C
:10116000134B1888114B1988124B1D88124B1B8882
:101170000D4A1278FC79019200932B462246FFF724
:1011800007FF094B1B789BB21A46520013445B00C1
:101190009AB2074B1B8813449AB2054B1A8000BFC2
:1011A0000837BD46B0BD00BFF4020010F2020010C7
:1011B000F0020010F6020010F802001080B584B0B2
:1011C00000AF78600023FB6009E0FB687A68134495
:1011D0001B781846FFF7AAFFFB680133FB60FB682A
:1011E0007A6813441B78002BEFD100BF1037BD463F
:1011F00080BD00BF80B483B000AF0346FB71FB79B4
:101200000F2B43D801A252F823F000BF4D1200006B
:101210005112000055120000591200005D1200002A
:101220006112000065120000691200006D120000DA
:101230007112000075120000791200007D1200008A
:1012400081120000851200008912000030231EE088
:1012500031231CE032231AE0332318E0342316E054
:10126000352314E0362312E0372310E038230EE054
:1012700039230CE041230AE0422308E0432306E03F
:10128000442304E0452302E0462300E0FF23184600
:101290000C37BD465DF8047B704700BF90B585B044
:1012A00000AF294B1B68184602F015FB03460C469D
:1012B000C7E90234244B1B6807EE903AF8EE677AD0
:1012C0009FED227A67EE877A17EE900A02F060FBB4
:1012D00003460C46C7E902341D4B1B685B0007EE52
:1012E000903AF8EE677A9FED1B7A67EE877A17EEF1
:1012F000900A02F04DFBD7E9022301F0F5FF034607
:101300000C461846214601F09DFE4FF000024FF0BA
:10131000814301F0E9FF03460C46184621464FF091
:1013200000024FF0814302F0E7F903460C461846ED
:10133000214602F08BFA03467B607868FFF7D4F809
:1013400000BF1437BD4690BD0403001017B7D13855
:1013500000000010DB0F494080B483B000AF78601C
:101360007B685B6843F002027B685A6000BF0C3701
:10137000BD465DF8047B704780B483B000AF7860F1
:101380000B467B807A887B689A6000BF0C37BD462D
:101390005DF8047B704700BF80B500AF294B2A4A37
:1013A0001A60284B1B68274A1268126822F0020252
:1013B0001A60244B1B68234A1268126842F002022A
:1013C0001A60204B214A1A601E4B1B681D4A126886
:1013D000126822F002021A601A4B1B68194A12683E
:1013E000126842F002021A60164B194A1A60154B35
:1013F0001B68144A1268126822F002021A60114B2C
:101400001B68104A1268126842F002021A600D4B03
:10141000104A1A600B4B1B680A4A1268126822F0C5
:1014200002021A60074B1B68064A1268126842F0F3
:1014300002021A60084801F0E7FB0748FFF78CFF3B
:1014400000BF80BD0003001018C002401CC0024055
:1014500020C0024024C002400000034080B582B09A
:1014600000AF0346FB800A4B0A4A1A6000BF084BD4
:101470001B681B6803F00203002BF8D0FB88194699
:101480000548FFF779FF00BF0837BD4680BD00BFA4
:10149000000300100C0003400000034080B400AFC4
:1014A0000B4B0C4A1A600A4B1B6807221A60084B48
:1014B000094A1A60064B1B68084A12680849A1FBD2
:1014C0000212920C1A6000BFBD465DF8047B7047A3
:1014D0000803001010E000E014E000E02403001016
:1014E00083DE1B4380B400AF074B1B680133064A01
:1014F0001360064B1B681B68054A136000BFBD469E
:101500005DF8047B704700BF04030010080300105F
:101510000C03001080B582B000AF064B7B60064A1A
:101520007B681A6000F092FC01F006FC00BF0837EF
:10153000BD4680BD08ED00E00000000080B483B02F
:1015400000AF78600B46FB707B681B68FA7802F08E
:101550000F02012101FA02F21340002B14BF0123F4
:101560000023DBB218460C37BD465DF8047B70479C
:1015700080B483B000AF78600B46FB7097F90330FE
:10158000012202FA03F31A467B681A6000BF0C3787
:10159000BD465DF8047B704780B500AF0121074868
:1015A000FFF7CCFF0346002B05D001210348FFF7CE
:1015B000DFFF012300E00023184680BD00800040CB
:1015C00080B500AFFFF7E8FF0346002B02D0024BC7
:1015D0001B68984700BF80BD0400001080B483B032
:1015E00000AF0346FB71094997F907305B09FA79A7
:1015F00002F01F02012000FA02F241F8232000BF8E
:101600000C37BD465DF8047B704700BF00E100E089
:1016100080B483B000AF03463960FB7197F907309F
:10162000002B0BDA0D49FB7903F00F03043B3A68FA
:10163000D2B2D200D2B20B441A7609E0084997F927
:1016400007303A68D2B2D200D2B20B4483F80023FA
:1016500000BF0C37BD465DF8047B704700ED00E02D
:1016600000E100E080B483B000AF78607B681B6865
:10167000DBB218460C37BD465DF8047B704700BFEF
:1016800080B483B000AF786039607B685A683B688B
:101690001A437B685A6000BF0C37BD465DF8047B77
:1016A000704700BF80B483B000AF78607B689B68F0
:1016B00018460C37BD465DF8047B704780B483B094
:1016C00000AF786039607B683A689A6000BF0C3779
:1016D000BD465DF8047B704780B483B000AF78608E
:1016E00039607B683A68DA6000BF0C37BD465DF848
:1016F000047B704780B500AF354B364A1A60344BD7
:101700001B68334A1268126822F002021A60304BDA
:101710001B682F4A1268126842F002021A602C4BB2
:101720002D4A1A602A4B1B68294A1268126822F057
:1017300002021A60264B1B68254A1268126842F0A2
:1017400002021A60224B254A1A60214B1B68204A6C
:101750001268126822F001021A601D4B1B681C4AB5
:101760001268126842F001021A60194B1C4A1A6092
:10177000174B1B68164A1268126822F001021A60A1
:10178000134B1B68124A1268126842F001021A6079
:10179000144801F059FB4FF4E131124801F0C0FB4D
:1017A00003211048FFF798FF81210E48FFF786FFBD
:1017B0000C4801F085FB05210A48FFF761FF012174
:1017C0000820FFF725FF0820FFF708FF00BF80BDB6
:1017D0001003001000C0024004C0024008C00240D4
:1017E0000CC0024000C0094080B582B000AF45483F
:1017F000FFF758FF034603F00403002B7ED0414857
:10180000FFF730FF0346FB713F4B1B68072B70D877
:1018100001A252F823F000BF391800005F18000041
:10182000F318000085180000AB180000C318000072
:10183000DB180000FB180000FB794F2B02D0722B45
:1018400004D007E0304B01221A6007E02E4B032240
:101850001A6003E02C4B00221A604FE04EE0FB7947
:101860004B2B02D04F2B04D007E0274B02221A60EB
:1018700007E0254B01221A6003E0234B00221A6087
:101880003CE03BE0FB79652B02D0722B04D007E0F3
:101890001D4B04221A6007E01B4B03221A6003E071
:1018A000194B00221A6029E028E0FB79612B04D152
:1018B000154B05221A6000BF20E0134B00221A606E
:1018C0001CE0FB79642B04D10F4B06221A6000BF89
:1018D00014E00D4B00221A6010E0FB79792B04D143
:1018E000094B07221A6000BF08E0074B00221A606C
:1018F00004E0054B00221A6000E000BF00BF08377B
:10190000BD4680BD00C009401403001080B500AF83
:101910000848FFF7C7FE034603F00403002B06D078
:101920000448FFF79FFE03461846FFF7FFFB00BF82
:1019300080BD00BF00C0004080B400AF1F23184628
:10194000BD465DF8047B704780B588B000AFF86095
:101950007A601A460B46FB721346BB7200F044FADB
:10196000F861FFF7E9FF03461A467B6803FB02F3C1
:10197000BB61FB695A00BB691A44BB695B00B2FBDF
:10198000F3F3DBB2013BFB75FB7D18462037BD4608
:1019900080BD00BF80B586B000AF7860396000239D
:1019A0007B610C2000F040F97B684FF470625A6351
:1019B0007B680022DA607B6943F400137B613B683B
:1019C000104A1A603B6800221A7100233B613B6891
:1019D00000225A713B681A683B69DBB200217868C3
:1019E000FFF7B2FF0346FB73FB7B1B021A467B69C2
:1019F00013437B617B687A691A6000BF1837BD4664
:101A000080BD00BF801A060080B483B000AF78604C
:101A10000B46FB701346BB70BB78012B09D17B686A
:101A20001A68FB78012101FA03F31A437B681A60F4
:101A30000FE07B681B6823F0E0627B681A607B68BC
:101A40001A68FB78012101FA03F3DB431A407B6833
:101A50001A6000BF0C37BD465DF8047B704700BFBD
:101A600080B500AF00F0B4F90246024B1A6000BF27
:101A700080BD00BF2403001080B400AF074BD3F833
:101A8000883003F48073002B14BF01230023DBB2E2
:101A90001846BD465DF8047B704700BF00C00F408C
:101AA00080B483B000AF0346FB710A4AFB795B0147
:101AB00013448C33AA221A60064AFB795B01134453
:101AC0008C3355221A6000BF0C37BD465DF8047B8D
:101AD000704700BF00C00F4080B400AF054BD3F883
:101AE0000C31DBB203F00303DBB21846BD465DF8F0
:101AF000047B704700C00F4080B400AF044BD3F8A4
:101B0000A83103F01F031846BD465DF8047B7047FB
:101B100000C00F4080B400AF034B1B681846BD46A1
:101B20005DF8047B704700BFC43E000080B400AF86
:101B3000024B1846BD465DF8047B7047001BB7009A
:101B400080B500AF00F0FAF80346184680BD00BF2C
:101B500080B584B000AF03463960FB710C4AFB7955
:101B600004335B0113441B68FB60FA683B68134352
:101B7000FB60074AFB7904335B011344FA681A607F
:101B8000FB791846FFF78CFF00BF1037BD4680BDBC
:101B900000C00F4080B584B000AF03463960FB71D0
:101BA0000D4AFB7904335B0113441B68FB603B68FF
:101BB000DB43FA681340FB60074AFB7904335B019F
:101BC0001344FA681A60FB791846FFF769FF00BFF3
:101BD0001037BD4680BD00BF00C00F4080B586B045
:101BE00000AF0346B9607A60FB737B685A01BB683B
:101BF00013437B610B4AFB7B04335B0113440433C7
:101C00007A691A60074AFB7B04335B0113440122A3
:101C10001A60FB7B1846FFF743FF00BF1837BD462D
:101C200080BD00BF00C00F4080B485B000AF034648
:101C3000FB71FB79FB60FB681F2B0CD90E490E4B27
:101C4000D3F8C830FA68203A012000FA02F21343B0
:101C5000C1F8C8300AE00849074BD3F8C430012066
:101C6000FA6800FA02F21343C1F8C43000BF143717
:101C7000BD465DF8047B704700C00F4080B483B060
:101C800000AF0346FB71FB79012B08D10B4A0B4BCC
:101C9000D3F8043143F48073C2F8043107E0074AF3
:101CA000064BD3F8043123F48073C2F8043100BF2B
:101CB0000C37BD465DF8047B704700BF00C00F4085
:101CC00080B483B000AF094BD3F8043103F48073C0
:101CD000002B02D00123FB7101E00023FB71FB7993
:101CE00018460C37BD465DF8047B704700C00F40B6
:101CF00080B485B000AF7860084BD3F8043103F4AA
:101D00008073FB600549FA687B681343C1F80431AE
:101D100000BF1437BD465DF8047B704700C00F401C
:101D200080B400AF044BD3F8043103F01F0318460E
:101D3000BD465DF8047B704700C00F4080B500AF22
:101D4000FFF7CAFE0346002B02D0012B04D007E0A8
:101D5000FFF7ECFE034604E0FFF7DCFE034600E07D
:101D60000023184680BD00BF80B582B000AF0023BD
:101D70007B60FFF781FE0346002B0DD0094BD3F8A3
:101D8000843003F01F0301333B60FFF7D9FE0246A6
:101D90003B6803FB02F37B607B6818460837BD464F
:101DA00080BD00BF00C00F4080B500AFFFF788FFC7
:101DB0000346002B05D0012B07D1FFF7D5FF0346C3
:101DC00004E0FFF7BBFF034600E00023184680BD98
:101DD00098B500AFFFF7E8FF0446FFF7A1FF034601
:101DE000B4FBF3F3184698BD80B582B000AF002372
:101DF0007B60FFF781FE38603B68002B06D0FFF761
:101E0000D3FF02463B68B2FBF3F37B607B68184666
:101E10000837BD4680BD00BF80B485B000AF786094
:101E200039607B681B6803F48033FB603B689B016F
:101E30009BB2FA681343FB607B68FA681A6000BFC4
:101E40001437BD465DF8047B704700BF80B489B08D
:101E500000AF164BFB61164BBB61164B7B61002339
:101E6000FB74BB691B68BB607B691B687B60BB68DC
:101E7000114A934205D17B68104A934201D1012354
:101E800000E00023FB74FB7C002B09D0FB691B687E
:101E9000FB60FB6843F47003FB60FA68FB691A603F
:101EA00000BF2437BD465DF8047B704788ED00E035
:101EB00040EF00E044EF00E021001110110000119C
:101EC00080B483B000AF78607B680F2B10D91249C3
:101ED000114BD3F8C4317A68103A012000FA02F2AB
:101EE0001343C1F8C4317B68DBB2103BDBB20DE0B9
:101EF0000949094BD3F8C43101207A6800FA02F28B
:101F0000D2431340C1F8C4317B68DBB218460C37AA
:101F1000BD465DF8047B704700C00F4080B487B0B9
:101F200000AFF860B9607A603B6000237B61FB68BA
:101F30005B69072B7CD801A252F823F05D1F0000DB
:101F4000891F0000C11F0000F91F0000F91F0000D9
:101F5000891F0000C11F0000F91F0000FB685B68BB
:101F6000C3F30B02FB689B689B0403F4E0131A4362
:101F7000FB689B685B0503F46003134343F00C4369
:101F800043F410337B6155E0FB685B68C3F30B02DD
:101F90007B681B0303F4E0431A437B68DB0303F411
:101FA00060331A433B6A9B0403F4E0131A433B6A11
:101FB0005B0503F46003134343F004437B6139E0A2
:101FC000FB685B68C3F30B02BB681B0303F4E043CD
:101FD0001A43BB68DB0303F460331A433B689B047A
:101FE00003F4E0131A433B685B0503F460031343F7
:101FF00043F008437B611DE0FB685B68C3F30B02A1
:10200000BB681B0303F4E0431A437B68DB0303F460
:1020100060331A433B689B0403F4E0131A433B6AA2
:102020005B0503F46003134343F000437B6101E06D
:10203000002300E07B6918461C37BD465DF8047B31
:10204000704700BF80B487B000AFF860B9607A60B5
:102050003B60FB68DA69BB681B68012101FA03F386
:102060001340DBB2002B01D0002344E0BB681B68A7
:1020700008335B01FA6813447B61BB681B6801226B
:1020800002FA03F3DAB2FB689A60BB681B680122AC
:1020900002FA03F3DAB2FB681A617B693A689A6064
:1020A000FB6801221A6300BFFB681B6B03F001038E
:1020B000002BF9D0BB68DA687B691A60BB681A69C3
:1020C0007B695A60BB685B69DB0203F4605297F876
:1020D00020305B0003F03E031A4397F824309B0145
:1020E00003F4F863134343F440427B691A617B694C
:1020F0007A68DA60012318461C37BD465DF8047B18
:10210000704700BF80B582B000AF78600B46FB70AF
:10211000FB781A460021786800F09CF80346002BF3
:1021200021D0FB781A460121786800F093F8034625
:10213000002B07D0FB781A460021786800F0EAF8F7
:10214000012311E0FB781A460221786800F082F83A
:102150000346002B07D0FB781A460121786800F06F
:10216000D9F8002300E0002318460837BD4680BD9B
:1021700080B487B000AFF860B9603B601346FB7174
:102180004FF0FF337B61FA79BB681A6097F828201B
:10219000BB685A61BB687A6A5A6097F82830072B87
:1021A0004DD801A252F823F0C9210000E921000016
:1021B000032200001D2200001D220000E921000072
:1021C000032200001D220000BB683A68DA60BB6889
:1021D0003A6A1A6103237B61BB6802229A607B6AB8
:1021E0009A08BB685A602BE0BB683A68DA60012342
:1021F0007B61174A3B6A52F823301A46BB681A6162
:102200001EE0134A3B6852F823301A46BB68DA6076
:10221000BB683A6A1A6102237B6111E00C4A3B6891
:1022200052F823301A46BB68DA60094A3B6A52F812
:1022300023301A46BB681A6100237B6100E000BFAF
:102240007B6918461C37BD465DF8047B704700BFAC
:102250000800001080B483B000AF78600B46FB70BC
:102260001346BB70FB78042B43D801A252F823F02D
:10227000852200009B220000B1220000C72200003E
:10228000DD2200007B681B68DAB2BB78012101FA0D
:1022900003F3DBB21340DBB235E07B685B68DAB294
:1022A000BB78012101FA03F3DBB21340DBB22AE071
:1022B0007B68DB68DAB2BB78012101FA03F3DBB299
:1022C0001340DBB21FE07B685B69DAB2BB780121A7
:1022D00001FA03F3DBB21340DBB214E07B689B69C5
:1022E000DAB2BB78012101FA03F3DBB21340DBB2AF
:1022F00009E07B68DB69DAB2BB78012101FA03F3FC
:10230000DBB21340DBB218460C37BD465DF8047BE8
:10231000704700BF80B483B000AF78600B46FB709D
:102320001346BB70FB78002B07D1BB78012202FA61
:1023300003F3DAB27B689A6006E0BB78012202FA06
:1023400003F3DAB27B681A6100BF0C37BD465DF853
:10235000047B704780B485B000AF78600B46FB709B
:102360001346BB70FB7808335B017A681344FB604B
:10237000BB78012B06D1FB681B6943F00102FB68A7
:102380001A6105E0FB681B6923F00102FB681A6112
:1023900000BF1437BD465DF8047B7047B0B592B0FE
:1023A00004AFF8607A603B600B46FB72002387F84D
:1023B0003730002387F83630FA7A07F1140197F89E
:1023C00048300293FB6C01933B6800937B68F8688C
:1023D000FFF7CEFE38633B6B002B01DA00234FE0A2
:1023E0003B6B03F00103002B02D000237B6005E070
:1023F0007868FFF765FD034687F837303B6B03F0DD
:102400000203002B02D000233B6005E03868FFF791
:1024100057FD034687F836301B4A7B6813441B7808
:102420001946194A3B6813441B781C46174A7B68B7
:1024300013441B781D46154A3B6813441B7807F16B
:10244000140000932B462246FFF768FDF86207F15F
:10245000140197F83630019397F837300093002332
:10246000FA6AF868FFF7EEFD0346002B01D100235E
:1024700006E0FB7A01221946F868FFF76BFF01239B
:1024800018463837BD46B0BDC83E0000E83E0000E3
:1024900080B582B000AF0346FB71FA790749134655
:1024A000DB009B1A9B000B4404331B781846FFF794
:1024B000BBFB00BF0837BD4680BD00BF88000010D1
:1024C00080B582B000AF0346FB71FFF78DFC034679
:1024D00018460837BD4680BD80B483B000AF786031
:1024E0007B683C229A617B6860221A6000BF0C37CF
:1024F000BD465DF8047B704780B483B000AF786060
:102500007B6838229A617B6844221A6000BF0C37CE
:10251000BD465DF8047B704780B483B000AF78603F
:102520007B681B6803F01003002B0CBF0123002302
:10253000DBB218460C37BD465DF8047B704700BF20
:1025400080B483B000AF78607B685B6803F0F80309
:1025500018460C37BD465DF8047B704780B584B0E3
:1025600000AF786039603C23FB607868FFF7E8FFD4
:102570000346582B00F2158101A252F823F000BF48
:1025800091270000A3270000A3270000A327000035
:10259000A3270000A3270000A3270000A327000013
:1025A000E5260000A3270000A3270000A3270000C2
:1025B000A3270000A3270000A3270000A3270000F3
:1025C000E5260000A3270000A3270000A3270000A2
:1025D000A3270000A3270000A3270000A3270000D3
:1025E00003270000A3270000A3270000A327000063
:1025F000A3270000A3270000A3270000A3270000B3
:1026000079270000A3270000A3270000A3270000CC
:10261000A3270000A3270000A3270000A327000092
:1026200003270000A3270000A3270000A327000022
:10263000A3270000A3270000A3270000A327000072
:1026400079270000A3270000A3270000A32700008C
:10265000A3270000A3270000A3270000A327000052
:1026600089270000A3270000A3270000A32700005C
:10267000A3270000A3270000A3270000A327000032
:1026800067270000A3270000A3270000A32700005E
:10269000A3270000A3270000A3270000A327000012
:1026A00079270000A3270000A3270000A32700002C
:1026B000A3270000A3270000A3270000A3270000F2
:1026C0004B270000A3270000A3270000A32700003A
:1026D000A3270000A3270000A3270000A3270000D2
:1026E000432700003B681B785B003A689268002A29
:1026F0000CBF01220022D2B213431A467B689A60B3
:102700004FE03B689B68002B0CD13B681B69002B9A
:1027100002D06FF0200301E06FF01003FA6813405D
:10272000FB603EE03B685B68591C3A6851601B786F
:102730001A467B689A603B689B685A1E3B689A60A1
:102740002FE0FB6823F01003FB603B68DB68591C3B
:102750003A68D1607A689268D2B21A703B681B6995
:102760005A1E3B681A613B681B69012B18DDFB6828
:1027700023F00403FB6013E03B6801221A75FB6839
:1027800023F01003FB600CE03B6802221A7508E09E
:102790003B6803221A75FB6823F01003FB6000E01E
:1027A00000BFFB6883F03C027B681A607B68FA68B4
:1027B0009A61FB6803F01003002B03D03B681B7D7C
:1027C000022B08D13B681B7D042B02D13B68002201
:1027D0001A75002300E0012318461037BD4680BD5E
:1027E00080B485B000AF03460A46FB711346BB7147
:1027F000FA791346DB009B1A9B000B4A1344FB60DB
:10280000BB79012B0AD1FB681B691433BB6000BF85
:10281000BB681B78DBB2042BFAD000E000BF143792
:10282000BD465DF8047B70478800001080B582B01B
:1028300000AF0346FB71FB791846FFF729FEFA79D2
:1028400006491346DB009B1A9B000B441B686C2255
:102850009A6100BF0837BD4680BD00BF88000010E8
:1028600080B584B000AF03463960FB71FB79184630
:10287000FFF726FE02463B68B2FBF3F3FB60FA79F2
:1028800010491346DB009B1A9B000B441B68FA6837
:1028900052081A61FA790B491346DB009B1A9B0018
:1028A0000B441968FA7907481346DB009B1A9B0012
:1028B00003441B681B69FA68D31A4B6100BF1037C9
:1028C000BD4680BD8800001080B485B000AF0346CF
:1028D0003960FB71FA791346DB009B1A9B000C4AA6
:1028E0001344FB60FB681B69002B02D1FB683A684C
:1028F0009A60FB689A683B689A420CBF01230023E8
:10290000DBB218461437BD465DF8047B704700BF44
:102910008800001080B584B000AF03463960FB71B9
:10292000FA791346DB009B1A9B00204A1344FB6094
:10293000FB689B68FA790321104698473B6804229C
:102940001A75FB683A681A61FB685B69002B04D151
:10295000FB681B681846FFF7BFFDFB689B68FA79A8
:10296000012110469847FB6800221A6100BFFB68EE
:102970001B681846FFF7D0FD0346002BF7D0FB6815
:102980009B6903F47F43002B04D0FB681B68184647
:10299000FFF7B2FDFB689B68FA790421104698475F
:1029A0003B681B7D18461037BD4680BD880000106F
:1029B00080B588B000AF3A601A460346FB710B46FB
:1029C000BB7113467B7107F1080300221A605A603D
:1029D0009A60DA601A615A61BB793B723B68FB60AE
:1029E0007B793B6100BF07F10802FB79114618466D
:1029F000FFF790FF0346022BF5D07A793B69D31A93
:102A000018462037BD4680BD80B588B000AF3B601A
:102A10000346FB710B46BB7113467B7107F108033C
:102A200000221A605A609A60DA601A615A61BB79B2
:102A30003B727B1DFB6001233B613B687B61BB6A92
:102A4000BB6100BF07F10802FB7911461846FFF78A
:102A500061FF0346022BF5D0BB69BA6AD31A184648
:102A60002037BD4680BD00BF80B582B000AF0346B1
:102A7000FB71FA7913491346DB009B1A9B000B4448
:102A80001868FA790F491346DB009B1A9B000B4428
:102A900010331B681946FFF761FD0346002B0CD16C
:102AA000FA7908491346DB009B1A9B000B44083354
:102AB0001B68FA7902211046984700BF0837BD46C7
:102AC00080BD00BF8800001080B485B000AFF86002
:102AD000B9607A603B60FB681B6823F0FF02BB684B
:102AE0001A437B681A433B681A43FB681A6000BFAD
:102AF0001437BD465DF8047B704700BF80B483B0D7
:102B000000AF786039607B685B6823F004023B6843
:102B10001A437B685A6000BF0C37BD465DF8047BE2
:102B2000704700BF80B485B000AF78607B680B4A07
:102B3000934202D10A23FB7308E07B68084A934260
:102B400002D11423FB7301E01523FB73FB7B1846B2
:102B50001437BD465DF8047B704700BF000003409A
:102B600000C00A4080B487B000AFF860B9607A60F6
:102B7000FB681B6823F47F437B61BB681B029AB22E
:102B80007B691A43FB681A60FB687A681A6100BFA8
:102B90001C37BD465DF8047B704700BF80B586B02A
:102BA00000AF78603960FFF71FF9B86000237B61E0
:102BB0004FF0FF333B610223FB6017E07B69013379
:102BC000FA6802FB03F3BA68B2FBF3F33B613A69BC
:102BD0003B689A420AD97B6901337B617B69FF2B91
:102BE00004D900237B61FB680233FB603A693B68D0
:102BF0009A42E3D8FA6879697868FFF7B3FF00BFB3
:102C00001837BD4680BD00BF80B582B000AF786088
:102C10007868FFF787FF03461846FFF705F800219D
:102C20007868FFF76BFF0023002207217868FFF721
:102C30004BFF04497868FFF7B1FF00BF0837BD4676
:102C400080BD00BF0024F40080B400AF074BD3F870
:102C5000883003F48073002B14BF01230023DBB200
:102C60001846BD465DF8047B704700BF00C00F40AA
:102C700080B400AF074BD3F8883003F48063002B97
:102C800014BF01230023DBB21846BD465DF8047B68
:102C9000704700BF00C00F4080B483B000AF034650
:102CA000FB71054AFB79C2F80C3100BF0C37BD46F9
:102CB0005DF8047B704700BF00C00F4080B483B054
:102CC00000AF7860044A7B68C2F8A83100BF0C37B7
:102CD000BD465DF8047B704700C00F4080B500AF73
:102CE0000020FEF7CBFFFFF7AFFF0346002B03D01A
:102CF00001210020FEF74EFF0020FFF7CDFF00224C
:102D000009210020FEF76AFF01210020FEF720FFC5
:102D10000120FEF7EDFF00BFFFF7AAFF034683F097
:102D20000103DBB2002BF7D10120FEF7A7FF022041
:102D3000FFF7C4FF00BF80BD80B500AFFFF7CEFF37
:102D400000BF80BD80B483B000AF786039607B681D
:102D50003A689A6000BF0C37BD465DF8047B704747
:102D600080B483B000AF786039607B683A68DA601D
:102D700000BF0C37BD465DF8047B704780B483B05C
:102D800000AF78607B68DB6843F080027B68DA60C4
:102D900000BF0C37BD465DF8047B704780B483B03C
:102DA00000AF78607B68DB6823F080027B68DA60C4
:102DB00000BF0C37BD465DF8047B704780B483B01C
:102DC00000AF78600B46FB701346BB70FA787B68E7
:102DD0001A60BA787B685A6000BF0C37BD465DF850
:102DE000047B704780B485B000AF78607B68124A7E
:102DF000934202D10423FB7316E07B680F4A93428F
:102E000002D11823FB730FE07B680D4A934202D175
:102E10001923FB7308E07B680A4A934202D1082316
:102E2000FB7301E00323FB73FB7B18461437BD469D
:102E30005DF8047B704700BF00000140008009403E
:102E400000C0094000400A4080B584B000AF7860FF
:102E50007868FFF7C7FF03461846FEF7E5FE07212F
:102E60007868FFF76FFF786800F042F87B6800220F
:102E70005A607B680022DA607B6800221A627B68F5
:102E80000022DA647B6800225A657B6800221A659A
:102E90007B680A4A934205D17B6800221A617B68ED
:102EA0009B69FB6003217868FFF75AFF7B6810225B
:102EB0009A6200BF1037BD4680BD00BF00000140D0
:102EC00080B483B000AF78607B68084A934203D136
:102ED0007B680122DA6502E07B6880221A6300BF0A
:102EE0000C37BD465DF8047B704700BF00400A40C8
:102EF00080B483B000AF78607B68084A934203D106
:102F00007B680022DA6502E07B6800221A6300BF5A
:102F10000C37BD465DF8047B704700BF00400A4097
:102F200080B586B000AF78603960FEF75DFF7861EC
:102F30003B681B017A69B2FBF3F33B613B691B0AF7
:102F4000FB60FB681B023A69D31ABB607868FFF725
:102F500015FFBB68DBB2FA68D2B219467868FFF792
:102F60002DFF7868FFF71AFF7A693B69B2FBF3F32C
:102F700018461837BD4680BDFDF7FEB9F8B5304F8D
:102F80003C68002851D10020F8BD2368B3F1805F70
:102F900039D1D4E9013252B11168B1F1805F06D163
:102FA000516803330B4463609368A360F1E7AB425D
:102FB00007DB9E4505DB20464FF0005340F80C3BF5
:102FC000E2E7634511D920464FF00051656040F8B3
:102FD0000C1B5B1B00EB8501A160033B4FF0805491
:102FE00040F82540C1E90132CEE762B9A0EB830089
:102FF00000F044F80130C6D04FF00053C4E900356A
:1030000004F10C00C0E72646A468002CBDD10C30AA
:1030100000F034F8431CB6D04FF00053C0E900353F
:10302000846056B938600C30AEE7C31C9D0800269A
:1030300005F10A0C05F1030EE7E7B060F3E700BF06
:103040001C03001037B50023002204460D4600F093
:1030500046FC68B14FF0FF310020CDE90010224658
:1030600005F100431046194600F026F803B030BDC4
:1030700001230093019022462B46F3E770B50B4DD8
:103080002B680BB90A4B2B60C41C2E6824F0030478
:103090003444204600F01CF910B92C60304670BD55
:1030A000044B0C221A604FF0FF36F7E718030010AC
:1030B00028030010200300102DE9F04714461D4698
:1030C0008046894679A3D3E9002320462946DDE9D5
:1030D000087600F02FFC40B1714B724D21221A602E
:1030E000002420462946BDE8F08753A3D3E90023F6
:1030F0002046294600F000FB51A3D3E9002300F04D
:103100007DF900F083FB824600F0DCFB1AF0010F32
:1031100004460D4618BF7F422EB10022624B00F0DC
:1031200015FA04460D4648A3D3E900232046294654
:1031300000F0DAF802460B464046494600F006FA2F
:1031400043A3D3E90023804689462046294600F060
:10315000CBF802460B464046494600F0CDFA0446FD
:103160000D4600F0A7F83CA3D3E9002300F0E2FBF2
:10317000002857D022462B462046294600F0B4F8B6
:1031800037A3D3E900238046894600F0ADF836A383
:10319000D3E9002300F0DAF942464B4600F0A4F8E8
:1031A00033A3D3E9002300F0A7FA42464B4600F0D0
:1031B0009BF831A3D3E9002300F0C8F942464B46FF
:1031C00000F092F82EA3D3E9002300F095FA4246CE
:1031D0004B4600F089F82CA3D3E9002300F0B6F9A0
:1031E00042464B4600F080F829A3D3E9002300F0C3
:1031F00083FA42464B4600F077F827A3D3E9002331
:1032000000F0A4F942464B4600F06EF822462B46E9
:1032100000F06AF802460B462046294600F06CFA98
:1032200004460D46002FBFBF224605F10043144659
:103230001D4656E7AFF30080182D4454FB21F93F9B
:10324000182D4454FB2109400000000000220940D1
:103250009EE59E4BEFAEE23EBBBDD7D9DF7CDB3DAA
:1032600095DF9369FF80E83C9C4908DC20E46A3DD7
:1032700030D46A683C12E63DABC05D4B45E65A3E31
:1032800063F024A5E31DC73E1A3E011AA0012A3FA0
:10329000B01011111111813F555555555555C53F68
:1032A000200300100000F0FF0000E03F00000000DD
:1032B00065CDCD4138B50022002304460D4600F00F
:1032C0000EFB10B105F100431D462046294638BDCE
:1032D000044B23B1984234BF0020012070471846A8
:1032E000704700BF000000002DE9F047994681EAD1
:1032F0000904C1F30A5590460B464F4640F2FF764B
:1033000004F0004435B1B54204D0C9F30A520AB101
:10331000B24207D15B0013F5001F58D35BD00020E9
:10332000344946E0C1F3130343F4801E4FEA585C6E
:103330004FEAC828AEFB08674CEAC92C4CF0004C99
:10334000154400233A46ECFB0E23B646A8FB006763
:10335000B8464FF00009E0FB0C8918EB0E014FF066
:10336000000A49EB0A0A12EB0A0843F10009B9F511
:10337000801F41EA96011ED218EB080649EB0900AE
:1033800046EAD178A5F5806581464900C80F18EB5B
:10339000000249F10003B1F1004F40F2FD71164601
:1033A00008BF22F001068D4208D81C4304EB0551EA
:1033B0003046BDE8F087A5F2FF35E7E7002D03DBD7
:1033C00044F0FF4444F4E00400202146F1E77A0091
:1033D00012F5001FF8D3084A7F0097429FD8134286
:1033E0004FF000009CD017429AD044F0FF4141F4C6
:1033F000E001DEE70000F87F0000E0FF2DE9F04F7C
:10340000C1F30A5C994604460D460B4690464F466A
:1034100040F2FF7081EA0901BCF1000F06D084453B
:1034200004D0C9F30A520AB1824206D1454A580073
:1034300090425CD90020444957E02046640D44EA9C
:10344000C52343F000454FEA585343EAC92343F0EC
:10345000004B5D454FEAC0244FEAC82A08BF5445D7
:1034600028BF6308ACEB020224BF43EAC5736808B7
:103470004FEA5A0832BF02F2FD301C46054648EAC0
:10348000CB7828BF02F2FE304FEA5B0935220023D9
:103490004D4508BF44454FEA430305D3B4EB080448
:1034A00065EB090543F0010324196D41212A08BF8A
:1034B0001E46013AECD14D4508BF444502D30133C5
:1034C00008BF013601F0004240F2FD71884204D885
:1034D00002EB00529119184607E00028A4BF42F001
:1034E000FF4242F4E00200201146BDE8F08F7C006C
:1034F00014F5001F9ED83B4312EA430301D1124941
:10350000E9E710EA020501F0004302D11946284616
:10351000EBE7224005D143F0FF4141F4E0011046C2
:10352000E3E714F5001F05D043F0FF41002041F40C
:10353000E001DAE710F5001F4FF000003FF47BAF29
:103540001946D2E70000E0FF0000F87F944691EAB8
:103550000302F0B50E4605469E4607D503F1004529
:103560002B466246BDE8F04000F0C6B8994203D34E
:10357000604509D8994207D102F1004256408EEACF
:10358000020E2A4665469446370D27F4006240F243
:10359000FF714FEA1E508A42A7EB000400F09F80A3
:1035A000944200F09880C6F31302CEF313031F2C4D
:1035B00042F4801143F480134ED823FA04F2891A9E
:1035C00000F12002D21B93402CFA04F41C432C1B64
:1035D00038BF01F1FF311CFA02F3254603D05B42EC
:1035E000651E04B9013911F4C01F53D1EA0FDB0F76
:1035F00042EA410243EA450352EA03046CD0BC1E8E
:10360000510B23D0510C01BF190F41EA02121B01CB
:10361000043CD10C01BF990F41EA82029B00023C9D
:10362000110D02BFD90F41EA420204F1FF344FEA03
:10363000D67108BF5B00B1EBD42F4FF0000006BF7E
:1036400002EB0451184606F00041F0BD190E41EAA4
:1036500002221B02083CD3E7352C1BD8203C23FA5E
:1036600004F2AA1AC4F1200003FA00F338BF01F1F2
:10367000FF312CFA04F45FEA0C60154643EA0403B8
:1036800006D043F0FF035B42551E1AB9013901E031
:10369000002BF8D1CA0209D4013F7A050FD0EA0FF6
:1036A00042EA4101DA0F42EA45055B00002B21F4B2
:1036B00080124FEA075405DB11192846C5E7390582
:1036C0001046C2E7013508BF0132B3F1004F08BF11
:1036D00025F00105F0E75CB921462046B5E7330344
:1036E0004FF0000001D00349AFE70CB90149F4E7FE
:1036F0003146E2E70000F87F91EA030FF0B5944607
:103700000E4605469E4606D503F100452B46BDE80C
:10371000F040FFF71BBF99423CBF1E4615464FEADB
:1037200016523CBF84468E4622F4006040F2FF777A
:103730004FEA1E51B842A2EB01045CD0844255D03E
:10374000C6F31307CEF313031F2C47F4801743F47B
:10375000801326D82031891A23FA04F02CFA04F4B5
:103760008B402343ED18074428BF01370CFA01F3BF
:10377000B9022BD5013508BF01370BB925F0020579
:10378000360D360506EB5706730013F5001F37BFDD
:10379000FF070132314647EA550024BF00201105DA
:1037A000F0BD352CE4D8203C23FA04F16D18C4F1A7
:1037B000200103FA01F32CFA04F428BF0137234354
:1037C0005FEA0C6118BF43F0FF03D1E7002B02F161
:1037D000FF3207DA013508BF0137B3F1004F08BFE8
:1037E00025F0010507EB02512846D9E74CB906F050
:1037F00000412046D4E733034FF0000001D00249D6
:10380000CEE73146F0E700BF0000F87FCB0243EA85
:10381000505040F21E43A3EB115340F00040FF2BE9
:1038200020FA03F011D913F4E06F01D14042704740
:1038300011F0804009D04B0013F5001F04D86FF041
:10384000004000EBD17070470020704740F21E42EC
:10385000A2EB1152FF2A07D8CB0243EA505040F0A6
:10386000004323FA02F0704701F1404303F580134F
:10387000B3F1804F4FF0FF3088BF0020704720B970
:1038800003460246104619467047030C0CBF00045D
:1038900001F18071030E0CBF000201F50001030F5E
:1038A0000CBF000101F58001830F0CBF800001F502
:1038B00000110028ACBF400001F5801101EBE023AE
:1038C0004205DFE700F00041002801F18041B8BF68
:1038D0004042FFF7D4BF4FF08041FFF7D0BF30B573
:1038E0000D461C4655EA040301460BD4630013F54C
:1038F000001F1DD8A54219D31AD190422CBF002019
:10390000012030BD680010F5001F11D8630013F5C9
:10391000001F0DD80B4313431843F2D0A54205D81E
:1039200006D1914294BF00200120EAE70120E8E798
:103930000020E6E730B50C46194654EA01034FEA89
:1039400044050AD415F5001F1ED88C421ED81BD181
:10395000904234BF0020012030BD15F5001F13D860
:103960004B0013F5001F0FD88C420FD304D19042A7
:103970008CBF00200120EFE71843104350EA0503F5
:103980000CBF01200020E7E70020E5E70120E3E786
:10399000C31013F07F610AD0B1F17F6F4FEA40721C
:1039A00043F0E04308D003F148411046704703F06C
:1039B000004300201946704752EA0332014A18BFFB
:1039C0001346F6E70000F87F00000000003E5B4F62
:1039D0005B3E3E6B4F6B3E1C3E7C3E1C183C7E3C6F
:1039E000181C577D571C1C5E7F5E1C00183C18007D
:1039F000FFE7C3E7FF0018241800FFE7DBE7FF300D
:103A0000483A060E2629792926407F050507407F7A
:103A100005253F5A3CE73C5A7F3E1C1C08081C1CED
:103A20003E7F14227F22145F5F005F5F06097F01E3
:103A30007F006689956A606060606094A2FFA294CE
:103A400008047E040810207E201008082A1C08089C
:103A50001C2A08081E101010100C1E0C1E0C3038EA
:103A60003E3830060E3E0E06000000000000005FEB
:103A700000000007000700147F147F14242A7F2A07
:103A800012231308646236495620500008070300C9
:103A9000001C2241000041221C002A1C7F1C2A0815
:103AA000083E080800807030000808080808000078
:103AB00060600020100804023E5149453E00427FEC
:103AC000400072494949462141494D331814127F3B
:103AD0001027454545393C4A4949314121110907DB
:103AE0003649494936464949291E0000140000005C
:103AF000403400000008142241141414141400412E
:103B000022140802015909063E415D594E7C1211EA
:103B1000127C7F494949363E414141227F41414122
:103B20003E7F494949417F090909013E414151739D
:103B30007F0808087F00417F41002040413F017F0E
:103B4000081422417F404040407F021C027F7F04D6
:103B500008107F3E4141413E7F090909063E41511F
:103B6000215E7F09192946264949493203017F010F
:103B7000033F4040403F1F2040201F3F4038403F10
:103B8000631408146303047804036159494D430026
:103B90007F4141410204081020004141417F04025D
:103BA00001020440404040400003070800205454F4
:103BB00078407F28444438384444442838444428D2
:103BC0007F385454541800087E090218A4A49C7825
:103BD0007F0804047800447D40002040403D007F81
:103BE0001028440000417F40007C047804787C0861
:103BF0000404783844444438FC1824241818242435
:103C000018FC7C08040408485454542404043F4419
:103C1000243C4040207C1C2040201C3C4030403C48
:103C200044281028444C9090907C4464544C4400A8
:103C3000083641000000770000004136080002010C
:103C40000204023C2623263C1EA1A161123A4040F8
:103C5000207A385454555921555579412254547875
:103C600042215554784020545579400C1E5272120E
:103C70003955555559395454545939555454580097
:103C800000457C410002457D420001457C407D129B
:103C900011127DF0282528F07C54554500205454FD
:103CA0007C547C0A097F4932494949323A444444A8
:103CB0003A324A4848303A4141217A3A42402078E3
:103CC000009DA0A07D3D4242423D3D4040403D3CE4
:103CD00024FF2424487E4943662B2FFC2F2BFF0909
:103CE00029F620C0887E09032054547941000044FD
:103CF0007D413048484A32384040227A007A0A0AE8
:103D0000727D0D19317D2629292F2826292929265A
:103D100030484D4020380808080808080808382F9F
:103D200010C8ACBA2F102834FA00007B0000081429
:103D30002A142222142A1408AA005500AAAA55AA55
:103D400055AA000000FF00101010FF00141414FF0B
:103D5000001010FF00FF1010F010F0141414FC00FD
:103D60001414F700FF0000FF00FF1414F404FC1407
:103D70001417101F10101F101F1414141F00101000
:103D800010F0000000001F101010101F1010101075
:103D9000F010000000FF101010101010101010FF95
:103DA00010000000FF140000FF00FF00001F1017AC
:103DB0000000FC04F414141710171414F404F40095
:103DC00000FF00F714141414141414F700F714145B
:103DD00014171410101F101F141414F4141010F0E2
:103DE00010F000001F101F0000001F14000000FC56
:103DF000140000F010F01010FF10FF141414FF1442
:103E00001010101F00000000F010FFFFFFFFFFF078
:103E1000F0F0F0F0FFFFFF0000000000FFFF0F0FC9
:103E20000F0F0F3844443844FC4A4A4A347E020299
:103E30000606027E027E0263554941633844443CD3
:103E400004407E201E2006027E020299A5E7A59965
:103E50001C2A492A1C4C7201724C304A4D4D30309C
:103E600048784830BC625A463D3E494949007E0187
:103E700001017E2A2A2A2A2A44445F444440514AA6
:103E8000444040444A51400000FF0103E080FF00ED
:103E90000008086B6B083612362436060F090F0629
:103EA000000018180000001010003040FF01010051
:103EB0001F01011E00191D1712003C3C3C3C000074
:103EC000000000FF001BB700000201010101010119
:103ED00000000000000000000000000000000404DA
:103EE00000000000000000000002000000000000D0
:103EF00002010000000000000202020202020202AF
:083F00000000000000000202B5
:103F0800640000009D1200000000000080000C40CA
:103F18000880084008800840080003400800034063
:103F280008C00A4008C00A400440034000C00840D6
:103F380000C0004000C000400000014000000140F7
:103F48000080094000800940184000401C400040A3
:103F5800188000401C800040180009401C000940DF
:103F680008800A400C800A400000000000000000A1
:103F780000C0094000C0094000400A4000400A4013
:103F8800184009401C40094000C0014007000000DB
:103F9800E127000000000000000000000000000011
:103FA8000000000000C0054013000000E1270000E9
:103FB80000000000000000000000000000000000F9
:103FC80000000A401A000000E1270000000000007D
:0C3FD800000000000000000000000000DD
:04000003000001896F
:00000001FF
