:100000000000011089010000210200002702000009
:100010002D020000330200003902000096F3FEEFCB
:100020000000000000000000000000003F0200008F
:1000300045020000000000004B020000E119000032
:100040005702000057020000F91D0000570200008F
:1000500057020000DD210000570200005702000097
:10006000B920000057020000E10C00005702000018
:10007000570200005702000057020000570200001C
:10008000570200005702000057020000570200000C
:1000900057020000570200005702000057020000FC
:1000A00057020000570200002D0800005702000010
:1000B00057020000570200005702000057020000DC
:1000C00057020000570200005702000057020000CC
:1000D00057020000570200007D0B0000570200008D
:1000E00057020000884F000000000010DC000000F4
:1000F000884F00000000002000000000DC0000101D
:1001000048020000000000200000000080B489B018
:1001100000AFF860B9607A60BB68FB61FB68BB61E7
:1001200000237B610AE0BA69131DBB61FB69191DDD
:10013000F96112681A607B6904337B617A697B68B4
:100140009A42F0D300BF2437BD465DF8047B704768
:1001500080B485B000AF786039607B68FB600023B5
:10016000BB6007E0FB681A1DFA6000221A60BB68DA
:100170000433BB60BA683B689A42F3D300BF1437BC
:10018000BD465DF8047B704780B586B000AF1F4B5D
:100190007B6113E07B691A1D7A611B683B617B6997
:1001A0001A1D7A611B68FB607B691A1D7A611B68E6
:1001B000BB60BA68F9683869FFF7A8FF7B69144A21
:1001C0009342E7D30DE07B691A1D7A611B68FB60DF
:1001D0007B691A1D7A611B68BB60B968F868FFF714
:1001E000B7FF7B690B4A9342EDD3DFF870000168DB
:1001F00041F470010160084B7B60084A7B681A601B
:1002000001F038FC03F0A8FBFEE700BFE4000000AB
:10021000FC0000000C01000008ED00E00000000000
:1002200080B400AFFEE780B400AFFEE780B400AF5B
:10023000FEE780B400AFFEE780B400AFFEE780B415
:1002400000AFFEE780B400AFFEE780B400AFFEE78A
:1002500080B400AFFEE780B400AFFEE788ED00E0B9
:10026000FFFFFFFFFFFFFFFFFFFFFFFFFFFFFFFF9E
:10027000FFFFFFFFFFFFFFFFFFFFFFFFFFFFFFFF8E
:10028000FFFFFFFFFFFFFFFFFFFFFFFFFFFFFFFF7E
:10029000FFFFFFFFFFFFFFFFFFFFFFFFFFFFFFFF6E
:1002A000FFFFFFFFFFFFFFFFFFFFFFFFFFFFFFFF5E
:1002B000FFFFFFFFFFFFFFFFFFFFFFFFFFFFFFFF4E
:1002C000FFFFFFFFFFFFFFFFFFFFFFFFFFFFFFFF3E
:1002D000FFFFFFFFFFFFFFFFFFFFFFFFFFFFFFFF2E
:1002E000FFFFFFFFFFFFFFFFFFFFFFFFFFFFFFFF1E
:1002F000FFFFFFFFFFFFFFFFFFFFFFFFFFFFFFFF0E
:1003000080B584B000AF7860124B00221A60786824
:1003100001F0B6FE0023FB6001F034FD09E001F0BE
:1003200039FD0346002B04D001F02CFDFB6801339E
:10033000FB60084B1B68022B02D0FB68192BEED127
:10034000FB68192B01D1012300E000231846103768
:10035000BD4680BD1803001080B500AF0548FFF70B
:10036000CFFF0548FFF7CCFF0448FFF7C9FF00BFE8
:1003700080BD00BFB8480000C8480000F048000039
:1003800080B582B000AF786039600C48FFF7B8FFE5
:100390000B4B00221A600B4801F072FE786801F0E6
:1003A0006FFE094801F06CFE386801F069FE0748ED
:1003B000FFF7A6FF00BF0837BD4680BD004900001B
:1003C000180300101449000044490000504900007F
:1003D00080B500AF0248FFF793FF00BF80BD00BFAC
:1003E0009049000080B500AF01F0A2FF01F0D4FAFF
:1003F00000F070FB01F04EFA00F074F900F014FC0C
:1004000000F0C6F900F0CAFD01F0A0FD01F062FCA9
:1004100000BF80BD80B586B002AFFFF7E3FF01F0FB
:10042000CDFC4FF6FF7000F01BFE4FF6FF71002071
:1004300000F040FD5021502000F024FD022000F08B
:1004400051FD984801F03CF87821502000F01AFD49
:10045000954801F035F84FF47A6001F0F5FA012380
:10046000BB730123FB734FF6FF7000F0F9FD07F13A
:10047000090201230221382000F01CFC3A1D01234F
:100480000421382000F016FC3B1D5A1C01230321D7
:10049000382000F00FFC3B1D9A1C01230621382058
:1004A00000F008FC3B1DDA1C01230521382000F078
:1004B00001FC3B799AB27B791B029BB203F4706317
:1004C0009BB21344BB81BB799AB2FB791B029BB2EE
:1004D00003F470639BB213447B813A1D01230A210C
:1004E000382000F0E7FB3B1D5A1C0123092138206E
:1004F00000F0E0FB3B1D9A1C01230C21382000F08A
:10050000D9FB3B1DDA1C01230B21382000F0D2FB64
:10051000FA1C01230121382000F0CCFB4FF6FF71BB
:10052000002000F0C7FC3C21BE2000F0ABFC5F487F
:1005300000F0C6FF4FF4FC61002000F0BBFC3C2142
:100540001E2000F09FFC5A4800F0BAFF1F21002037
:1005500000F0B0FCB4211E2000F094FC554800F0DF
:10056000AFFF4DF2BA614FF6FF7000F0A3FCB4216B
:10057000BE2000F087FC504800F0A2FFFB7BBB735D
:100580007B899F2B04D8BB897E2B01D80123FB7369
:100590007B89A02B04D9BB897E2B01D80223FB7356
:1005A0007B89A02B04D9BB897F2B01D90323FB7343
:1005B0007B899F2B04D8BB897F2B01D90423FB7334
:1005C000FA7BBB7B9A423FF452AFFB7B012B17D1E6
:1005D0003A4B3B4A1A604FF6FF7000F041FD40F283
:1005E000FF7300937823A0220021A02000F0EAFDF1
:1005F000FFF7B2FEFFF7ECFE32493348FFF7C0FECB
:10060000FB7B022B17D12D4B304A1A604FF6FF703F
:1006100000F026FD4FF4FC6300937823A022002114
:10062000002000F0CFFDFFF797FEFFF7D1FE254930
:100630002748FFF7A5FEFB7B032B16D11F4B254A4E
:100640001A604FF6FF7000F00BFD1F230093782314
:10065000A0227821002000F0B5FDFFF77DFEFFF716
:10066000B7FE18491C48FFF78BFEFB7B042B7FF479
:10067000FEAE124B194A1A604FF6FF7000F0F0FC04
:100680004DF2BA6300937823A0227821A02000F0D5
:1006900099FDFFF761FEFFF79BFE0A491048FFF73F
:1006A0006FFEE4E6BC490000C8490000D8490000DC
:1006B000E0490000E8490000F4490000040000108F
:1006C000B5150000004A0000084A0000F9140000B7
:1006D000104A000089160000184A0000591700004F
:1006E000204A000080B500AF124B134A1A60114B2C
:1006F0001B68104A1268126822F001021A600D4B42
:100700001B680C4A1268126842F001021A60094B19
:100710001B68084A1268126822F080021A600749B2
:10072000074801F09FFD01220021054801F0D4FD9A
:1007300000BF80BDE40000105CC00240DC0000107F
:100740000040034080B485B000AF786039607B68BA
:100750005B6823F00F03FB60FA683B681A437B6811
:100760005A6000BF1437BD465DF8047B704700BF78
:1007700080B483B000AF786039603B689AB27B6820
:100780009A6000BF0C37BD465DF8047B704700BF20
:1007900080B582B000AF1B4B1B4A1A60194B1B6817
:1007A000184A1268126822F002021A60154B1B6880
:1007B000144A1268126842F002021A60114B1B6858
:1007C000104A1268126822F080021A600D4B1B68F2
:1007D0000C4A1268126842F480321A600B4801F029
:1007E00083FF43F6FF710948FFF7C2FF01F064FF82
:1007F00078600C210548FFF7A5FF00BF0837BD460C
:1008000080BD00BFE800001068C0024000C0084082
:1008100080B582B000AF78607968034801F074FF5A
:1008200000BF0837BD4680BD00C0084080B582B01B
:1008300002AF0E4B1B78DBB219460D4802F0F4F8FC
:100840000346012B0ED10B4B1B689847074B1B78B7
:10085000D9B2094A80230193012300930923044854
:1008600002F02EFA00BFBD4680BD00BFEC020010B2
:100870000000082004000010EC00001080B483B0D9
:1008800000AF0346FB71FB7903F01F03012202FA5C
:1008900003F1064A97F907305B0942F8231000BFBD
:1008A0000C37BD465DF8047B704700BF00E100E0F7
:1008B00080B483B000AF03463960FB7197F907300D
:1008C000002B0BDA3B68DAB20C49FB7903F00F031B
:1008D000043BD200D2B20B441A7609E03B68DAB28C
:1008E000074997F90730D200D2B20B4483F80023AE
:1008F00000BF0C37BD465DF8047B704700ED00E09B
:1009000000E100E080B582B000AF78600F2001F018
:10091000F3FD00BF0837BD4680BD80B582B000AF93
:1009200078600F2001F0E8FD00BF0837BD4680BDAC
:1009300080B483B000AF7860084611461A4603467B
:10094000FB700B46BB7013467B707B78002B0ED080
:10095000FB785B017A6813449969BB7801229A405D
:10096000FB785B01786803440A439A610DE0FB78E9
:100970005B017A681344D969BB7801229A40FB78FD
:100980005B01786803440A43DA6100BF0C37BD4657
:100990005DF8047B704780B483B000AF78600B468D
:1009A000FB701346BB70FB785B017A6813445A698D
:1009B000BB7822FA03F303F00103002B14BF0123D9
:1009C0000023DBB218460C37BD465DF8047B704748
:1009D00080B483B000AF78600B46FB701346BB70E9
:1009E000FB785B017A6813441968BB7801229A404E
:1009F000FB785B01786803440A431A6000BF0C3738
:100A0000BD465DF8047B704780B483B000AF78606A
:100A10000B46FB701346BB70FB785B017A6813448E
:100A20001968BB78012202FA03F3DA43FB785B0111
:100A3000786803440A401A6000BF0C37BD465DF871
:100A4000047B704780B584B000AF78600B46FB70C4
:100A50001346BB70BA78FB7819467868FFF79BFF9E
:100A60000346002B14BF01230023DBB283F00103F4
:100A7000DBB2FB73FB7B03F00103FB73FB7BBA78F8
:100A8000F9787868FFF754FF00BF1037BD4680BD86
:100A900080B582B000AF78600F2001F02DFD00BF5F
:100AA0000837BD4680BD80B485B000AFF8600B4606
:100AB0007A60FB72FB7A002B03D1FB687A68DA60FC
:100AC00002E0FB687A68DA6200BF1437BD465DF861
:100AD000047B704780B500AF2648FFF71EFF26480D
:100AE000FFF710FF0020FFF7D3FF03212620FFF7B9
:100AF000DFFE2620FFF7C2FE122201211D48FFF76C
:100B000067FF0D2200211B48FFF762FF0D22012124
:100B10001848FFF75DFF132202211648FFF758FF20
:100B2000002205211348FFF753FF17220021114827
:100B3000FFF76AFF182200210E48FFF765FF012327
:100B4000122201210B48FFF7F3FE01230D220021A1
:100B50000848FFF7EDFE00230D2201210548FFF7AD
:100B6000E7FE0023132202210248FFF7E1FE00BF47
:100B700080BD00BF0080092000C0024080B500AFEA
:100B80004FF0807200210020FFF78DFF0D22002121
:100B90000248FFF757FF00BF80BD00BF008009205B
:100BA00080B483B000AF0346FB71094997F9073061
:100BB0005B09FA7902F01F02012000FA02F241F803
:100BC000232000BF0C37BD465DF8047B704700BF93
:100BD00000E100E080B483B000AF03463960FB71F0
:100BE00097F90730002B0BDA0D49FB7903F00F035F
:100BF000043B3A68D2B2D200D2B20B441A7609E072
:100C0000084997F907303A68D2B2D200D2B20B4401
:100C100083F8002300BF0C37BD465DF8047B7047A6
:100C200000ED00E000E100E080B500AF1C4B1D4A84
:100C30001A601B4B1B681A4A1268126822F00502E0
:100C40001A60174B1B68164A1268126842F00502B8
:100C50001A60134B144A1A60114B1B68104A126831
:100C6000126822F005021A600D4B1B680C4A1268CC
:100C7000126842F005021A60002002F069FA0B497E
:100C8000002002F07FFA0A49002002F0AFFA0221A8
:100C90000A20FFF79FFF0A20FFF782FF00BF80BDF9
:100CA000F002001088C202408CC20240A0860100FF
:100CB0000531000080B586B002AFBA607B600346A4
:100CC000FB730B46BB73BA7BF97B7B680093BB68F5
:100CD000002002F0FFFA00BF1037BD4680BD00BF04
:100CE00080B500AF002002F025FB00BF80BD00BF33
:100CF00080B483B000AF7860084611461A460346B8
:100D0000FB700B46BB7013467B707B78002B0FD0BB
:100D1000FB785B017A681344FA78520179680A44D7
:100D20009169BA78012000FA02F20A439A610EE052
:100D3000FB785B017A681344FA78520179680A44B7
:100D4000D169BA78012000FA02F20A43DA6100BFE1
:100D50000C37BD465DF8047B704700BF80B582B09C
:100D600000AF0346FB80FB88DBB29BB2184600F065
:100D7000F3FD00BF0837BD4680BD00BF80B582B01F
:100D800000AF0346FB800123002205210548FFF741
:100D9000AFFFFB881846FFF7E1FF00BF0837BD46ED
:100DA00080BD00BF0080092080B582B000AF03463F
:100DB000FB800023002205210548FFF799FFFB88EF
:100DC0001846FFF7CBFF00BF0837BD4680BD00BF08
:100DD0000080092080B582B000AF03460A46FB714F
:100DE0001346BB710023002205210B48FFF780FF4B
:100DF000FB799BB21846FFF7B1FF012300220521C2
:100E00000548FFF775FFBB799BB21846FFF7A6FFB1
:100E100000BF0837BD4680BD0080092080B584B082
:100E200000AF03460A46FB801346BB80FB881B0AC3
:100E30009BB2FB73FB88BB73FB7B9BB21846FFF72F
:100E4000B3FFBB7B9BB21846FFF7AEFFBB881B0A04
:100E50009BB2FB73BB88BB730123002205210848AA
:100E6000FFF746FFFB7B9BB21846FFF787FFBB7B74
:100E70009BB21846FFF782FF00BF1037BD4680BD0A
:100E80000080092080B483B000AF03460A46FB808F
:100E90001346BB80054AFB881380054ABB88138034
:100EA00000BF0C37BD465DF8047B7047F4020010AC
:100EB000F602001080B483B000AF03460A46FB8000
:100EC0001346BB80054AFB881380054ABB88138004
:100ED00000BF0C37BD465DF8047B7047FA02001076
:100EE000FC02001080B483B000AF0346FB71FB79B5
:100EF000082B08D8FB79002B01D0FB7900E00123F7
:100F0000044A137000E000BF0C37BD465DF8047B57
:100F1000704700BFF802001090B583B000AF0446E0
:100F2000084611461A462346FB800346BB800B4603
:100F30007B8013463B802A20FFF736FFFB881B0A85
:100F40009BB21846FFF71AFFFB881846FFF716FFFB
:100F50007B881B0A9BB21846FFF710FF7B88184658
:100F6000FFF70CFF2B20FFF71FFFBB881B0A9BB26C
:100F70001846FFF703FFBB881846FFF7FFFE3B88C4
:100F80001B0A9BB21846FFF7F9FE3B881846FFF78D
:100F9000F5FE00BF0C37BD4690BD00BF80B500AF69
:100FA0002D4B4FF4A0721A802C4BF0221A80002097
:100FB000FFF7FAFE0020FFF7E1FE0020FFF7DEFE5C
:100FC0000020FFF7DBFE00210120FFF703FF0021D7
:100FD0002820FFF7FFFE2321C020FFF7FBFE112191
:100FE000C120FFF7F7FEC520FFF7DEFE3D20FFF72B
:100FF000C5FE3020FFF7C2FEAA21C720FFF7EAFE98
:1010000028213620FFF7E6FE3A20FFF7CDFE5520D7
:10101000FFF7B4FE0020FFF7B1FE1B21B120FFF760
:10102000FDFE0721B720FFF7D5FE00211120FFF7B5
:10103000D1FE00212920FFF7CDFE074B1B88013B85
:101040009AB2064B1B88013B9BB200210020FFF7A0
:1010500063FF00BF80BD00BFFE0200100003001050
:1010600080B586B000AF0346FB804FF496333B61FA
:10107000FB881B0A9BB2FB73FB88BB733B699B0914
:10108000FB82EF2340F23F1200210020FFF744FFD4
:101090002C20FFF789FE0123002205212F48FFF7AE
:1010A00027FEFB7B9BB21846FFF758FEBB7B9BB22B
:1010B0001846FFF753FE3B69013B3B612FE01023CD
:1010C0007B75FB7B9BB21846FFF748FEBB7B9BB250
:1010D0001846FFF743FEFB7B9BB21846FFF73EFE28
:1010E000BB7B9BB21846FFF739FEFB7B9BB21846D1
:1010F000FFF734FEBB7B9BB21846FFF72FFEFB7B4E
:101100009BB21846FFF72AFEBB7B9BB21846FFF73F
:1011100025FE7B7D013B7B757B7D002BD1D1FB8A3E
:101120005A1EFA82002BCAD13B69DBB203F03F039F
:101130007B7509E0FB7B9BB21846FFF70FFEBB7B7C
:101140009BB21846FFF70AFE7B7D5A1E7A75002B6C
:10115000F0D100BF1837BD4680BD00BF0080092018
:1011600080B582B000AF0346FB800B46BB801346C0
:101170007B80FB8801339AB2BB8801339BB2B9886C
:10118000F888FFF7C9FE0023002205210C48FFF76D
:10119000AFFD2C20FFF7E2FD0123002205210848C6
:1011A000FFF7A6FD7B881B0A9BB21846FFF7D6FD0A
:1011B0007B881846FFF7D2FD00BF0837BD4680BDCB
:1011C0000080092090B583B000AF04460846114660
:1011D0001A462346FB800346BB800B467B801346A2
:1011E0003B80FB88B3F5A07F4ED2BB88EF2B4BD85A
:1011F000FA887B881344013BB3F5A07F03DBFB88AF
:10120000C3F5A0737B80BA883B881344013BEF2B66
:1012100003DDBB88C3F1F0033B80FA887B8813446D
:101220009BB2013B9CB2BA883B8813449BB2013B02
:101230009BB2B988F8882246FFF76EFE2C20FFF794
:10124000B3FD0123002205211148FFF751FD3B8822
:10125000BB8015E07B88FB800CE03B8B1B0A9BB2BC
:101260001846FFF77BFD3B8B1846FFF777FDFB88A1
:10127000013BFB80FB88002BEFD1BB88013BBB808F
:10128000BB88002BE6D100E000BF0C37BD4690BD07
:101290000080092090B587B002AF04460846114689
:1012A0001A462346FB800346BB800B46FB70134661
:1012B0003B80FB88B3F5A07F80F0B380BB88EF2B29
:1012C00000F2AF80F98897F8242013465B0013449E
:1012D0005B000B44013B002BC0F2A380BA8897F857
:1012E0002430DB001344013B002BC0F29A80002322
:1012F000FB7391E0FB7B052B02D10023BB730AE05B
:10130000FA7813469B0013441A46FB7B1344474A62
:1013100013441B78BB7300237B7377E0BB7B03F024
:101320000103002B34D097F82430012B0ED1FB7B26
:101330009AB2FB88134498B27B7B9AB2BB88134461
:101340009BB23A881946FFF70BFF59E0FB7B9AB234
:1013500097F824309BB212FB03F39AB2FB88134434
:1013600098B27B7B9AB297F824309BB212FB03F3BE
:101370009AB2BB88134499B297F824309AB297F87E
:1013800024309CB23B8800932346FFF71BFF37E0D5
:101390003A8C3B889A4233D097F82430012B0ED1F7
:1013A000FB7B9AB2FB88134498B27B7B9AB2BB88D2
:1013B00013449BB23A8C1946FFF7D2FE20E0FB7B28
:1013C0009AB297F824309BB212FB03F39AB2FB88CF
:1013D000134498B27B7B9AB297F824309BB212FBED
:1013E00003F39AB2BB88134499B297F824309AB2A7
:1013F00097F824309CB23B8C00932346FFF7E2FE23
:10140000BB7B5B08BB737B7B01337B737B7B072BD5
:1014100084D9FB7B0133FB73FB7B052B7FF66AAF23
:1014200000E000BF1437BD4690BD00BF284A000051
:10143000B0B584B002AF0346FB71FB790A2B0ED125
:101440001A4B1B789BB2DB009AB2194B1B881344D2
:101450009AB2174B1A80174B00221A8021E0FB79B1
:101460000D2B1ED0134B1888114B1988124B1D8859
:10147000124B1B880D4A1278FC79019200932B467F
:101480002246FFF707FF094B1B789BB21A46520012
:1014900013445B009AB2074B1B8813449AB2054B66
:1014A0001A8000BF0837BD46B0BD00BFF80200106B
:1014B000F6020010F4020010FA020010FC02001004
:1014C00080B584B000AF78600023FB6009E0FB6862
:1014D0007A6813441B781846FFF7AAFFFB680133AC
:1014E000FB60FB687A6813441B78002BEFD100BFC8
:1014F0001037BD4680BD00BF90B585B000AF294B09
:101500001B68184603F0F1F803460C46C7E902349D
:10151000244B1B6807EE903AF8EE677A9FED227A2B
:1015200067EE877A17EE900A03F0AAF903460C4695
:10153000C7E902341D4B1B685B0007EE903AF8EEDA
:10154000677A9FED1B7A67EE877A17EE900A03F0B1
:1015500097F9D7E9022302F0D1FD03460C4618465D
:10156000214602F0DBFA4FF000024FF0814302F017
:10157000C5FD03460C46184621464FF000024FF0C9
:10158000814302F0C3FF03460C461846214603F090
:1015900067F803467B607868FFF73AF900BF1437B5
:1015A000BD4690BD0803001017B7D13800000010E9
:1015B000DB0F494090B585B000AF2E4B1B68184635
:1015C00003F093F803460C46C7E90034294B1B6827
:1015D00007EE903AF8EE677A9FED277A67EE877A02
:1015E00017EE900A03F04CF903460C46C7E90034A5
:1015F000224B1B685B0007EE903AF8EE677A9FED8E
:10160000207A67EE877A17EE900A03F039F9D7E966
:10161000002302F073FD03460C461846214602F0F3
:101620007DFA4FF000024FF0814302F067FD034660
:101630000C46184621464FF000024FF0814302F05D
:1016400065FF03460C461846214603F009F8034699
:10165000FB60FB68B3F5007F03D940F2FF33FB600A
:1016600001E00023FB60F868FFF7D2F800BF1437F1
:10167000BD4690BD0803001017B7D1380000001018
:10168000DB0F4940FFFFFFFF90B585B000AF2E4B49
:101690001B68184603F029F803460C46C7E90234D4
:1016A000294B1B6807EE903AF8EE677A9FED277A90
:1016B00067EE877A17EE900A03F0E2F803460C46CD
:1016C000C7E90234224B1B68184603F00EF80346A4
:1016D0000C461A462346D7E9020102F043F914A347
:1016E000D3E9002302F00AFD03460C4618462146C2
:1016F00011A3D3E9002302F033FE03460C4618463B
:1017000021460FA3D3E9002302F0F8FC03460C4660
:101710001846214602F0A4FF03467B607868FFF775
:1017200077F800BF1437BD4690BD00BFAFF300800F
:1017300000000060FB21094000000060FB21693FC0
:1017400000000060305F74400803001017B7D13804
:1017500000000010FFFFFFFFB0B584B000AF3A4BB0
:101760001B68184602F0C1FF03460C46C7E9023465
:10177000354B1B6807EE903AF8EE677A9FED337AA7
:1017800067EE877A17EE900A03F07AF803460C4664
:10179000C7E9023428A3D3E90023D7E9020102F004
:1017A000ADFC03460C4625461C46294B1B681846D3
:1017B00002F09BFF02460B462046294602F09EFCA3
:1017C00003460C461846214602F0A8F903460C468B
:1017D0001846214602F0C2F84FF000024FF0814354
:1017E00002F08CFC03460C461846214602460B4686
:1017F00002F08CFE03460C461846214610A3D3E99E
:10180000002302F005FD03460C46184621464FF022
:1018100000024FF0814302F079FE03460C46184661
:10182000214602F01DFF03467B607868FEF7F0FF5B
:1018300000BF1037BD46B0BD00000060FB2119405D
:1018400000000060FB2109400803001017B7D138E1
:101850000000001080B483B000AF78607B685B68E4
:1018600043F002027B685A6000BF0C37BD465DF84A
:10187000047B704780B483B000AF78600B467B80F8
:101880007A887B689A6000BF0C37BD465DF8047BA0
:10189000704700BF80B500AF294B2A4A1A60284B19
:1018A0001B68274A1268126822F002021A60244B51
:1018B0001B68234A1268126842F002021A60204B29
:1018C000214A1A601E4B1B681D4A1268126822F0DA
:1018D00002021A601A4B1B68194A1268126842F019
:1018E00002021A60164B194A1A60154B1B68144AFB
:1018F0001268126822F002021A60114B1B68104A2B
:101900001268126842F002021A600D4B104A1A6007
:101910000B4B1B680A4A1268126822F002021A6016
:10192000074B1B68064A1268126842F002021A60EE
:10193000084801F0CFFD0748FFF78CFF00BF80BDCE
:101940000403001018C002401CC0024020C0024026
:1019500024C002400000034080B582B000AF0346BF
:10196000FB800A4B0A4A1A6000BF084B1B681B68C1
:1019700003F00203002BF8D0FB8819460548FFF757
:1019800079FF00BF0837BD4680BD00BF04030010CB
:101990000C0003400000034080B400AF0B4B0C4A26
:1019A0001A600A4B1B6807221A60084B094A1A6022
:1019B000064B1B68084A12680849A1FB0212920CE8
:1019C0001A6000BFBD465DF8047B70470C03001031
:1019D00010E000E014E000E02003001083DE1B4371
:1019E00080B400AF074B1B680133064A1360064BF7
:1019F0001B681B68054A136000BFBD465DF8047B89
:101A0000704700BF080300100C0300101003001003
:101A100080B485B000AF78600A4B1B68BB600023C0
:101A2000FB6004E0074B1A68BB68D31AFB60FA68D6
:101A30007B689A42F6D300BF1437BD465DF8047B3D
:101A4000704700BF0803001080B584B000AF786015
:101A50000023FB6006E04FF47A70FFF7D9FFFB68C4
:101A60000133FB60FA687B689A42F4D300BF1037F9
:101A7000BD4680BD80B582B000AF064B7B60064A94
:101A80007B681A6000F074FE01F0F0FD00BF0837BB
:101A9000BD4680BD08ED00E00000000080B483B0CA
:101AA00000AF0346FB71FB7903F01F03012202FA2A
:101AB00003F1064A97F907305B0942F8231000BF8B
:101AC0000C37BD465DF8047B704700BF00E100E0C5
:101AD00080B483B000AF0346FB71FB7903F01F03B2
:101AE000012202FA03F1064A97F907305B09203315
:101AF00042F8231000BF0C37BD465DF8047B7047E9
:101B000000E100E080B483B000AF03463960FB71B0
:101B100097F90730002B0BDA3B68DAB20C49FB79F6
:101B200003F00F03043BD200D2B20B441A7609E053
:101B30003B68DAB2074997F90730D200D2B20B44BA
:101B400083F8002300BF0C37BD465DF8047B704767
:101B500000ED00E000E100E080B483B000AF786009
:101B60000B46FB707B681B68FA7802F00F020121BC
:101B700001FA02F21340002B14BF01230023DBB251
:101B800018460C37BD465DF8047B704780B483B0BF
:101B900000AF78600B46FB7097F90330012202FA20
:101BA00003F31A467B681A6000BF0C37BD465DF828
:101BB000047B704780B483B000AF78607B685B685B
:101BC00043F001027B685A6000BF0C37BD465DF8E8
:101BD000047B704780B485B000AFF8600B467A6034
:101BE000FB7297F90B20FB680632796843F82210E4
:101BF00000BF1437BD465DF8047B704780B483B0E6
:101C000000AF78600B46FB707B68596997F9032039
:101C100013465B001344012202FA03F341EA030274
:101C20007B685A6100BF0C37BD465DF8047B704786
:101C300080B483B000AF78600B46FB707B68596955
:101C400097F9032013465B0013440133012202FA83
:101C500003F341EA03027B685A6100BF0C37BD46BB
:101C60005DF8047B704780B483B000AF78600B46AA
:101C7000FB707B68596997F9032013465B00134496
:101C80000233012202FA03F341EA03027B685A613C
:101C900000BF0C37BD465DF8047B704780B483B04D
:101CA00000AF78600B46FB707B68596997F9032099
:101CB00013465B0013440233012202FA03F3DB43B1
:101CC00001EA03027B685A6100BF0C37BD465DF82C
:101CD000047B704780B582B000AF4FF0402001F028
:101CE000F3FC00F0DDFC78604FF0402001F0FCFCDC
:101CF0007B68214AA2FB0323DB081A4601214FF02F
:101D00004020FFF767FF01214FF04020FFF776FFEB
:101D100001214FF04020FFF7A6FF01214FF04020A6
:101D2000FFF786FF154801F0CFFC144801F0DCFCFA
:101D30007B68134AA2FB03235B0B1A4601210F4861
:101D4000FFF748FF01210D48FFF758FF01210B481D
:101D5000FFF7A4FF01210948FFF76AFF0220FFF700
:101D6000B7FE09210220FFF7CDFE0220FFF796FE05
:101D700000BF0837BD4680BDCDCCCCCC0080004034
:101D80005917B7D180B500AF4FF04020FFF712FFD1
:101D900000BF80BD80B500AF01214FF04020FFF7AC
:101DA000DBFE0346002B06D001214FF04020FFF759
:101DB000EDFE012300E00023184680BD80B500AF92
:101DC0000248FFF7F7FE00BF80BD00BF0080004063
:101DD00080B500AF01210748FFF7BEFE0346002B88
:101DE00005D001210348FFF7D1FE012300E00023C5
:101DF000184680BD0080004080B500AFFFF7E8FFC7
:101E00000346002B02D0024B1B68984700BF80BDE1
:101E10000400001080B483B000AF0346FB71094991
:101E200097F907305B09FA7902F01F02012000FAE6
:101E300002F241F8232000BF0C37BD465DF8047B59
:101E4000704700BF00E100E080B483B000AF0346FC
:101E50003960FB7197F90730002B0BDA0D49FB79DC
:101E600003F00F03043B3A68D2B2D200D2B20B4463
:101E70001A7609E0084997F907303A68D2B2D200D9
:101E8000D2B20B4483F8002300BF0C37BD465DF887
:101E9000047B704700ED00E000E100E080B483B017
:101EA00000AF78600B46FB70FA787B681A6000BF61
:101EB0000C37BD465DF8047B704700BF80B483B02B
:101EC00000AF78607B681B68DBB218460C37BD46F4
:101ED0005DF8047B704700BF80B483B000AF7860CA
:101EE00039607B685A683B681A437B685A6000BF58
:101EF0000C37BD465DF8047B704700BF80B483B0EB
:101F000000AF78607B689B6818460C37BD465DF86B
:101F1000047B704780B483B000AF786039607B6821
:101F20003A689A6000BF0C37BD465DF8047B704785
:101F300080B483B000AF786039607B683A68DA605B
:101F400000BF0C37BD465DF8047B704780B500AF1D
:101F5000354B364A1A60344B1B68334A1268126894
:101F600022F002021A60304B1B682F4A1268126876
:101F700042F002021A602C4B2D4A1A602A4B1B6851
:101F8000294A1268126822F002021A60264B1B6866
:101F9000254A1268126842F002021A60224B254A52
:101FA0001A60214B1B68204A1268126822F0010255
:101FB0001A601D4B1B681C4A1268126842F001022D
:101FC0001A60194B1C4A1A60174B1B68164A126894
:101FD000126822F001021A60134B1B68124A126841
:101FE000126842F001021A60144801F01DFC4FF41F
:101FF000E131124801F084FC03211048FFF798FFFB
:1020000081210E48FFF786FF0C4801F049FC0521AD
:102010000A48FFF761FF01210820FFF715FF08209C
:10202000FFF7F8FE00BF80BD1403001000C002409F
:1020300004C0024008C002400CC0024000C0094079
:1020400080B582B000AF0346FB710A4B0A4A1A60A2
:1020500000BF084B1B681B6803F02003002BF8D05F
:10206000FB7919460548FFF719FF00BF0837BD4641
:1020700080BD00BF1403001014C0094000C0094017
:1020800080B584B000AF78600023FB6009E0FB6896
:102090007A6813441B781846FFF7D2FFFB680133B8
:1020A000FB60FB687A6813441B78002BEFD100BFFC
:1020B0001037BD4680BD00BF80B582B000AF454837
:1020C000FFF71CFF034603F00403002B7ED04148BA
:1020D000FFF7F4FE0346FB713F4B1B68072B70D8DC
:1020E00001A252F823F000BF092100002F210000B7
:1020F000C3210000552100007B2100009321000036
:10210000AB210000CB210000FB794F2B02D0722BBA
:1021100004D007E0304B01221A6007E02E4B032267
:102120001A6003E02C4B00221A604FE04EE0FB796E
:102130004B2B02D04F2B04D007E0274B02221A6012
:1021400007E0254B01221A6003E0234B00221A60AE
:102150003CE03BE0FB79652B02D0722B04D007E01A
:102160001D4B04221A6007E01B4B03221A6003E098
:10217000194B00221A6029E028E0FB79612B04D179
:10218000154B05221A6000BF20E0134B00221A6095
:102190001CE0FB79642B04D10F4B06221A6000BFB0
:1021A00014E00D4B00221A6010E0FB79792B04D16A
:1021B000094B07221A6000BF08E0074B00221A6093
:1021C00004E0054B00221A6000E000BF00BF0837A2
:1021D000BD4680BD00C009401803001080B500AFA7
:1021E0000848FFF78BFE034603F00403002B06D0DC
:1021F0000448FFF763FE03461846FFF719F900BFCE
:1022000080BD00BF00C0004080B400AF1F2318464F
:10221000BD465DF8047B704780B588B000AFF860BC
:102220007A601A460B46FB721346BB7200F044FA02
:10223000F861FFF7E9FF03461A467B6803FB02F3E8
:10224000BB61FB695A00BB691A44BB695B00B2FB06
:10225000F3F3DBB2013BFB75FB7D18462037BD462F
:1022600080BD00BF80B586B000AF786039600023C4
:102270007B610C2000F040F97B684FF470625A6378
:102280007B680022DA607B6943F400137B613B6862
:10229000104A1A603B6800221A7100233B613B68B8
:1022A00000225A713B681A683B69DBB200217868EA
:1022B000FFF7B2FF0346FB73FB7B1B021A467B69E9
:1022C00013437B617B687A691A6000BF1837BD468B
:1022D00080BD00BF801A060080B483B000AF786074
:1022E0000B46FB701346BB70BB78012B09D17B6892
:1022F0001A68FB78012101FA03F31A437B681A601C
:102300000FE07B681B6823F0E0627B681A607B68E3
:102310001A68FB78012101FA03F3DB431A407B685A
:102320001A6000BF0C37BD465DF8047B704700BFE4
:1023300080B500AF00F0B4F90246024B1A6000BF4E
:1023400080BD00BF2003001080B400AF074BD3F85E
:10235000883003F48073002B14BF01230023DBB209
:102360001846BD465DF8047B704700BF00C00F40B3
:1023700080B483B000AF0346FB710A4AFB795B016E
:1023800013448C33AA221A60064AFB795B0113447A
:102390008C3355221A6000BF0C37BD465DF8047BB4
:1023A000704700BF00C00F4080B400AF054BD3F8AA
:1023B0000C31DBB203F00303DBB21846BD465DF817
:1023C000047B704700C00F4080B400AF044BD3F8CB
:1023D000A83103F01F031846BD465DF8047B704723
:1023E00000C00F4080B400AF034B1B681846BD46C9
:1023F0005DF8047B704700BF244F000080B400AF3D
:10240000024B1846BD465DF8047B7047001BB700C1
:1024100080B500AF00F0FAF80346184680BD00BF53
:1024200080B584B000AF03463960FB710C4AFB797C
:1024300004335B0113441B68FB60FA683B68134379
:10244000FB60074AFB7904335B011344FA681A60A6
:10245000FB791846FFF78CFF00BF1037BD4680BDE3
:1024600000C00F4080B584B000AF03463960FB71F7
:102470000D4AFB7904335B0113441B68FB603B6826
:10248000DB43FA681340FB60074AFB7904335B01C6
:102490001344FA681A60FB791846FFF769FF00BF1A
:1024A0001037BD4680BD00BF00C00F4080B586B06C
:1024B00000AF0346B9607A60FB737B685A01BB6862
:1024C00013437B610B4AFB7B04335B0113440433EE
:1024D0007A691A60074AFB7B04335B0113440122CB
:1024E0001A60FB7B1846FFF743FF00BF1837BD4655
:1024F00080BD00BF00C00F4080B485B000AF034670
:10250000FB71FB79FB60FB681F2B0CD90E490E4B4E
:10251000D3F8C830FA68203A012000FA02F21343D7
:10252000C1F8C8300AE00849074BD3F8C43001208D
:10253000FA6800FA02F21343C1F8C43000BF14373E
:10254000BD465DF8047B704700C00F4080B483B087
:1025500000AF0346FB71FB79012B08D10B4A0B4BF3
:10256000D3F8043143F48073C2F8043107E0074A1A
:10257000064BD3F8043123F48073C2F8043100BF52
:102580000C37BD465DF8047B704700BF00C00F40AC
:1025900080B483B000AF094BD3F8043103F48073E7
:1025A000002B02D00123FB7101E00023FB71FB79BA
:1025B00018460C37BD465DF8047B704700C00F40DD
:1025C00080B485B000AF7860084BD3F8043103F4D1
:1025D0008073FB600549FA687B681343C1F80431D6
:1025E00000BF1437BD465DF8047B704700C00F4044
:1025F00080B400AF044BD3F8043103F01F03184636
:10260000BD465DF8047B704700C00F4080B500AF49
:10261000FFF7CAFE0346002B02D0012B04D007E0CF
:10262000FFF7ECFE034604E0FFF7DCFE034600E0A4
:102630000023184680BD00BF80B582B000AF0023E4
:102640007B60FFF781FE0346002B0DD0094BD3F8CA
:10265000843003F01F0301333B60FFF7D9FE0246CD
:102660003B6803FB02F37B607B6818460837BD4676
:1026700080BD00BF00C00F4080B500AFFFF788FFEE
:102680000346002B05D0012B07D1FFF7D5FF0346EA
:1026900004E0FFF7BBFF034600E00023184680BDBF
:1026A00098B500AFFFF7E8FF0446FFF7A1FF034628
:1026B000B4FBF3F3184698BD80B582B000AF002399
:1026C0007B60FFF781FE38603B68002B06D0FFF788
:1026D000D3FF02463B68B2FBF3F37B607B6818468E
:1026E0000837BD4680BD00BF80B582B000AF7860BE
:1026F000212000F00FFF0021786800F01FF800BFD4
:102700000837BD4680BD00BF80B485B000AF78609B
:1027100039607B681B6803F48033FB603B689B0176
:102720009BB2FA681343FB607B68FA681A6000BFCB
:102730001437BD465DF8047B704700BF80B483B09A
:1027400000AF786039607B681B6823F480327B6857
:102750001A603B68012B05D17B681B6843F480320B
:102760007B681A6000BF0C37BD465DF8047B70477C
:1027700080B489B000AF164BFB61164BBB61164BA2
:102780007B610023FB74BB691B68BB607B691B68B2
:102790007B60BB68114A934205D17B68104A934223
:1027A00001D1012300E00023FB74FB7C002B09D046
:1027B000FB691B68FB60FB6843F47003FB60FA680D
:1027C000FB691A6000BF2437BD465DF8047B704783
:1027D00088ED00E040EF00E044EF00E02100111040
:1027E0001100001180B483B000AF78607B680F2BBC
:1027F00010D91249114BD3F8C4317A68103A01202C
:1028000000FA02F21343C1F8C4317B68DBB2103B1B
:10281000DBB20DE00949094BD3F8C43101207A68D5
:1028200000FA02F2D2431340C1F8C4317B68DBB234
:1028300018460C37BD465DF8047B704700C00F405A
:1028400080B487B000AFF860B9607A603B60002365
:102850007B61FB685B69072B7CD801A252F823F0EF
:1028600081280000AD280000E52800001D29000097
:102870001D290000AD280000E52800001D290000EA
:10288000FB685B68C3F30B02FB689B689B0403F463
:10289000E0131A43FB689B685B0503F46003134372
:1028A00043F00C4343F410337B6155E0FB685B68F5
:1028B000C3F30B027B681B0303F4E0431A437B68FA
:1028C000DB0303F460331A433B6A9B0403F4E01315
:1028D0001A433B6A5B0503F46003134343F004436C
:1028E0007B6139E0FB685B68C3F30B02BB681B03C9
:1028F00003F4E0431A43BB68DB0303F460331A4379
:102900003B689B0403F4E0131A433B685B0503F444
:102910006003134343F008437B611DE0FB685B6881
:10292000C3F30B02BB681B0303F4E0431A437B6849
:10293000DB0303F460331A433B689B0403F4E013A6
:102940001A433B6A5B0503F46003134343F00043FF
:102950007B6101E0002300E07B6918461C37BD461F
:102960005DF8047B704700BF80B487B000AFF860AB
:10297000B9607A603B60FB68DA69BB681B6801215B
:1029800001FA03F31340DBB2002B01D0002344E033
:10299000BB681B6808335B01FA6813447B61BB6842
:1029A0001B68012202FA03F3DAB2FB689A60BB6883
:1029B0001B68012202FA03F3DAB2FB681A617B6931
:1029C0003A689A60FB6801221A6300BFFB681B6BC0
:1029D00003F00103002BF9D0BB68DA687B691A6049
:1029E000BB681A697B695A60BB685B69DB0203F4E8
:1029F000605297F820305B0003F03E031A4397F8CB
:102A000024309B0103F4F863134343F440427B6991
:102A10001A617B697A68DA60012318461C37BD4663
:102A20005DF8047B704700BF80B582B000AF78606E
:102A30000B46FB70FB781A460021786800F09CF882
:102A40000346002B21D0FB781A460121786800F05C
:102A500093F80346002B07D0FB781A4600217868CC
:102A600000F0EAF8012311E0FB781A4602217868A9
:102A700000F082F80346002B07D0FB781A460121AC
:102A8000786800F0D9F8002300E0002318460837E2
:102A9000BD4680BD80B487B000AFF860B9603B60D0
:102AA0001346FB714FF0FF337B61FA79BB681A6004
:102AB00097F82820BB685A61BB687A6A5A6097F811
:102AC0002830072B4DD801A252F823F0ED2A000040
:102AD0000D2B0000272B0000412B0000412B000094
:102AE0000D2B0000272B0000412B0000BB683A682B
:102AF000DA60BB683A6A1A6103237B61BB68022211
:102B00009A607B6A9A08BB685A602BE0BB683A6897
:102B1000DA6001237B61174A3B6A52F823301A4678
:102B2000BB681A611EE0134A3B6852F823301A460C
:102B3000BB68DA60BB683A6A1A6102237B6111E004
:102B40000C4A3B6852F823301A46BB68DA60094ADF
:102B50003B6A52F823301A46BB681A6100237B6136
:102B600000E000BF7B6918461C37BD465DF8047B5A
:102B7000704700BF0800001080B483B000AF7860D9
:102B80000B46FB701346BB70FB78042B43D801A2A5
:102B900052F823F0A92B0000BF2B0000D52B00001A
:102BA000EB2B0000012C00007B681B68DAB2BB78BD
:102BB000012101FA03F3DBB21340DBB235E07B689D
:102BC0005B68DAB2BB78012101FA03F3DBB2134090
:102BD000DBB22AE07B68DB68DAB2BB78012101FA5C
:102BE00003F3DBB21340DBB21FE07B685B69DAB250
:102BF000BB78012101FA03F3DBB21340DBB214E02E
:102C00007B689B69DAB2BB78012101FA03F3DBB27E
:102C10001340DBB209E07B68DB69DAB2BB780121E3
:102C200001FA03F3DBB21340DBB218460C37BD46A2
:102C30005DF8047B704700BF80B483B000AF78605C
:102C40000B46FB701346BB70FB78002B07D1BB789B
:102C5000012202FA03F3DAB27B689A6006E0BB78DD
:102C6000012202FA03F3DAB27B681A6100BF0C3763
:102C7000BD465DF8047B704780B485B000AF7860D6
:102C80000B46FB701346BB70FB7808335B017A6818
:102C90001344FB60BB78012B06D1FB681B6943F032
:102CA0000102FB681A6105E0FB681B6923F0010261
:102CB000FB681A6100BF1437BD465DF8047B70479E
:102CC000B0B592B004AFF8607A603B600B46FB721F
:102CD000002387F83730002387F83630FA7A07F177
:102CE000140197F848300293FB6C01933B68009302
:102CF0007B68F868FFF7CEFE38633B6B002B01DA88
:102D000000234FE03B6B03F00103002B02D00023B4
:102D10007B6005E07868FFF765FD034687F837308C
:102D20003B6B03F00203002B02D000233B6005E065
:102D30003868FFF757FD034687F836301B4A7B6833
:102D400013441B781946194A3B6813441B781C46E8
:102D5000174A7B6813441B781D46154A3B68134489
:102D60001B7807F1140000932B462246FFF768FDFD
:102D7000F86207F1140197F83630019397F837306D
:102D800000930023FA6AF868FFF7EEFD0346002B74
:102D900001D1002306E0FB7A01221946F868FFF70B
:102DA0006BFF012318463837BD46B0BD284F0000E1
:102DB000484F000080B582B000AF0346FB71FA793E
:102DC00007491346DB009B1A9B000B4404331B7816
:102DD0001846FFF791FB00BF0837BD4680BD00BF16
:102DE0008800001080B582B000AF0346FB71FFF78A
:102DF00063FC034618460837BD4680BD80B483B0E7
:102E000000AF78607B683C229A617B6860221A6020
:102E100000BF0C37BD465DF8047B704780B483B0BB
:102E200000AF78607B6838229A617B6844221A6020
:102E300000BF0C37BD465DF8047B704780B483B09B
:102E400000AF78607B681B6803F01003002B0CBF99
:102E500001230023DBB218460C37BD465DF8047B26
:102E6000704700BF80B483B000AF78607B685B6858
:102E700003F0F80318460C37BD465DF8047B704735
:102E800080B584B000AF786039603C23FB6078681F
:102E9000FFF7E8FF0346582B00F2158101A252F814
:102EA00023F000BFB5300000C7300000C73000007D
:102EB000C7300000C7300000C7300000C730000036
:102EC000C730000009300000C7300000C7300000E4
:102ED000C7300000C7300000C7300000C730000016
:102EE000C730000009300000C7300000C7300000C4
:102EF000C7300000C7300000C7300000C7300000F6
:102F0000C730000027300000C7300000C730000085
:102F1000C7300000C7300000C7300000C7300000D5
:102F2000C73000009D300000C7300000C7300000EF
:102F3000C7300000C7300000C7300000C7300000B5
:102F4000C730000027300000C7300000C730000045
:102F5000C7300000C7300000C7300000C730000095
:102F6000C73000009D300000C7300000C7300000AF
:102F7000C7300000C7300000C7300000C730000075
:102F8000C7300000AD300000C7300000C73000007F
:102F9000C7300000C7300000C7300000C730000055
:102FA000C73000008B300000C7300000C730000081
:102FB000C7300000C7300000C7300000C730000035
:102FC000C73000009D300000C7300000C73000004F
:102FD000C7300000C7300000C7300000C730000015
:102FE000C73000006F300000C7300000C73000005D
:102FF000C7300000C7300000C7300000C7300000F5
:10300000C7300000673000003B681B785B003A68FF
:103010009268002A0CBF01220022D2B213431A4642
:103020007B689A604FE03B689B68002B0CD13B6843
:103030001B69002B02D06FF0200301E06FF010033A
:10304000FA681340FB603EE03B685B68591C3A68D5
:1030500051601B781A467B689A603B689B685A1ED1
:103060003B689A602FE0FB6823F01003FB603B682D
:10307000DB68591C3A68D1607A689268D2B21A70DB
:103080003B681B695A1E3B681A613B681B69012B30
:1030900018DDFB6823F00403FB6013E03B680122AA
:1030A0001A75FB6823F01003FB600CE03B680222FA
:1030B0001A7508E03B6803221A75FB6823F01003B9
:1030C000FB6000E000BFFB6883F03C027B681A6095
:1030D0007B68FA689A61FB6803F01003002B03D049
:1030E0003B681B7D022B08D13B681B7D042B02D162
:1030F0003B6800221A75002300E0012318461037B0
:10310000BD4680BD80B485B000AF03460A46FB7162
:103110001346BB71FA791346DB009B1A9B000B4ADE
:103120001344FB60BB79012B0AD1FB681B69143384
:10313000BB6000BFBB681B78DBB2042BFAD000E099
:1031400000BF1437BD465DF8047B7047880000104F
:1031500080B582B000AF0346FB71FB791846FFF7DC
:1031600029FEFA7906491346DB009B1A9B000B44A3
:103170001B686C229A6100BF0837BD4680BD00BF46
:103180008800001080B584B000AF03463960FB7141
:10319000FB791846FFF726FE02463B68B2FBF3F3C5
:1031A000FB60FA7910491346DB009B1A9B000B4425
:1031B0001B68FA6852081A61FA790B491346DB005A
:1031C0009B1A9B000B441968FA7907481346DB00E9
:1031D0009B1A9B0003441B681B69FA68D31A4B6156
:1031E00000BF1037BD4680BD8800001080B485B098
:1031F00000AF03463960FB71FA791346DB009B1A76
:103200009B000C4A1344FB60FB681B69002B02D136
:10321000FB683A689A60FB689A683B689A420CBF00
:1032200001230023DBB218461437BD465DF8047B4A
:10323000704700BF8800001080B584B000AF03461F
:103240003960FB71FA791346DB009B1A9B00204A18
:103250001344FB60FB689B68FA790321104698478A
:103260003B6804221A75FB683A681A61FB685B695F
:10327000002B04D1FB681B681846FFF7BFFDFB68F5
:103280009B68FA79012110469847FB6800221A6171
:1032900000BFFB681B681846FFF7D0FD0346002BF4
:1032A000F7D0FB689B6903F47F43002B04D0FB68D5
:1032B0001B681846FFF7B2FDFB689B68FA7904218A
:1032C000104698473B681B7D18461037BD4680BDA9
:1032D0008800001080B588B000AF3B600346FB71EA
:1032E0000B46BB7113467B7107F1080300221A607D
:1032F0005A609A60DA601A615A61BB793B727B1D31
:10330000FB6001233B613B687B61BB6ABB6100BF23
:1033100007F10802FB7911461846FFF78DFF0346B7
:10332000022BF5D0BB69BA6AD31A18462037BD46BE
:1033300080BD00BF80B582B000AF0346FB71FA7953
:1033400013491346DB009B1A9B000B441868FA795B
:103350000F491346DB009B1A9B000B4410331B687C
:103360001946FFF78DFD0346002B0CD1FA79084969
:103370001346DB009B1A9B000B4408331B68FA7949
:1033800002211046984700BF0837BD4680BD00BFE8
:103390008800001080B485B000AFF860B9607A6032
:1033A0003B60FB681B6823F0FF02BB681A437B6825
:1033B0001A433B681A43FB681A6000BF1437BD46C6
:1033C0005DF8047B704700BF80B483B000AF7860C5
:1033D00039607B685B6823F004023B681A437B68B2
:1033E0005A6000BF0C37BD465DF8047B704700BFD4
:1033F00080B485B000AF78607B680B4A934202D1FD
:103400000A23FB7308E07B68084A934202D1142325
:10341000FB7301E01523FB73FB7B18461437BD4695
:103420005DF8047B704700BF0000034000C00A4005
:1034300080B487B000AFF860B9607A60FB681B6841
:1034400023F47F437B61BB681B029AB27B691A43FA
:10345000FB681A60FB687A681A6100BF1C37BD46BA
:103460005DF8047B704700BF80B586B000AF786020
:103470003960FFF721F9B86000237B614FF0FF331B
:103480003B610223FB6017E07B690133FA6802FBB2
:1034900003F3BA68B2FBF3F33B613A693B689A42C3
:1034A0000AD97B6901337B617B69FF2B04D9002337
:1034B0007B61FB680233FB603A693B689A42E3D860
:1034C000FA6879697868FFF7B3FF00BF1837BD461F
:1034D00080BD00BF80B582B000AF78607868FFF72C
:1034E00087FF03461846FFF707F800217868FFF7C3
:1034F0006BFF0023002207217868FFF74BFF044988
:103500007868FFF7B1FF00BF0837BD4680BD00BF38
:103510000024F40080B485B000AF0346FB71FB7952
:10352000FB60FB6803F01F03BB60FB685B09FB608B
:10353000114A0121BB6801FA03F31946FB68723393
:103540009B00134459600C490B4AFB6872339B0083
:1035500013445B680120BA6800FA02F2D2431A40B1
:10356000FB6872339B000B445A6000BF1437BD46A2
:103570005DF8047B704700BF00C00F4080B400AF0F
:10358000074BD3F8883003F48073002B14BF01235A
:103590000023DBB21846BD465DF8047B704700BFD0
:1035A00000C00F4080B400AF074BD3F8883003F45D
:1035B0008063002B14BF01230023DBB21846BD46F5
:1035C0005DF8047B704700BF00C00F4080B483B03B
:1035D00000AF0346FB71054AFB79C2F80C3100BF0E
:1035E0000C37BD465DF8047B704700BF00C00F403C
:1035F00080B483B000AF7860044A7B68C2F8A83119
:1036000000BF0C37BD465DF8047B704700C00F401B
:1036100080B500AF0020FEF799FFFFF7AFFF03462C
:10362000002B03D001210020FEF71CFF0020FFF734
:10363000CDFF002209210020FEF738FF01210020E4
:10364000FEF7EEFE0120FEF7BBFF00BFFFF7AAFF6B
:10365000034683F00103DBB2002BF7D10120FEF714
:1036600075FF0220FFF7C4FF00BF80BD80B500AF2B
:10367000FFF7CEFF00BF80BD80B485B000AF78609B
:103680007B680E4A934202D10223FB730FE07B68F2
:103690000B4A934202D11623FB7308E07B68094A68
:1036A000934202D11723FB7301E00123FB73FB7BE1
:1036B00018461437BD465DF8047B70470080004013
:1036C000000009400040094080B582B000AF78603A
:1036D0007868FFF7D1FF03461846FEF70DFF00BFDD
:1036E0000837BD4680BD00BF80B485B000AF7860AC
:1036F0007B685B68FB607B6800225A607B68012204
:103700009A607B6802225A6000BF7B689B68002B2E
:10371000FBD17B68FA685A6000BF1437BD465DF87C
:10372000047B704780B483B000AF786039607B68F9
:103730003A689A6000BF0C37BD465DF8047B70475D
:1037400080B483B000AF786039607B683A68DA6033
:1037500000BF0C37BD465DF8047B704780B483B072
:1037600000AF78607B68DB6843F080027B68DA60DA
:1037700000BF0C37BD465DF8047B704780B483B052
:1037800000AF78607B68DB6823F080027B68DA60DA
:1037900000BF0C37BD465DF8047B704780B483B032
:1037A00000AF78600B46FB701346BB70FA787B68FD
:1037B0001A60BA787B685A6000BF0C37BD465DF866
:1037C000047B704780B485B000AF78607B68124A94
:1037D000934202D10423FB7316E07B680F4A9342A5
:1037E00002D11823FB730FE07B680D4A934202D18C
:1037F0001923FB7308E07B680A4A934202D108232D
:10380000FB7301E00323FB73FB7B18461437BD46B3
:103810005DF8047B704700BF000001400080094054
:1038200000C0094000400A4080B584B000AF786015
:103830007868FFF7C7FF03461846FEF75DFE0721CD
:103840007868FFF76FFF786800F042F87B68002225
:103850005A607B680022DA607B6800221A627B680B
:103860000022DA647B6800225A657B6800221A65B0
:103870007B680A4A934205D17B6800221A617B6803
:103880009B69FB6003217868FFF75AFF7B68102271
:103890009A6200BF1037BD4680BD00BF00000140E6
:1038A00080B483B000AF78607B68084A934203D14C
:1038B0007B680122DA6502E07B6880221A6300BF20
:1038C0000C37BD465DF8047B704700BF00400A40DE
:1038D00080B483B000AF78607B68084A934203D11C
:1038E0007B680022DA6502E07B6800221A6300BF71
:1038F0000C37BD465DF8047B704700BF00400A40AE
:1039000080B586B000AF78603960FEF7D5FE78618B
:103910003B681B017A69B2FBF3F33B613B691B0A0D
:10392000FB60FB681B023A69D31ABB607868FFF73B
:1039300015FFBB68DBB2FA68D2B219467868FFF7A8
:103940002DFF7868FFF71AFF7A693B69B2FBF3F342
:1039500018461837BD4680BDFCF75CBD002200F05C
:10396000FBB8FFFF2DE9F74F16461F4680468946F4
:10397000002200233046394600F0BBFE48B1444BDC
:10398000444D21221A6000242046294603B0BDE898
:10399000F08F002200234046494600F0AAFE00288E
:1039A00073D1002200233046394600F0B9FE10B131
:1039B00007F100431F463B4632464046494600F069
:1039C00027FC6A4600F068F8DDE9002330463946F6
:1039D00000F094FB02460B464046494600F0C0FC0E
:1039E000002204460D4600234046494600F0C3FE2F
:1039F00028BB07F1004B22462B463046594600F0C3
:103A000010FFC8BB4FF000084FF0000942464B467C
:103A10002046294600F0AFFE0028B5D020462946B2
:103A200032463B4600F09CFC04460D46EEE720463D
:103A3000294632463B4600F093FC04460D4622469A
:103A40002B463046394600F0C1FE0028EFD14FF03A
:103A500000084FF0000942464B462046294600F038
:103A60005FFE002890D02046294632463B4600F0B3
:103A70004DFD04460D46EEE72046294632463B46BC
:103A800000F044FD04460D46B3E7002400257BE723
:103A90001C0300100000F0FF2DE9F0410026002774
:103AA00090463B46324604460D4600F022FE20B1C9
:103AB000C8E9006734463D4608E0C5F30A5CACF24D
:103AC000FF3100292B4605DAC8E900672046294660
:103AD000BDE8F081332902DDC8E90045EAE7132992
:103AE00010DDACF2134C4FF0FF3121FA0CFC24EA4C
:103AF0000C0220462946C8E9002300F031FC0446A8
:103B00000D46E3E7044E0E41C5F3130121EA060119
:103B100061F313030246ECE7FFFF0F0037B5002304
:103B2000002204460D4600F0FBFD68B14FF0FF3166
:103B30000020CDE90010224605F100431046194649
:103B400000F04AF903B030BD0123009301902246F2
:103B50002B46F3E7FFFFFFFF2DE9F74F9346804623
:103B6000894600F037FA9AA3D3E9002304460D46AC
:103B700000F0D6FD002840F0CD8000228E4B20467C
:103B8000294600F0F8FD002800F0BA8000228B4B97
:103B90002046294600F0EFFD48B1894B894D21228E
:103BA0001A6000242046294603B0BDE8F08F224663
:103BB0002B460020804900F0D3FB00227E4B00F012
:103BC000A5FC00227C4B00F099FA06460F4600F057
:103BD0000FFA00224FF0404300F090FACBF1010AB7
:103BE00004460D4660A3D3E900233046394600F071
:103BF00085FA5FA3D3E9002300F088FC32463B46F8
:103C000000F07CFA5CA3D3E9002300F0A9FB324664
:103C10003B4600F073FA5AA3D3E9002300F076FC88
:103C200032463B4600F06AFA57A3D3E9002300F07E
:103C300097FB32463B4600F061FA55A3D3E90023D7
:103C4000CDE900013046394600F08AFB32463B465A
:103C500000F054FA50A3D3E9002300F057FC324699
:103C60003B4600F04BFA4EA3D3E9002300F078FB6B
:103C700032463B4600F042FA4BA3D3E9002300F062
:103C800045FC32463B4600F039FA49A3D3E900230C
:103C900000F066FB02460B46DDE9000100F0B8FAD1
:103CA00022462B4600F02AFA02460B4620462946B9
:103CB00000F02CFC04460D464FEACA0ABBF1000F87
:103CC0002AD1414B9A44DAE9006722462B46304616
:103CD000394600F01BFC02460B463046394600F0E0
:103CE00015FC002204460D4600234046494600F0DC
:103CF00017FD00283FF456AF05F100431D4651E77C
:103D000022462B462046294600F0F8F9DA460646B8
:103D10000F4667E7DA46CFE70022002340464946D0
:103D200000F0FEFC90B1294B9A44DAE90067224684
:103D30002B463046394600F0E9FB02460B4630463A
:103D4000394600F0E3FB04460D462BE71E4B9A4430
:103D5000DAE9006722462B463046394600F000FB80
:103D6000EBE700BFAFF30080651EE6B5BD4BE6BFD5
:103D70002739EC64174E24409FDAA6A92CD843407B
:103D80008AD40A36A79A4C40620A3AA8555E3B404C
:103D90001F86F96EE8D23740701C59967CDE62406F
:103DA00048A856FCCEDD774043B81E104F127A402B
:103DB000CC872B3EC08664400000E03F0000F03F0F
:103DC0001C0300100000F0FF684F0000784F000057
:103DD000BBBDD7D9DF7CDB3D2DE9F04714461D463E
:103DE0008046894679A3D3E9002320462946DDE9A8
:103DF000087600F016FD40B1714B724D21221A6019
:103E0000002420462946BDE8F08753A3D3E90023C8
:103E10002046294600F07AFB51A3D3E9002300F0A5
:103E2000F7F900F0FDFB824600F056FC1AF0010F96
:103E300004460D4618BF7F422EB10022624B00F0AF
:103E40008FFA04460D4648A3D3E9002320462946AD
:103E500000F054F902460B464046494600F080FA0D
:103E600043A3D3E90023804689462046294600F033
:103E700045F902460B464046494600F047FB0446DA
:103E80000D4600F0A7F83CA3D3E9002300F0C9FCDD
:103E9000002857D022462B462046294600F02EF90E
:103EA00037A3D3E900238046894600F027F936A3DB
:103EB000D3E9002300F054FA42464B4600F01EF9C5
:103EC00033A3D3E9002300F021FB42464B4600F028
:103ED00015F931A3D3E9002300F042FA42464B46DC
:103EE00000F00CF92EA3D3E9002300F00FFB4246AB
:103EF0004B4600F003F92CA3D3E9002300F030FA7D
:103F000042464B4600F0FAF829A3D3E9002300F01B
:103F1000FDFA42464B4600F0F1F827A3D3E900230F
:103F200000F01EFA42464B4600F0E8F822462B46C7
:103F300000F0E4F802460B462046294600F0E6FA77
:103F400004460D46002FBFBF224605F1004314462C
:103F50001D4656E7AFF30080182D4454FB21F93F6E
:103F6000182D4454FB2109400000000000220940A4
:103F70009EE59E4BEFAEE23EBBBDD7D9DF7CDB3D7D
:103F800095DF9369FF80E83C9C4908DC20E46A3DAA
:103F900030D46A683C12E63DABC05D4B45E65A3E04
:103FA00063F024A5E31DC73E1A3E011AA0012A3F73
:103FB000B01011111111813F555555555555C53F3B
:103FC0001C0300100000F0FF0000E03F00000000B4
:103FD00065CDCD4138B50022002304460D4600F0E2
:103FE0009FFB10B105F100431D462046294638BD10
:103FF0002DE9F8430022002304460D4600F0E6FBBD
:1040000078B1002200232046294600F089FB20B128
:10401000374B384D21221A60002420462946BDE83E
:10402000F88340F2FE33C5F30A5763F31E5520466A
:1040300029A3D3E90023294600F060F828A3D3E997
:10404000002300F063FA8046894602460B4620466C
:10405000294600F0DDF842464B4600F057FA0022B0
:10406000254B00F04BF88046894602460B46204619
:10407000294600F0CDF842464B4600F047FA0022B0
:104080001D4B00F03BF802460B4680468946204611
:10409000294600F0BDF842464B4600F037FA0022B0
:1040A000154B00F02BF8A7F2FE36F20704460D463A
:1040B00009D50DA3D3E9002300F020F86FF47F7336
:1040C00004460D46FE18C5F30A5306EBD67603EBFD
:1040D000660666F31E55A0E718096D3997E2E23FC0
:1040E000F7CC920035B5DA3FCD3B7F669EA0E63F28
:1040F0001C0300100000F0FF0000E03F2DE9F04736
:10410000994681EA0904C1F30A5590460B464F4689
:1041100040F2FF7604F0004435B1B54204D0C9F353
:104120000A520AB1B24207D15B0013F5001F58D3FF
:104130005BD00020344946E0C1F3130343F4801EF2
:104140004FEA585C4FEAC828AEFB08674CEAC92C16
:104150004CF0004C154400233A46ECFB0E23B646C7
:10416000A8FB0067B8464FF00009E0FB0C8918EB8C
:104170000E014FF0000A49EB0A0A12EB0A0843F15C
:104180000009B9F5801F41EA96011ED218EB080616
:1041900049EB090046EAD178A5F5806581464900DA
:1041A000C80F18EB000249F10003B1F1004F40F2D3
:1041B000FD71164608BF22F001068D4208D81C4347
:1041C00004EB05513046BDE8F087A5F2FF35E7E77F
:1041D000002D03DB44F0FF4444F4E00400202146BA
:1041E000F1E77A0012F5001FF8D3084A7F009742E2
:1041F0009FD813424FF000009CD017429AD044F051
:10420000FF4141F4E001DEE70000F87F0000E0FF3D
:104210002DE9F04FC1F30A5C994604460D460B4662
:1042200090464F4640F2FF7081EA0901BCF1000F51
:1042300006D0844504D0C9F30A520AB1824206D19D
:10424000454A580090425CD90020444957E0204636
:10425000640D44EAC52343F000454FEA585343EA4E
:10426000C92343F0004B5D454FEAC0244FEAC82AFA
:1042700008BF544528BF6308ACEB020224BF43EAE1
:10428000C57368084FEA5A0832BF02F2FD301C4677
:10429000054648EACB7828BF02F2FE304FEA5B09B8
:1042A000352200234D4508BF44454FEA430305D35B
:1042B000B4EB080465EB090543F0010324196D41D3
:1042C000212A08BF1E46013AECD14D4508BF44459E
:1042D00002D3013308BF013601F0004240F2FD7104
:1042E000884204D802EB00529119184607E00028D2
:1042F000A4BF42F0FF4242F4E00200201146BDE8B4
:10430000F08F7C0014F5001F9ED83B4312EA430354
:1043100001D11249E9E710EA020501F0004302D198
:1043200019462846EBE7224005D143F0FF4141F40E
:10433000E0011046E3E714F5001F05D043F0FF410C
:10434000002041F4E001DAE710F5001F4FF0000013
:104350003FF47BAF1946D2E70000E0FF0000F87F92
:10436000944691EA0302F0B50E4605469E4607D5EF
:1043700003F100452B466246BDE8F04000F0C6B8A8
:10438000994203D3604509D8994207D102F100420E
:1043900056408EEA020E2A4665469446370D27F4AB
:1043A000006240F2FF714FEA1E508A42A7EB000400
:1043B00000F09F80944200F09880C6F31302CEF381
:1043C00013031F2C42F4801143F480134ED823FAB8
:1043D00004F2891A00F12002D21B93402CFA04F453
:1043E0001C432C1B38BF01F1FF311CFA02F3254698
:1043F00003D05B42651E04B9013911F4C01F53D1CB
:10440000EA0FDB0F42EA410243EA450352EA0304A2
:104410006CD0BC1E510B23D0510C01BF190F41EAC7
:1044200002121B01043CD10C01BF990F41EA820228
:104430009B00023C110D02BFD90F41EA420204F178
:10444000FF344FEAD67108BF5B00B1EBD42F4FF0B9
:10445000000006BF02EB0451184606F00041F0BD13
:10446000190E41EA02221B02083CD3E7352C1BD867
:10447000203C23FA04F2AA1AC4F1200003FA00F344
:1044800038BF01F1FF312CFA04F45FEA0C601546E5
:1044900043EA040306D043F0FF035B42551E1AB9FA
:1044A000013901E0002BF8D1CA0209D4013F7A0595
:1044B0000FD0EA0F42EA4101DA0F42EA45055B00FC
:1044C000002B21F480124FEA075405DB111928460E
:1044D000C5E739051046C2E7013508BF0132B3F11F
:1044E000004F08BF25F00105F0E75CB921462046E2
:1044F000B5E733034FF0000001D00349AFE70CB933
:104500000149F4E73146E2E70000F87F91EA030F42
:10451000F0B594460E4605469E4606D503F1004585
:104520002B46BDE8F040FFF71BBF99423CBF1E463B
:1045300015464FEA16523CBF84468E4622F4006070
:1045400040F2FF774FEA1E51B842A2EB01045CD063
:10455000844255D0C6F31307CEF313031F2C47F440
:10456000801743F4801326D82031891A23FA04F0E7
:104570002CFA04F48B402343ED18074428BF01377D
:104580000CFA01F3B9022BD5013508BF01370BB97D
:1045900025F00205360D360506EB5706730013F5B8
:1045A000001F37BFFF070132314647EA550024BFDD
:1045B00000201105F0BD352CE4D8203C23FA04F18D
:1045C0006D18C4F1200103FA01F32CFA04F428BF9A
:1045D000013723435FEA0C6118BF43F0FF03D1E7C3
:1045E000002B02F1FF3207DA013508BF0137B3F1C2
:1045F000004F08BF25F0010507EB02512846D9E717
:104600004CB906F000412046D4E733034FF00000D8
:1046100001D00249CEE73146F0E700BF0000F87F45
:10462000CB0243EA505040F21E43A3EB115340F03B
:104630000040FF2B20FA03F011D913F4E06F01D1F1
:104640004042704711F0804009D04B0013F5001F25
:1046500004D86FF0004000EBD17070470020704725
:1046600040F21E42A2EB1152FF2A07D8CB0243EAC6
:10467000505040F0004323FA02F0704701F14043EC
:1046800003F58013B3F1804F4FF0FF3088BF002057
:10469000704720B903460246104619467047030C7E
:1046A0000CBF000401F18071030E0CBF000201F584
:1046B0000001030F0CBF000101F58001830F0CBF47
:1046C000800001F500110028ACBF400001F5801109
:1046D00001EBE0234205DFE700F00041002801F193
:1046E0008041B8BF4042FFF7D4BF4FF08041FFF791
:1046F000D0BF30B51C460D464B0040EA4401114383
:10470000194309D0A54209D1904207D113F5001FE2
:104710008CBF0020012030BD0120FCE70020FAE71B
:1047200030B50D461C4655EA040301460BD4630020
:1047300013F5001F1DD8A54219D31AD190422CBFE2
:104740000020012030BD680010F5001F11D8630063
:1047500013F5001F0DD80B4313431843F2D0A542A5
:1047600005D806D1914294BF00200120EAE701203C
:10477000E8E70020E6E730B50D461C4655EA04039D
:1047800001464FEA45000AD410F5001F1CD8A54287
:1047900018D819D1914294BF0020012030BD10F5E6
:1047A000001F11D8630013F5001F0DD80B431343EE
:1047B0001843F3D0A54205D306D191422CBF002067
:1047C0000120EBE70120E9E70020E7E730B50C46E0
:1047D000194654EA01030BD44B0013F5001F1CD8F3
:1047E0008C421CD319D190428CBF0020012030BDD7
:1047F000650015F5001F10D84B0013F5001F0CD8ED
:104800008C420CD801D1904209D21843104350EA8F
:1048100005030CBF01200020E9E70020E7E70120A5
:10482000E5E730B50C46194654EA01034FEA440562
:104830000AD415F5001F1ED88C421ED81BD19042F9
:1048400034BF0020012030BD15F5001F13D84B00E8
:1048500013F5001F0FD88C420FD304D190428CBFA8
:1048600000200120EFE71843104350EA05030CBF76
:1048700001200020E7E70020E5E70120E3E7FFFF54
:10488000C31013F07F610AD0B1F17F6F4FEA40721D
:1048900043F0E04308D003F148411046704703F06D
:1048A000004300201946704752EA0332014A18BFFC
:1048B0001346F6E70000F87F41542B43574D4F4411
:1048C000453D310D0A00000041542B43574A4150E9
:1048D0003D22576946692053796E7468222C2270F4
:1048E0006C65617365776F726B220D0A00000000C2
:1048F00041542B4349504D55583D300D0A00FFFFA0
:1049000041542B43495053454E443D3130350D0AF7
:1049100000000000474554202F70757368696E676A
:10492000626F783F64657669643D7631413845331E
:1049300039303942303642373644266D5479706505
:104940003D22000022266D56616C75653D220000F7
:104950002220485454502F312E310D0A486F737461
:104960003A206170692E70757368696E67626F783E
:104970002E636F6D0D0A0D0A20202020202020209C
:104980002020202020202020202020202000FFFF89
:1049900041542B43495053544152543D22544350A7
:1049A000222C226170692E70757368696E67626F60
:1049B000782E636F6D222C38300D0A0057692D4612
:1049C000692053796E74680044616E69656C204695
:1049D00061726F6E626900005371756172650000EB
:1049E00053696E6500000000536177746F6F7468DF
:1049F00000000000547269616E676C650000000081
:104A00003132333400000000737175610000000022
:104A100073696E6500000000736177740000000028
:104A2000747269610000000000000000003E5B4FEE
:104A30005B3E3E6B4F6B3E1C3E7C3E1C183C7E3CFE
:104A4000181C577D571C1C5E7F5E1C00183C18000C
:104A5000FFE7C3E7FF0018241800FFE7DBE7FF309C
:104A6000483A060E2629792926407F050507407F0A
:104A700005253F5A3CE73C5A7F3E1C1C08081C1C7D
:104A80003E7F14227F22145F5F005F5F06097F0173
:104A90007F006689956A606060606094A2FFA2945E
:104AA00008047E040810207E201008082A1C08082C
:104AB0001C2A08081E101010100C1E0C1E0C30387A
:104AC0003E3830060E3E0E06000000000000005F7B
:104AD00000000007000700147F147F14242A7F2A97
:104AE0001223130864623649562050000807030059
:104AF000001C2241000041221C002A1C7F1C2A08A5
:104B0000083E080800807030000808080808000007
:104B100060600020100804023E5149453E00427F7B
:104B2000400072494949462141494D331814127FCA
:104B30001027454545393C4A49493141211109076A
:104B40003649494936464949291E000014000000EB
:104B500040340000000814224114141414140041BD
:104B600022140802015909063E415D594E7C12117A
:104B7000127C7F494949363E414141227F414141B2
:104B80003E7F494949417F090909013E414151732D
:104B90007F0808087F00417F41002040413F017F9E
:104BA000081422417F404040407F021C027F7F0466
:104BB00008107F3E4141413E7F090909063E4151AF
:104BC000215E7F09192946264949493203017F019F
:104BD000033F4040403F1F2040201F3F4038403FA0
:104BE000631408146303047804036159494D4300B6
:104BF0007F4141410204081020004141417F0402ED
:104C00000102044040404040000307080020545483
:104C100078407F2844443838444444283844442861
:104C20007F385454541800087E090218A4A49C78B4
:104C30007F0804047800447D40002040403D007F10
:104C40001028440000417F40007C047804787C08F0
:104C50000404783844444438FC18242418182424C4
:104C600018FC7C08040408485454542404043F44A9
:104C7000243C4040207C1C2040201C3C4030403CD8
:104C800044281028444C9090907C4464544C440038
:104C9000083641000000770000004136080002019C
:104CA0000204023C2623263C1EA1A161123A404088
:104CB000207A385454555921555579412254547805
:104CC00042215554784020545579400C1E5272129E
:104CD0003955555559395454545939555454580027
:104CE00000457C410002457D420001457C407D122B
:104CF00011127DF0282528F07C545545002054548D
:104D00007C547C0A097F4932494949323A44444437
:104D10003A324A4848303A4141217A3A4240207872
:104D2000009DA0A07D3D4242423D3D4040403D3C73
:104D300024FF2424487E4943662B2FFC2F2BFF0998
:104D400029F620C0887E090320545479410000448C
:104D50007D413048484A32384040227A007A0A0A77
:104D6000727D0D19317D2629292F282629292926EA
:104D700030484D4020380808080808080808382F2F
:104D800010C8ACBA2F102834FA00007B00000814B9
:104D90002A142222142A1408AA005500AAAA55AAE5
:104DA00055AA000000FF00101010FF00141414FF9B
:104DB000001010FF00FF1010F010F0141414FC008D
:104DC0001414F700FF0000FF00FF1414F404FC1497
:104DD0001417101F10101F101F1414141F00101090
:104DE00010F0000000001F101010101F1010101005
:104DF000F010000000FF101010101010101010FF25
:104E000010000000FF140000FF00FF00001F10173B
:104E10000000FC04F414141710171414F404F40024
:104E200000FF00F714141414141414F700F71414EA
:104E300014171410101F101F141414F4141010F071
:104E400010F000001F101F0000001F14000000FCE5
:104E5000140000F010F01010FF10FF141414FF14D1
:104E60001010101F00000000F010FFFFFFFFFFF008
:104E7000F0F0F0F0FFFFFF0000000000FFFF0F0F59
:104E80000F0F0F3844443844FC4A4A4A347E020229
:104E90000606027E027E0263554941633844443C63
:104EA00004407E201E2006027E020299A5E7A599F5
:104EB0001C2A492A1C4C7201724C304A4D4D30302C
:104EC00048784830BC625A463D3E494949007E0117
:104ED00001017E2A2A2A2A2A44445F444440514A36
:104EE000444040444A51400000FF0103E080FF007D
:104EF0000008086B6B083612362436060F090F06B9
:104F0000000018180000001010003040FF010100E0
:104F10001F01011E00191D1712003C3C3C3C000003
:104F2000000000FF001BB7000002010101010101A8
:104F30000000000000000000000000000000040469
:104F4000000000000000000000020000000000005F
:104F5000020100000000000002020202020202023E
:104F6000000000000000020200000000000000003D
:104F7000182D4454FB21E93F182D4454FB21F93FDF
:084F8000182D4454FB21E93F08
:104F880064000000F91400000000000080000C40DC
:104F980008800840088008400800034008000340D3
:104FA80008C00A4008C00A400440034000C0084046
:104FB80000C0004000C00040000001400000014067
:104FC8000080094000800940184000401C40004013
:104FD800188000401C800040180009401C0009404F
:104FE80008800A400C800A40000000000000000011
:104FF80000C0094000C0094000400A4000400A4083
:10500800184009401C40094000C00140070000004A
:105018000531000000000000000000000000000052
:105028000000000000C0054013000000053100002A
:105038000000000000000000000000000000000068
:1050480000000A401A0000000531000000000000BE
:0C5058000000000000000000000000004C
:04000003000001896F
:00000001FF
