:400000000040002011000000F9030000F903000080B500AF00F0FAF980B500AF284B12221A6000F047FC274B180001F07DFD012000F050FC302000F06DFA234B234A1A600A
:40004000234B8022D2051A60224B224A126802210A431A60204B214A1A60214B00221A60204B204A126808218A431A60FA23DB00180000F09DFA1C4B180000F0BBFB1B4BA9
:40008000E82252011A601A4B1A4A1A601A4B802212061A60194B8022D2021A60184B40221A60184B1900082000F0CCFA082000F043FB074B8022D2051A60C046BD4680BDBF
:4000C00030001040001BB70004010B40060000800C020B4078002E407C002E40BCBC000064F02E406CF02E40DC050000000301400000014040FF008008010B4000010B40E6
:4001000008010140290A000080B582B000AF72B6314B00221A60FB1D00221A7022E0FB1D1A7813005B009B185B002C4A9B183B603B681A78597809020A43997809040A4373
:40014000DB781B06134318003B681A795B791B0213439BB2190000F02BF9FB1D1A78FB1D01321A70FB1D1B78012BD8D91C4BEE2212061A601B4BEE221A601B4B992212046F
:400180001A601A4B992212041A60194B992212041A60184A174B1B78DBB206210B43DBB21370154BD82212041A60144BC02252031A60134BD82212041A60124B03221A601F
:4001C000114B24221A60FFF727FF00F001F9C046BD4602B080BDC0466CF02E40B8370100000002400005024000500F4020500F4030500F4000700F40080004400802044016
:4002000008030440000504400805044010B5064C2378002B07D1054B002B02D0044800E000BF0123237010BDE810002000000000B4370100084B10B5002B03D007490848AA
:4002400000E000BF07480368002B00D110BD064B002BFBD09847F9E700000000EC100020B4370100E80B00200000000080B584B000AF786039607B68282B04D04C2B06D05B
:40028000012B00D02BE0002001F068F827E03B68BB60BB689B89152B12D10023FB600CE0FB6808331A00BB685968FB68CB1819780D4B9954FB680133FB60FB68072BEFDD22
:4002C0000A4B1A785B781B021A4300231204120C1B0C1B04134318000DF080FCC046C046BD4604B080BDC046B4220020E822002080B584B000AF3B1D12221A813B1D08225F
:400300009A803B1D094A1A603B1D0022002118000EF082FE031E05D1381D0023002200210EF0ABFEC046BD4604B080BDB422002080B582B000AF62B61B4B180000F076FFF3
:40034000012000F0E7FB012000F008FC002000F02DFC00F06DFC154B1A000821102000F0F7FC08237B6009E07B68D9B20F4A7B68D3180A1C1A707B6801337B607B680F2BEA
:40038000F2DD02F007F8094B1B78FF2B02D1002000F0C0FB054B5B78FE2B02D1002000F0DDFBFFF7A5FFECE76D020000B422002080B582B000AF786039603A687B680021C8
:4003C000180001F0ABFFC046BD4602B080BDC04680B500AF054B03221A60054B03221A60044B00221A60C046BD4680BD3000304030003140000E3F4080B500AF01F04AFF6D
:4004000003001B680C2B00D1FEE7FEE780B586B000AF224B7B61224B3B61204B7B6135E03B691B68FB603B695B68BB603B699B683B6000237B600CE0FB681A68BB681A60EA
:40044000BB680433BB60FB680433FB607B6804337B607A683B689A42EED13B69DB683B6000237B6008E0BB6800221A60BB680433BB607B6804337B607A683B689A42F2D148
:400480003B6910333B617B69013B7B617B69002BC6D101F005FFFFF74BFFFEE701000000203A010080B582B000AF154B144A126801218A431A6000237B600FE07B68032BEC
:4004C00004D8104B7A689200D35800E00E4B0F4A796889008B507B6801337B607B682F2BECD9FFF711FE0A4B00221A60044B044A126801210A431A60C046BD4602B080BD6D
:400500000000104000000000F903000000000020C000002090B58BB000AF78602723FC1801F00BFB03002370194B1A680C23FB181A60184B1A680C23FB185A607B68033BD9
:40054000154AD35C1A000C23FB189A60134B1A680C23FB18DA601C23FB18114A1A600C23FA181C23FB185A600E4B1C22BA181A600D4B0E4A1A600B4B1B682723FB181B78F1
:40058000180001F0DEFAC046BD460BB090BDC04608010B4000010B40C437010030001040B6EA000008001040040010401700008080B584B000AF78600023FB60154B154A17
:4005C000126801210A431A60134B144A1A60144B134A1268802109020A431A607B68002B12D01023FB600CE0012000F003F900F019F8031E02D00023FB6005E07B68013BCC
:400600007B607B68002BEFD1FB681800BD4604B080BDC04660F02E4078002E400220000010002E4080B582B000AF054B1B68012213407B607B681800BD4602B080BDC0462B
:400640000C002E4080B584B000AF02003960FB1D1A7080239B05FB60FB1D1B781F2B02D9002000F095F8FB1D1B7810339B00FA68D3181B68BB60FB1D1B7810339B00FA6841
:40068000D3183A681A60BB681800BD4604B080BD90B587B000AF0200FB1D1A70BB1D0A1C1A70BB1D1B78032B02D9002000F070F8FB1D1B781F2B02D9002000F069F8FB1D68
:4006C0001B7803221340DB0006337B611323FC1801F033FA03002370FB1D1B789B08DBB29B00144A944663441B68FB6003227B699A401300DA43FB681340FB60BB1D1A7840
:400700007B699A401300FA681343FB60FB1D1B789B08DBB29B00074A94466344FA681A601323FB181B78180001F00BFAC046BD4607B090BD00E400E080B582B000AF0200DE
:40074000FB1D1A70064BFA1D12781F210A40012191400A001A60C046BD4602B080BDC04600E100E080B582B000AF0200FB1D1A70064BFA1D12781F210A40012191400A00F2
:400780001A60C046BD4602B080BDC04680E100E080B582B000AF0200FB1D1A7001BEC046BD4602B080BDC04680B582B000AF786009E00D4B1B68180001F0B6F97B680B4A67
:4007C000944663447B607A6880231B029A42F0D8074B1B687A685343180001F0A5F9C046BD4602B080BDC046F80B00200080FFFFF00B002080B582B000AF0200BB1D1A801F
:40080000BB1D1B88044A12785343180001F08CF9C046BD4602B080BDF40B002080B500AF0F4B0F4A126801218A431A600C4B0C4A126802218A431A600A4B0A4A12683021AB
:400840008A4310210A431A60064B064A126807218A4301210A431A60C046BD4680BDC04600F02E4000FF2E4080B500AF0F4B0F4A126802218A431A600D4B0D4A12680721D7
:400880008A4302210A431A60094B094A126830218A4320210A431A60044B044A126801210A431A60C046BD4680BDC04600F02E4000FF2E4080B500AFFFF7B0FF044B044AFD
:4008C0001268802109060A431A60C046BD4680BD00F02E4080B584B000AF78600C4B1B6801221340FB607B68002B02D0012B03D005E0FFF793FF06E0FFF7B6FF03E00020E8
:40090000FFF746FFC046FB681800BD4604B080BD00F02E4090B583B000AFFC1D01F00DF903002370074B074A1268C02109020A431A60FB1D1B78180001F003F9C046BD4653
:4009400003B090BD00010B4080B500AF054B1A68C0231B02134001D0012300E000231800BD4680BD00010B4090B583B000AFFC1D01F0E3F8030023700D4B0D4A12680D4965
:400980000A408021C9010A431A60094B084A126808490A40802109020A431A60FB1D1B78180001F0CEF8C046BD4603B090BDC04600010B40FF3FFFFF90B585B000AF78607B
:4009C0000B23FC1801F0B9F803002370FFF7BCFF031E04D00123FB60FFF7C6FF01E00023FB607B680D4A13407B600D4B0C4A12680C4911407A680A431A60094B1B68FB6825
:400A0000012B01D1FFF786FF0B23FB181B78180001F097F8C046BD4605B090BD0404040010020B40FBFBFBFF80B500AF344B1B68042213401FD0334B1B680422134017D0BE
:400A4000314B1B6804221340DA432E4B1B681A402C4B1A602C4B1B68042293431A002A4B1A602A4B1B68002B02D0284B1B6898470420FFF7A1FF224B1A688023DB00134057
:400A800022D0204B1A688023DB00134017D01E4B1A688023DB001340DA431A4B1B681A40184B1A60184B1B68194A1A40164B1A60164B5B68002B02D0144B5B689847802364
:400AC000DB001800FFF778FF0D4B1A688023DB02134011D00B4B1A688023DB02134006D00A4B9B68002B02D0084B9B6898478023DB021800FFF760FFC046BD4680BDC046C4
:400B000010020B40040C00200C11002010110020FFFBFFFF80B584B000AF0200FB1D1A700D4B1B68DAB20F23FB187F210A401A70FB1D1B78DB01D9B20F23FB180F22BA187C
:400B400012780A431A70044B0F22BA1812781A60C046BD4604B080BD0003044080B584B000AF0200FB1D1A700F4B1B68DAB20F23FB1840218A431A70FB1D1B789B01DBB287
:400B800040221340D9B20F23FB180F22BA1812780A431A70044B0F22BA1812781A60C046BD4604B080BDC0460002044080B584B000AF0200FB1D1A700F4B1B68DAB20F2359
:400BC000FB1840218A431A70FB1D1B789B01DBB240221340D9B20F23FB180F22BA1812780A431A70044B0F22BA1812781A60C046BD4604B080BDC0460003044080B500AFEC
:400C000000F036F8C046BD4680BDC04680B500AF064B064A1268802109060A431A6000F019F800F01FF8C046BD4680BD0000254080B500AF064B1B78002B04D1FFF7DEFF86
:400C4000034B01221A70FFF7E1FFC046BD4680BD2C11002080B500AF0A20FFF76DFDC046BD4680BD80B500AFC046BD4680BDC04680B500AF214B00221A60214B214A1A60DF
:400C8000214B224A1A60224B00221A60214B224A1A60224B1D4A1A60214B00221A600A20FFF760FD03210A20FFF7F2FC1D4B19000A20FFF7C7FC1C4B00221A601B4B002293
:400CC0001A601B4B5222FF321A601A4B00221A60194B00221A60194B00221A60184B00221A70184B00221A70174B00221A80174B00221A70C046BD4680BDC04600002540F9
:400D00006000254000080040000325400701008004032540100325401000FE000002254004022540990D0000C80E2540880E2540480F2540080F2540C80F2540880F2540A6
:400D4000C4220020C9220020D0220020C822002080B584B000AFF860B9607A607B68002B10D00A20FFF7FEFC084B7A681A60FB689AB2074B1A80BB689AB2064B1A800A200D
:400D8000FFF7DAFCC046BD4604B080BDCC220020D2220020C622002080B588B000AFC74B1B68002B02D0C54B1B689847C44B1B88FB61C44B1B68FB60C34B1B68BB60FA681A
:400DC0000223FF33134049D0C04BC04A1268520052081A60BE4B1B78DBB220229343DAB2BB4B1A70BA4B1B78DBB210221343DAB2B74B1A70B74B1B68102213400FD1B64B6E
:400E00001B789AB2AE4B1B889A4210D0B04B1B78DBB208221343DAB2AD4B1A7007E0AC4B1B78DBB202221343DAB2A94B1A70AB4BAA4A1268AA490A401A60AA4B00221A60A4
:400E4000A44B00221A60A84B00221A709F4B9F4A1268802109060A431A609DE1BB681022134002D0A14B00221A60BB680A22134000D1C5E09E4B1B680422134000D171E0E5
:400E80009C4B1B687B60984B1B78002B1DD0012B60D1994B1B88002B13D0984B01221A60974B1A68FB69D3187A68D2B21A70FB690133FB61904B1B88013B9AB28E4B1A80DD
:400EC0004CE08E4B02221A6048E08E4B1B881A007B689A423AD9894B01221A607B68FB61894B1B881A007B689A4206D9864B1A887B689BB2D31A9AB200E000227E4B1A809F
:400F00007D4B1B88072B03D8774B01221A7018E0794B1B88082B0AD1704B704A1268A02109020A431A606F4B00221A6009E06B4B6A4A1268802189010A431A60694B0822E8
:400F40001A60FB69DAB2644B1A7007E06B4B02221A6003E00020FFF71BFCC0466B4B04221A604DE05D4B1A6880239B01134047D0BB68022213400DD0654B1B681F221340E9
:400F80003B61564B554A126855490A401A6001237B6122E0584B1B88083B9AB2564B1A80554B1B88082B05D8534B1B883B6100237B6112E008233B6101237B610DE0504BF7
:400FC0001A68FB69D2184B4B1B68DBB21370FB690133FB613B69013B3B613B69002BEED17B69002B09D13D4B3C4A1268802109020A431A603B4B00221A60444B0C221A60BD
:40100000BB680222134000D19FE0FB681022134027D0344B00221A602E4B00221A600223BB612D4B1B781A00FB699A4203D0BB6908221343BB61BB69FA681340BB61244B1A
:401040001B78DBB21A00BB691343BB61BB6920229343BB61BB69DAB21D4B1A70224B00221A70FB68402213406CD0194B1B78DBB220221343DAB2164B1A70174B1B78FB6155
:40108000244B1B68102213404AD01E4B1A88FB699BB2D31A9AB2184B1A801F4B1E4A1268802149020A431A601B4B1B4A12681B490A401A60074B10221A6034E030110020CE
:4010C000D0220020400F2540000E254000002540C9220020880F2540C822002060002540FF5FFFFFC80F2540C4220020880E2540CC0F254040032540341100206C002540C5
:40110000CC220020D2220020C6220020C00F2540080325406400254004022540FFFFFEFF214B04221A60214B01221A60204B214A1A60214B204A126810210A431A601F4B9B
:4011400001221A601A4BFA681A601D4B1B680422134021D01B4B1B88002B11D01A4A1B4B1968FB69CB181B78DBB21360FB690133FB61144B1B88013B9AB2124B1A8002E0AB
:40118000114BFF221A60124B1B681F221340082BE0D1104B10221A60FB699AB20E4B1A80C046BD4608B080BDC80F2540800E2540400F2540FF0F0000480F25406C002540BA
:4011C000000E25403411002040022540CC22002008022540800F2540D022002080B500AF094B00221A70094B00221A70084B00221A7000F013F8074B00221A70064B00229E
:401200001A70C046BD4680BDEB220020E4220020EA220020D4220020DC22002080B500AF00F07AFCC046BD4680BDC046B0B594B004AF78603E23FB1800221A802823FA18D4
:401240003D4B1000190014231A0001F05EF83B4B1B78002B04D1FFF7C1FF384B01221A707B68002B5CD0364B7A681A603E23FB181B88002B29D11023FB181C22BA185A60C3
:401280001023FB182022BA181A601023FB1800221A812023FB181B221A802023FB181B225A802023FB1804221A711C23FB1800221A703E23FC180E23FA181023FB181100A9
:4012C000180001F043F9030023803E23FB181B88002B29D13E23FC182823FD18AE231A0118491948194B0293194B0193052300932B0001F081F8030023803E23FB181B8846
:40130000002B11D1134B01221A703E23FC18124B1A22162118000DF067FE0300238003E03E23FB1801221A803E23FB181B881800BD4610B0B0BDC046F43701003811002022
:40134000D8220020C8000020951600007902000000430100E22200204038010090B585B000AF0200FB1D1A70FB1D1B78022B04D90E23FB1801221A804AE0294B1B78042B81
:4013800041D1284B1B78DBB21A00042313403AD1FB1D1B78002B0BD1234B1E221A82224B5B6820221A80204B5B6830225A8010E0FB1D1B78012B0CD11B4B96221A821A4BC4
:4013C0005B68C822D2001A80174B5B688022D2015A80164BFA1D12781A700E23FC18124B18000BF02FFA030023800E23FB181B88002B0DD10B4B1B78DBB204221343DAB2E2
:40140000084B1A7004E00E23FB180422FF321A800E23FB181B881800BD4605B090BDC046E2220020EB220020380C0020EA22002080B584B000AF78600A00FB1C1A7000230D
:40144000BB60BB68002B20D07B689A79BB681A700F23FB1800221A7012E00F23FB181B780133BA68D3180F22BA18127879688A5C1A700F23FB181A780F23FB1801321A70BD
:401480000F23FB181B78052BE7D9C046BD4604B080BDC04680B582B000AF78607B681B789AB27B6801331B789BB21B029BB213439BB21800BD4602B080BDC04690B585B026
:4014C00000AF78600F23FB1800221A707B689B890F22934232D17B68181D7A680F23FC18402300210DF0C9FD030023700F23FB181B78002B1AD17B685B681800FFF7CAFFDC
:4015000003001A00022313409BB2002B07D00F4B1B687968822252001000984706E00B4B1B6879680622FF3210009847084B1B78DBB201229343DAB2054B1A700F23FB1825
:401540001B781800BD4605B090BDC046D8220020EB22002090B585B000AF78600F23FC187B681800FFF7AAFF03002370154B1B78DBB21A00012313401FD10F23FB181B781E
:40158000002B16D00823FB1812229A707B689A890823FB181A800823FB180F22BA181278DA700823FA187B68110018680CF09EFA03E07B6818680CF011FBC046BD4605B05A
:4015C00090BDC046EB22002080B582B000AF7860C046BD4602B080BD80B500AF044B00225A70034B00221A70C046BD4680BDC046E822002080B582B000AF7860C046BD46FF
:4016000002B080BD80B500AFC046BD4680BDC04680B584B000AF78600E23FB1800221A707B689B79002B1CD10F23FB1800221A7012E00F23FB181B787A68D35C002B04D0D1
:401640000E23FB1801221A700BE00F23FB181A780F23FB1801321A700F23FB181B78052BE7D90E23FB181B781800BD4604B080BD80B582B000AF0200BB1D1A80C046BD4677
:4016800002B080BD80B582B000AF7860C046BD4602B080BD80B588B000AF02003960FB1D1A70CB4B1B78DBB201221343DAB2C84B1A70FB1D1B78412B00D1A9E123DC212B67
:4016C00000D1EFE00DDC022B00D1C1E002DC012B3BD0F9E1052B00D1BFE0062B00D1C1E0F2E1272B00D117E106DC242B00D109E1262B00D11CE1E7E1282B00D114E12A2B61
:4017000000D104E1E0E14F2B00D1D0E10BDC432B00D19DE100DA98E14C2B00D1B5E14E2B00D1C6E1D0E1572B00D1C4E106DC502B00D1C2E1542B00D1ACE1C5E1712B00D106
:4017400040E1FA2B00D1AAE1BEE11023FB1807221A701023FB1800225A701023FB18180002F004FE1023FB1807221A701023FB1801225A701023FB18180002F0F7FD0B230D
:40178000002B01D000F0FEFD924B1B681800FFF73FFF031E11D08F4B1B68180000F0FEFD8C4B1B6800211800FFF742FE894B1B6801211800FFF73CFE36E0874B1B781A0015
:4017C0003F231A40854B1B789901FC231B010B401A43834B1B781903F8235B020B401A43804B1B785904FE231B040B401343BB61BB69DAB27C4B1A70BB691B0ADAB27A4B5D
:401800005A70BB691B0CDAB2774B9A70764B180000F0C4FD744B00211800FFF709FE724B01211800FFF704FE00200AF0AFFE0C23FB183F221A700C23FB1800225A700C237C
:40184000FB1818000AF0C0FE684B04221A703BE13B681800FFF7CEFE36E13B681A78644B1A7031E13B687B617B691B78002B00D025E17B695B78002B0BD15E4B0222DA8016
:401880005C4B1C229A805B4B5B4A1A607B69594A5A604F4B1B78DBB201229343DAB24C4B1A700CE14A4B1B78DBB21A002023134000D006E1514B1B78102B02D14F4B0522BC
:4018C000DA704F4B1B784D4A110018000AF07CFF03001A000A23FB181A800A23FB181B88002B06D0474B1B680A22BA18110036209847374B1B78DBB201221343DAB2344BE2
:401900001A70DEE03B685A783F4B1A70DCE03B681800FFF7B7FED7E03B681800FFF7B2FE324B02221A70CFE0304B04221A70CBE02E4B1B78022B00D1C5E0254B1B78DBB2AD
:401940001A000123134000D1BDE0214B1B78DBB21A00042313400BD0244B03221A701C4B1B78DBB204229343DAB2194B1A70AAE0174B1B78DBB21A00082313400BD01B4B6D
:4019800004221A70124B1B78DBB208229343DAB20F4B1A7097E0154B1B78032B00D092E0124B04221A70194B1B78002B00D08AE00120FFF7D3FC031E00D084E00B4B032291
:4019C0001A7080E03B681B881800FFF751FE7BE0EB220020540C00207CF1FF0F7DF1FF0F7BF1FF0F78F1FF0F4C0C0020E2220020E422002060110020A80B0020240D0020F3
:401A0000E8220020D8220020DC220020EA2200203A4A3B681000190002231A0000F075FC374B00221A70354B1B783D33FF335A00344BD3180133344A1000190002231A0067
:401A400000F063FCFFF7DEFD3EE0FFF7C5FD3BE03B685B88162B05D81E23FB183A6852881A8003E01E23FB1817221A801E23FB1819883B681A8800231204120C1B0C1B0466
:401A8000134318000CF03CF81EE03B681800FFF761FD19E03B681800FFF796FD14E01B4B1B7801221343DAB2184B1A700CE0C0460AE0C04608E0C04606E0C04604E0C046B9
:401AC00002E0C04600E0C046114B1B78DBB21A00112313400ED00E4B1B78DBB201229343DAB20B4B1A700B4B1B68FA1D1278396810009847C046BD4608B080BDE82200200D
:401B0000E422002000430100E0220020D4220020EB220020D822002080B500AFC046BD4680BDC046000000000230800803D00138FDD1C046C046C0467047EFF3108072B695
:401B4000704780F31088704790B583B000AFFC1DFFF7F3FF03002370074B074A126804218A431A6030BFFB1D1B781800FFF7E9FFC046BD4603B090BD10ED00E080B582B0C8
:401B800000AF78600A00BB1C1A80BB1C1A887B681A60C046BD4602B080BDC04680B582B000AF78600A00BB1C1A80BB1C1A887B681A60C046BD4602B080BDC04680B584B0A9
:401BC00000AF494B1B78DBB21B02484A1278D2B21343FB60464B1B78DBB21B02454A1278D2B21343BB60BB68434A934207D1FB68072B04D1414BBB600423FB6009E0BA683D
:401C0000D4231B019A4204D1FB68042B01D13B4BBB603B4BBA681A603A4BFA681A603A4B1B78DBB21B02394A1278D2B21343FB60FA6880239B019A4202D0FB68002B01D1A5
:401C4000334BFB60334BFA681A60334B1B78DBB21B02324A1278D2B21343FB60FB68304A934206D0FB682F4A934202D0FB68052B01D12D4BFB602D4BFA681A602C4B1B68AA
:401C80001B097B602B4B1B68AA2B29D17B68012B26D9214B1B78DBB20E2B21D1264B1B78DBB29BB21B0299B2244B1B78DBB29AB2BB1C0A431A80224BBA1C12881A60214BF6
:401CC0001B78DBB29BB21B0299B21F4B1B78DBB29AB23B000A431A801C4B3A0012881A60C046BD4604B080BDD9F0FF0FD8F0FF0FDFF0FF0FDEF0FF0F580B0000580D00003A
:401D00006C002E4074002E40DBF0FF0FDAF0FF0F0220000078002E40DDF0FF0FDCF0FF0F0F0F000005050000050F000080002E40EC0F00F0E00F00F06DF2FF0F6CF2FF0FAC
:401D400084002E406FF2FF0F6EF2FF0F94002E4080B582B000AF0200BB1D1A80BB1D1B881800FEF747FDC046BD4602B080BDC04680B582B000AF78607B681800FEF714FD4F
:401D8000C046BD4602B080BD80B500AF00F0ECF8C046BD4680BDC04680B500AF00F0F0F8C046BD4680BDC04680B500AF00F0E8F8044B180000F0A2F8032000F0ADF8C046BC
:401DC000BD4680BD991F000080B500AF034B180000F080F8C046BD4680BDC046991F000080B500AF0223FF331800BD4680BDC04680B582B000AF78602B231800BD4602B093
:401E000080BDC04680B582B000AF78602B231800BD4602B080BDC04680B582B000AF78602B231800BD4602B080BDC04680B582B000AF78602B231800BD4602B080BDC0467B
:401E400080B582B000AF78602B231800BD4602B080BDC04680B582B000AF78602B231800BD4602B080BDC04680B582B000AF78602B231800BD4602B080BDC04680B582B017
:401E800000AF78602B231800BD4602B080BDC04680B500AF2B231800BD4680BD80B582B000AF0200FB1D1A702B231800BD4602B080BDC04680B582B000AF786039602B23C6
:401EC0001800BD4602B080BD80B500AFC046BD4680BDC04680B582B000AF786000F050F87B68180000F00AF8032000F015F800F03BF8C046BD4602B080BDC04680B582B0ED
:401F000000AF7860034B7A681A67C046BD4602B080BDC0460000002090B585B000AF0200FB1D1A700623FB600B23FC18FFF705FE030023700B4B0B4A1268C0218A43110045
:401F4000FA1D1078FA68904002000A431A600B23FB181B781800FFF7F4FDC046BD4605B090BDC0460CE400E080B500AF034B802252011A60C046BD4680BDC04600E100E065
:401F800080B500AF034B802252011A60C046BD4680BDC04680E100E080B500AF11F0F6FBC046BD4680BDC046002243088B4274D303098B425FD3030A8B4244D3030B8B4279
:401FC00028D3030C8B420DD3FF22090212BA030C8B4202D31212090265D0030B8B4219D300E0090AC30B8B4201D3CB03C01A5241830B8B4201D38B03C01A5241430B8B4274
:4020000001D34B03C01A5241030B8B4201D30B03C01A5241C30A8B4201D3CB02C01A5241830A8B4201D38B02C01A5241430A8B4201D34B02C01A5241030A8B4201D30B02B4
:40204000C01A5241CDD2C3098B4201D3CB01C01A524183098B4201D38B01C01A524143098B4201D34B01C01A524103098B4201D30B01C01A5241C3088B4201D3CB00C01AAB
:40208000524183088B4201D38B00C01A524143088B4201D34B00C01A5241411A00D20146524110467047FFE701B5002000F0F0F802BDC0460029F7D076E7704703460B43BD
:4020C0007FD4002243088B4274D303098B425FD3030A8B4244D3030B8B4228D3030C8B420DD3FF22090212BA030C8B4202D31212090265D0030B8B4219D300E0090AC30BE9
:402100008B4201D3CB03C01A5241830B8B4201D38B03C01A5241430B8B4201D34B03C01A5241030B8B4201D30B03C01A5241C30A8B4201D3CB02C01A5241830A8B4201D3EF
:402140008B02C01A5241430A8B4201D34B02C01A5241030A8B4201D30B02C01A5241CDD2C3098B4201D3CB01C01A524183098B4201D38B01C01A524143098B4201D34B01F1
:40218000C01A524103098B4201D30B01C01A5241C3088B4201D3CB00C01A524183088B4201D38B00C01A524143088B4201D34B00C01A5241411A00D201465241104670470C
:4021C0005DE0CA0F00D04942031000D34042534000229C4603098B422DD3030A8B4212D3FC22890112BA030A8B420CD3890192118B4208D3890192118B4204D389013AD070
:40220000921100E08909C3098B4201D3CB01C01A524183098B4201D38B01C01A524143098B4201D34B01C01A524103098B4201D30B01C01A5241C3088B4201D3CB00C01AE0
:40224000524183088B4201D38B00C01A5241D9D243088B4201D34B00C01A5241411A00D20146634652415B10104601D34042002B00D54942704763465B1000D3404201B530
:40228000002000F005F802BD0029F8D016E770477047C046014B18687047C046E01000200E4B70B500251E000D4CE41AA410A54204D0AB00F35898470135F8E711F09EFB4C
:4022C000084B00251E00084CE41AA410A54204D0AB00F35898470135F8E770BD083A0100083A0100083A0100103A010030B50024A24208D0035D651C0C5DA34201D0181B64
:4023000002E02C00F4E7002030BD002310B59A4203D0CC5CC4540133F9E710BD03008218934202D019700133FAE77047134A1088810703D08107890F401A001D11791030A5
:40234000484381B25088820703D08207920F801A001D800040180A494030098980B2CA0701D0503080B2890706D504495422091F09785143081880B270470000300D002006
:402380007411002010B501F011FF10BD10B501F013FF10BD10B500F05BFA10BD10B50749044609780220002907D1204601F054FF002802D120460AF0EDF910BDCC0E0020C4
:4023C00070B504460120002C12D02368002B0FD0616800290CD0074D06222889208118462968FFF792FF6968606809780170002070BD000074110020FFB585B0002768465D
:402400000E9D07734F481C460078002802D0082009B0F0BD10990F9801900095029105A807C800F007F90028F2D16946264603AB84460873002C19D0002115E08A00B75A4A
:40244000082F09D990198078002805D0083FB7521878401C187005E0002914D00027B75290198770491CC9B2A942E7D360460028CED10F98002809D0109901F047FA002882
:4024800004D00120C4E701208446EFE701F094FE2D480021416081600599016021888180022D07D3A1798171A17AC171A1890181218A418100211EE0481C19E082008B0073
:4024C000A75AE65ABE46BE4211D26F463E80B4461E190296B678BE7001967646E6521719029EBB78B3706646A652019EBE70401CA842E3D3491CA942DED3134822460C30FE
:4025000000906846037B0799069800F01BF90028B8D168460B4C007B60700B480C3001F07BFE0028AED1084907480C3107F002FA0028A7D107F01CFA0028A3D10121217030
:4025400066E700002A0D002068110020F8B5054636480F460078002802D002242046F8BD002F60D000243249002D16D02A89D0070DD02868002808D003881B3BE12B04D2D5
:402580004088FB2801D81B2801D2012409E0900707D56868002804D1F7E70020088108604860002CDAD122482E8906811F481B21801D01804180042101711C490020891C9A
:4025C0000870F00705D019480622801D2968FFF79CFE1749B00703D56A68144812788270124D0E46AD1D281F0D60486001F05AFE284601F049FE30890DF050FE30890DF035
:4026000039F828880DF03CF830890DF0B1FF03461033FFF78BFE1F21C018890140183880A91F88809AE7012498E700002A0D002074110020FFB58446384F1C460020BB88AA
:402640003F78054602460646002F11D100290ED0029999420BD36146002908D0002C06D00A99002906D02E4B0B99994202D2012004B0F0BD002144E0AB001F19BF78002F30
:402680003BD0E35A002B38D07B43591889B22B0000F04AF8050410161C253100A7782388BC46FF27233BEB37BB4222D26346032B1FD322E0A388002B1FD0302B19D31CE081
:4026C0002389002B19D0282B13D316E0A289002A13D01346134F233BBB420AD20DE0268A002A0AD033460F4F233BBB4201D2964203D901200EE0002001E000280AD16D1CCB
:40270000EDB2099B9D42B7D31C2463435B1802998B42ACD89642AAD8AAE700002A0D002079020000BAFF000030B47446641E2578641CAB4200D21D46635D5B00E31830BCD1
:4027400018470000FFB583B0002469460C801F4606468C80002806D00598002803D004983043800701D0012466E0002FFBD03449049809888842F6D3FFF726FBFFF70CFB44
:4027800000F016FC002855D100F07EFD002851D12C49084601F0EEF805042D0C4AD12A480499066081800021C18007810C98007AC00704D0684601F018FD040007D10C98D0
:4027C000007A800703D501A801F018FD0446BF1DFEB2002C20D13146059800F05DF804001AD10DF0D3FE040016D16A461088928808368518144AF1B29088D288AEB29319A1
:40280000984207D3401B801A80B201F0A3FB050007D000E0FF25012400F062FA002D04D008E0F8B200F01CF9F6E700F085FA07490120087000F0CEFB204607B0F0BD00008D
:402840002E0D00208529000080110020360D002010B503480078012801D101F01DFA10BD360D002070B5084B0446DA889E8803205518B54206D8186880182060D888401881
:40288000D880002070BD000080110020014800897047000080110020F0B587B007460D4600208900009006916846FFF7DBFF844600285DD1304800990160002117E02E4B9B
:4028C00088001A680629115406D22C4C0419667882185670628805E0C419203CA67A8218567022891B68C018491C4280C9B2A942E5D300242DE0601CC2B2059025E01E4F94
:40290000A30039689600581840887118039604904E88B04217D938466F46FE80B6464F786E4677710297049F4F800168039F5E18767879184E700168764659184E80006872
:40294000029F18184770521CD2B2AA42D7D30598C4B2AC42CFD36046002809D168460699FFF780FF8446002802D1054900980860604607B0F0BD0000380D0020303A01004D
:402980003C0D00207047000010B5002809D005494A68002A05D0011F08788000105801F087FA10BD380D002010B50446FFF76EFFC0B2801DA0420CD307484068002808D0CD
:4029C000A100405801F0E6F9002801D00470001D10BD002010BD0000380D0020F8B516460D460446FFF752FFC0B2801DA04203D20020C0430090F8BDB2B2E9B2684601F06C
:402A0000EFF90099481C03D0024AA000526811500098F8BD380D0020F8B50746FFF736FF801DC6B20A49002005460C680DE06178002907D06188B94202D32078FFF7B4FFF9
:402A4000002804D1241D6D1CEDB2B542EFD3F8BD380D002010B5002801D0FFF795FF10BD70B506460948002504680BE06178002905D062882078121D0023FFF7AFFF241D3A
:402A80006D1CEDB2B542F1D370BD0000380D0020FFB581B00A9F16000C4620D000F0F6F8054604281BD0002F0CD03846FFF7B4FF20492A0151184860002810D03A4604997F
:402AC000FFF723FC1B4928010E504618778101980570200406D47D20C000444304E0FF2005B0F0BD6404640C00F0BEF80746042807D000F053FAA0420BD800F04FFA201AE8
:402B000003E0204600F0AEFA0020F06035720020E6E700F043FA009000F0BAFA00980121001B009000F0F0F802493A0151180098C860E6E78C110020F8B5042801D3FF200D
:402B4000F8BD060116483418217A042903D0E068002802D017E00020F8BD00F01FFA054600F096FA00F0A0F804280CD001010C480F18F8680021451900F0C6F80020F86060
:402B8000284600F06FFA6068054D002801D0FFF761FF042020720020A8516081E060DAE78C110020FEB500266A46304601232549050169180D7A042D02D0C96800291BD090
:402BC00000211154401CC0B20428F0D300246846005D002830D01B48210108184189476805680291002101604160042241810272C160002E02D015E01354E3E700F054F81B
:402C000004280ED001010F4808180190C6680021304600F079F801980021C160304600F021FA0126002D07D038460299A847002F02D03846FFF70EFF641CE4B2042CC6D36A
:402C4000FEBD00008C1100200EB5002005216A460090118150810348694600680EF0FBFA0EBD0000400D0020074A0020010189180B7A042B02D0C968002903D0401CC0B20E
:402C80000428F3D3704700008C1100200549002002015218127A042A03D0401CC0B20428F6D370478C11002030B50A4B04200A4C00210A011219157A042D06D0D268002A0A
:402CC00003D09A4201D808461346491CC9B20429EFD330BDFFFF00008C1100207047000030B50020074C05460423020111190B72A5504D60401C4D81C0B2CD600428F4D3A5
:402D000030BD00008C11002030B5094C00231A011219157A042D04D0D568002906D02D18D5605B1CDBB2042BF1D330BD2D1AF7E78C110020002070471CB5002469460C703F
:402D4000142001902346054A05480EF089FA04480068401C00D1FF2420461CBDB52D0000400D00203EB5124A0146FF2000230124126800290DD0012914D0042908D10420C1
:402D80006946009308814B8110460EF064FA80B23EBD6846009304814381694610460EF055FAF4E768460093048143816946EBE7400D002070B545890468416800890300DA
:402DC000FFF7B2FC08280509091E22282628002005F066FC1EE0022908D0C8B22A4621460CF09CFB2046FFF735FE13E002202A4621460CF093FB2946204600F00DF809E01E
:402E000000200DF027FF05E02046FFF7CBFE01E0FFF75AF8002070BD014B0022DB681847440D002070B5448905680089022803D0032809D0FF2070BD2246094C0023A4682D
:402E400029460120A04708E0FFF7A0FA241DA2B200232946022006F020FC002070BD0000440D002070470000024800214160018041807047440D002070B50C46002186B04F
:402E800016460391012802D0022859D116E003A9012006F057FC01281BD1039D324621462846FFF732FA0095287801900220694608814E816846FFF7B5FF41E0214D002BA2
:402EC000686809D0049004A9022006F03BFC01281DD0022006B070BD002812D0298840182146FFF712FA28880024801980B228806988091D884206D12C801348FFF792FF75
:402F000003E00320E6E788421AD96C6018E004986860E278A378110219430B4A698000231060E3565360032313815181A1788170E178C170617841702178017004202880B8
:402F40000020C7E7440D0020CC1100203EB515460C46022803D004280CD000203EBD0091019002206946088107484A8100680EF072F907E00CF0D2FA044B0022DB6829461C
:402F80002046984701203EBD400D0020440D0020014AD16090607047440D0020034801688068081A0A21484300097047D811002010B5FEF7F9FE4C2204490548FFF7A5F9B4
:402FC00003490120C870002010BD00004C3A0100DC15002010B5FEF7D7FE10BD70B5134C2368002B08D0207B1149C20705D04008400020738868A08070BD88680B4AA188E0
:4030000080B29268814203D90A4D691A091802E0814202D2411A5118A160A080A0689842EAD30EF035F900F013F870BDD8110020C0102E40FFFF000010B508461946FFF7CC
:40304000A7FF10BD704710B5FFF780FF10BD000003480021016041608160C16070470000D8110020024610B5FF20002A0CD0FFF7EFFF064C0321207B0843207310010A21AE
:40308000FFF718F82060002010BD0000D811002000B504480A21806848430209FFF7D8FF104600BDD81100200248007B8007C00F70470000D811002010B54B490868002835
:4030C00002DA4A4B01221A70022290430860484800694549C00B4031096A0246C907C90F0A4259D0012000F097FA3F480E216C30FEF754FD3E4820218430FEF74FFD3C483E
:4031000014219C30FEF74AFD3948FF21C131A430FEF744FD3648FF212F31B030FEF73EFD33483449BC30FEF739FD31483249AC30FEF734FD30492E48491CB430FEF72EFD4A
:403140002B482E49B830FEF729FD29482C49CC30FEF724FD26482B490830FEF71FFD24482949A830FEF71AFD214828498830FEF715FD1F4826498C30FEF710FD1C481921B2
:40318000C9029030FEF70AFDFEF718FDFEF728FEC0B2022812D01FE000290BD0002101420AD0114801216030FEF7F8FC0120FEF7DFFD97E70121F2E7FF2010BD154916489D
:4031C000FEF7ECFC14481549001DFEF7E7FC124800210830FEF7E2FC54200449C043891C0870002010BD000000F02E40540D002000002E40320300002F3F000031020000CC
:4032000010520000EC160000FA12000031D000003AE300009956000080012E40F80F000070B50646581C80B245086D00002408E0304600F0C1F81055000A1119A41C48700E
:40324000A4B2AC42F4D3D80705D0D0182038D15CC47FD454C17770BD30B50A4C002100195B1E07E0541864782502545C2C430480891C89B29942F5DB994201D1515C018005
:4032800030BD000000102E4010B5FF2000F0C4F90F49FF2048700E481021801D41800121417001700A490020C91C4870FFF704FF04000AD100F010F907210648FEF75EFC14
:4032C000044807211830FEF759FC204610BD0000540D0020CC112E4070B5002405465B1E0AE0284600F068F8010A161971702D1D1055A41CADB2A4B29C42F2DB9C4203D178
:40330000284600F059F8105570BD000070B500210A4D5B1E0AE0541864782602545C344346193480001D891C80B289B29942F2DB994202D1515C4019018070BD00102E40EB
:40334000F0B50599091FCFB200217E1E0BE0541864782502545C2C43164D45192C80001D891C80B289B2B142F1DBFC0712D01C78515C24020F4A0C4381180C809C785D78CE
:40338000001D210280B2294384182180001D80B2D9780CE059781A7809021143054A84182180001DD9789B78090280B2194380180180F0BD00102E400149401800887047D9
:4033C00000102E4010B50B490020487000F084F8002000F047F9002000F034F907210648FEF7CCFB044807211830FEF7C7FB002010BD0000570D0020CC112E4010B50B46EE
:40340000062812D006DC01280CD0032801D1FFF7D9FF10BD0A28FCD00B28FAD105480078107010BDFFF730FF10BD1146184600F035F910BD5A0D0020F8B5244DAC6A01277A
:40344000A007234E002816DA307806280ED1286A384328621F480069F903084381B21D481030FEF79BFB042000F0D6F8174802212830FEF783FBE00718D000F01FFF012821
:403480000FD1002000F06CFF062000F0C5F81049FF20C91E48707078002802D1686B384368630A4801212830FEF768FBE0050BD53078042802D1052000F0AEF80348FF2115
:4034C00001312830FEF75AFBF8BD000040F02E40570D002000002E4010B503212348FEF75DFB0120FEF734FC20483038406A204C80076178800F890001431C480C38FEF78D
:403500004DFB6078002808D0401E022181401820FEF7BAFEC000083800E0B82081B21548FEF73CFB1348032109021438FEF736FB10481149B830FEF731FB612189010F48B6
:40354000FEF72CFB0D480321001FFEF727FB0C490C48FEF723FB0B480B496038FEF71EFB084801218838FEF719FB10BD70F02E405A0D0020D8102E4090890000041E2E401B
:40358000FF0F000058122E40209000000848017806290BD140780749002803D1486B400840004863C86A01221043C86270470000570D002040F02E40014800787047000094
:4035C000570D002000B50300FFF7AEF8080D050D0B070507090D012000BD032000BD042000BD022000BDFF2000BD0000074A9168D26889B2064B92B2994204D105498A4220
:4036000001D1012100E000210170704780002E4033D000003FE3000010B50446FEF7BCFB072C01D9FF2C01D102480470FEF7ACFB10BD0000570D0020014948707047000031
:40364000540D002010B5064A012805D01921C9021046FEF7A3FA10BD1D21C902F8E7000090002E4010B50A4A141D012808D009491046FEF793FA08492046FEF78FFA10BD9F
:4036800004491046891CFEF789FA0349491DF3E788002E4031D000003AE3000070B50C460546FEF79DFBC0B202280E49287804D0FF2810D04C280CD810E0FF2809D10A4A50
:4036C000D0680004800F032801D0087807E09069000A553803E00878207070BD4F382070087070BD560D002000002E40F0B50122002834D0002932D00424420600D00524B7
:40370000792342065B06D21800D0641C034600221EE00C2516466E43124D00277519AF72104F002ABB51696007D0661EB24209D10D4E86197606760E05E05E06760E802739
:40374000BE1B00E080269B198919521C2E81D2B2A242DED303480549006B002288611046F0BD00006414002079020000600D002018B50020694608700A48006900280ED0D7
:40378000132149014018047E684604704F21C900054800F05BF8A04201D0012018BD002018BD0000600D0020E8110020074900200C2242435218927A012A05D0401CC0B21B
:4037C0000628F5D3002070470120704764140020F8B50F000446164609D01A4D1A496868A04202D94018A04201D38E4201D90120F8BD39462046FEF779FD002820D032468C
:4038000039462046FEF781FD0E49F0B2012620318E7600210C220B4653430A4A9A1813895568EF18A74207D9641B1B1B9672834206DAC01A1469C0B2491CC9B20629E9D360
:403840000020F8BD6414002079020000034610B50020024604E09C5C2018521CC0B292B28A42F8D310BD000070B500F05FF8084C064A216907480D46FEF747FD054928461D
:40388000FFF734FFFFF774FF207070BD79020000600D0020E8110020002070470020054A002902D0012902D002E0906000E0D06000207047600D002070B5084C15460846F3
:4038C0000549E26889182A46FEF71FFDE0684019E06028B270BD0000E8110020600D00203EB50A226946FFF7E7FF044606480A2200686946FEF7FAFC002802D00020C043F3
:403900003EBD20463EBD0000640D0020002802D0044A914201D2FF20704703494A6108610020704779020000600D0020024800218160C16070470000600D002070B5074C6E
:4039400015460548A26880182A46FFF741FFA0684019A06028B270BDE8110020600D002010B503490A220968FFF7E8FF10BD0000640D002010B50F4A002313600E4A1360E1
:403980000E4B18600E4801600E49012008600E490860000290600E490C4808600D4914300860FF381538506000F0BCF800F0CAF9002010BD940D00207C0D0020A80D002022
:4039C000AC0D0020980D0020880D0020AC1500208C0D0020A00D0020014610B50020002910D0094B1A689C685118A14209D25868196080188A0704D08A07920F891A091DA6
:403A0000196010BD002010BD7C0D0020F8B50024164E671E321F3D463168136806E01422624310328A58521C1BD0641C9C42F6D36A1C14D02C461422544322460C3288507C
:403A40000C214843FFF7C8FF3168002808510AD031680020103408517068401C70602846F8BD2546E4E73846F8BD00008C0D0020F3B50026F64381B000281BDB1E49096810
:403A8000884217D80299002914D01B4F142204463F1D54432546396810354859401C09D0FEF77AF938682F1F4159C359994203DBFEF76AF93046FEBD214608310091465884
:403AC00001590C20704308180C220299FEF71DFC0948761C001D0068C159B14200D100260549009A091D865008684159491C4151FEF74AF90020FEBD880D0020002803DB77
:403B000007490968884202D90020C043704704491422091D096850431030085870470000880D0020F0B500200D4A451E0346171F50600FE014260146714314680E1DA3511F
:403B40000C461668083433511668083435511468401C635039688842ECD30020F0BD00008C0D0020F3B50026F64381B0002841DB2349096888423DD8029900293AD0204FC5
:403B8000142204463F1D54432546396810354859401C2FD0FEF700F93868415900292BD0211D009146580C21005971430F46C1190C220298FEF7A9FB11480021001D0068C3
:403BC000761C00590C34C0190160416081600C48001D00680159B14200D100260849009A091D865008684159491E4151FEF7CCF80020FEBD3046FEBDFEF7C6F8FAE700007E
:403C0000880D0020FEB504460D4600201E49089E0860471E009001900290002C11D0486885420ED2002A0CD0002E0AD0642E08D808460C3001681C2068430C18207A00282E
:403C400001D03846FEBD0120226020721846FFF7DDFE6060401C13D06681A6810A4827610C3067610179A94200D205710021684601810A462846029B00F040F82846FEBD41
:403C800000202072DDE70000940D002038B50124009400F039F838BDFEB50027164EFF433D4600240EE01C20316860430818017A002906D04068FFF721FF002801D02546C8
:403CC00003E0641C3079A042EDDA681C12D01C2130684D434419FEF75FF869466068FFF741FF0546FEF750F8002DD9D1216868468847D5E7FEBD0000A00D002038B5002434
:403D0000009400F001F838BD1FB500220C49541E0A60002811DB496888420ED808491C220C31096850430818406801A9FFF7A0FE401C02D0002004B010BD2046FBE7000088
:403D4000940D0020F0B50021114A4D1E174611710C3F0B46BD6016E008461C2460431668041D355114680646235014680836A3551468361DA353044616680A34335318308C
:403D80001468491C255078688142E5D30020F0BDA00D002038B500210091002811DB0F49097888420DDA0D4D04010C3529680859002807D0201D0818694600F06FF900285E
:403DC00001D0002038BDFDF7E7FF28680F34015D491E0155FDF7D8FF009838BDB00D0020F7B582B0002502986E1E06602E48D21C024017462D4A2C4610460C3801781068DA
:403E000005E02301C358002B0FD0641CE4B28C42F7D3711C28D03401211D40180191039900F02AF900281FD101E02646F1E71F48016820460C300F521C4803990268204635
:403E40000E30115419480399026820460F3011540398784300F0A0F8144900280968085102D00024009011E001251AE00F48016801980818009900F02CF9002801D0012524
:403E800002E00098C0190090641CE4B203988442ECD3002D05D10298066004480179491C0171284605B0F0BDFCFF0000BC0D0020F8B50D4600216A468C461180002839DB25
:403EC00023490978884235DA214B04010C3319680A59002A2ED020460C300B5A801C0E5C184670438018954224D3854222D2002006E007465F43BF18AF4206D0401CC0B2A0
:403F0000B042F6D36046002814D0114E271DC8190C366A46294600F006F900280AD168460088012808D030682946C01900F0D1F8002803D00120F8BD0020F8BDFDF72CFFA8
:403F400030680F34015D491C0155FDF71DFFF3E7B00D0020F8B50F46002400F031F8002817D10C4900220B460C334A600EE021011D680E466A501D680C36AA53B61C1D68C8
:403F80000F31AA551D68641C6A54E4B2BC42EED31A71F8BDB00D002000280BD0C01C074A81085068890053884118994203D89368516018187047002070470000B00D002062
:403FC000F8B5064600200F4D009029700C0121466846FEF747FC00280CD129460C3100980860301B001F84B221466846FEF73AFC002801D0FF20F8BD6C800098A8600020BF
:40400000F8BD0000B00D0020F8B5002827DB19490978884223DA174C05010C342168485900281CD028460C30085A009028460E300E5C401C0E5420682F1DC01900F064F81D
:4040400000280CD12068002445590EE0094829460C300068C01900F03CF8002801D00120F8BD00982D18641CE4B2B442EED30020F8BD0000B00D002030B50D4604000BD060
:40408000A800FFF789FF6060002805D000202570C0436080002030BD012030BD70B50D46040005D0002D03D00220205E002801DA012070BDFDF770FE0221615E6068890093
:4040C000405828606088401E6080FDF75DFE002070BD70B50D46040007D0002D05D002212078615E401E814201DB012070BDFDF753FE6088401C00B26080616880000D5003
:40410000FDF742FE002070BD10B5040009D0227800216068FEF702F90020C0436080002010BD012010BDF0B500231D46002802D00224045F0AE00120F0BD46689F00F65909
:404140008E4201D1012503E05B1CDBB29C42F4DA15700020F0BD00000148007870470000C40D00207CB505460024FEF70FF9A8796946087000A8062229460130FEF7C5F822
:404180000021684604F05EFD0C2806D0072806D01F2806D0122806D006E0022404E0042402E0272400E0012420467CBD0148012141727047E816002010B500F05FF9FFF7C6
:4041C000FBF9FFF7FFF910BD70B504460025FEF7DDF8002C06D0A079012803D8214602F0C9FC00E00125284670BD01460120002902D050200880002070470000014601203A
:40420000002905D003485422007850430880002070470000C60D002010B502460D49FE204870032410460DF039FB002810D10DF0DDFA00280CD105F0E1FA002808D100F0D8
:40424000F9FA002804D104F0A3FF002800D10024204610BDC40D002070B50025044600280ED0A07901280BD8FEF790F8A0790028204602D003F010F803E002F0E5FF00E02E
:404280000125284670BD0000014610B50120002904D006220248FEF738F8002010BD0000D00D002001460120002903D0087802490870002070470000C60D00200148007A5E
:4042C00070470000E816002038B504460120002C20D0617801291DD800290BD0FF25E535FEF754F80C4828180088C0B22070072803D00EE0FF25CD35F2E7002069460870A6
:404300006846FFF773F969460878012801D108202070002038BD000000102E40014A002192681047C40D002008B500226B461A7026280CD0094A342852680BD0352805D18F
:40434000900703D50021352005F034FB08BD19462620F9E7D007F9D03420F5E7C40D00200149087270470000E8160020F8B504460120002C26D06178012902D92278092AAB
:4043800020D8002905D0FF25E5352078092803D004E0FF25CD35F8E708202070FDF7F6FF2078114F114E08280DD00020FFF75AF970780128207810D00D4969180880FE20D0
:4043C00070700020F8BD0120FFF74CF90720B8810549203188800120F2E7B8810248217820308180EBE70000C0112E40C40D002000102E4070B50E46050001D0002400E06B
:404400000C4C002C11D0E28A500609D5D107C90F022002F0D5FFE08A40218843E08204E0D107C90F012002F0CBFF3146284602F0AFFC70BD48160020F8B5054600200446E7
:404440000D4E009013E022466946284601F004F80098002801D00DF003FAA878214602F0F1FAA878214602F0DFFA641CE4B2308AA042E8D8F8BD00001417002038B51E4CE2
:40448000FFF79AF8042813D0052811D0062812D003282AD007280AD100206946087002460120FEF7ABFFFFF787F80128FBD138BD00F09CFB38BD02F01BFB00F097FB02F072
:4044C0007BFB8007800F0228F4D10C4841880029F0D05B21095D0029ECD101210170A07D0140022002F06CFF38BD02F005FB0120FFF792F838BD000048160020EA0D0020F1
:40450000F8B50646002402F0C9FF0546304602F0DFFF03460A480021068A0DE001228A401046174628401F40002803D0002F01D1224394B2491CC9B28E42EFD82046F8BD3A
:40454000141700201CB50020694648706846FFF7BBFE01AA69460A20FEF750FF6946042008561CBD70B50D4601F05CFB04000BD02079002808D0FDF709FFE178A0782A4654
:4045800002F08CFC002070BD022070BD01480079704700001C1600204030C07E002800D00120704700B500F001F800BD902148430749084A40186030417F491CC9B2417723
:4045C000D289914201D300214177C8B270470000281600201417002013B501F023FB04000BD001F0C0FE002807D0214601AA0A310620FEF703FF00201CBD02201CBD000044
:4046000010B50C4601F00EFB00280AD001F0ABFE002806D0224604490A20FEF7EFFE002010BD022010BD000009160020F3B581B0074601460026029802F028FF0446002F34
:4046400001D0002500E0154D002D21D0284601F01FFB032C04D13946029802F073FF06463846029902F0E0F9032C06D0002C10D00121384601F012FC03E03146384603F03F
:4046800071F9284602F0C4F80221284602F0DAF8FEBD3846029902F0C7F9FEBD4816002010B5044600F04CFA002804D103F03CFE002801D00C2010BD2078611C02F0F4FC08
:4046C000FF2801D01F2010BD02F03AFDFF280AD02178621C02F036F9044821780068026B601C904710BD072010BD0000100E002010B503F019FE002801D00C2010BD02F095
:40470000B5FC03480068C06A8047002010BD0000100E002070B50D46044610210CF0E0FF1021601806460CF0DBFF334610221946204603F027FE102130460CF0D1FF022043
:404740002870204604F05AFC70BD0000FEB504464078217802028006870FE0781143A5780E050002360D0543304601F05BFAEAB23B4621460096019000F0FAF90006000E8F
:4047800014D10B48224600680199436928469847C0B2FF280AD10198EAB24030817EFF23491C81762146019800F0E1F8FEBD00002C0E00200020704710B5044603F0B4FD60
:4047C000002801D00C2010BD2078611C02F06CFCFF2808D002F0A0FB044821780068426B601C904710BD1F2010BD0000100E002010B500F06BF904F0CBFC002010BD10B5E2
:40480000044600786178E2780843A17811430843217908436179084305D003F077FD002803D00C2010BD122010BD204602F034FD002010BD10B5FDF7D3FA02F051FE0448BE
:4048400003F0DEFD02F072FB012000F003F810BDF0150020F1B586B003A8009005A8019028489F22017B114001736846FDF7A8FD002845D169460989C90705D022480699D2
:404880000068C2686846904769460989890706D5002835D11D480068816A0698884700282ED11B4E0025757075737571F575357675767575B570F570B5713746F5730120DA
:4048C000D03738731F20F880FF2130467972A0300176457600F008FB00242046069901F0EDFC002803D1641C2406240EF5D0FD720749BD72B573C0310D704D704D600D72CC
:4049000007B0F0BDDC1500202C0E0020100E00202816002070B505460E46084602F0BEFD0446304602F0D4FD0121A9400A46224001400A4301D0012070BD002070BD10B54E
:404940000446084602F0C4FD0121A140014201D0012010BD002010BD10B5FEF72DFE032804D102F0C9F80120FEF756FE10BDFEB51C4616460F46054601F04AFFA878FFF7CA
:4049800011FE02460190334639460094284600F00DF8002808D1A8780199FFF72BFDFF2C02D138460CF05CFFFEBD0000FFB585B005460E980C46FF2810D02B49C0000968E1
:4049C0000A5840180179C0795278814201D9012601E09006860F6846038108E06078A1788006860FE0780002014368460181284601F0C4FC070007D021462846079A00F059
:404A0000BFFC384609B0F0BD304600F06DFD04AE0346039002AA29460096204600F0F9FB3C20405D002818D0284601F0A7FC012813D0684600890096C0B20190A878231D37
:404A4000FF22079902F058F968460089039BC2B2A878079902F09CFCD3E7684600890021C0B20091E9E70000280E0020F8B5002600253046FFF744FD07001DD090201149C1
:404A8000704340186030447F12E0601CFDF712FBCCB23846E040C007C00F07D02146304601F0BAFF21463046FFF7C0FD6D1CEDB20548018AA942E8D8761C3606360ED7D025
:404AC000F8BD0000281600201417002010B502F02DFA0020FFF7BEFE0CF058FF002010BDF8B5002400F0F0F80123012800D10124104F00203E4620360425082203E00028C5
:404B000001D0002100E031460979002907D001290BD002290BD0114681402143CCB2401C0006000EEBD07C70F8BD1C43F7E72C43F5E700002816002010B5FFF7D1FF10BD9B
:404B400010B5044604F076FC002802D1601C00F001F810BD1CB500240094062269460194FDF7C4FB002800D1122420461CBD0000F8B5044600201E4617460D46002C12D044
:404B8000002D10D0022E0ED0032E0CD0002F0AD02179092907D0002905D013494A7F5A21095D8A4207D82089002104F05CF928460CF056FEFF20E18F012905D1002F03D010
:404BC000012E06D0002E04D0374301D10121E187F8BD0021E187069A2A70069A120A6A70AF70E970F8BD0000DC15002010B5FCF7A4FF0446FEF7E0FC012809D0FEF7DCFC47
:404C0000022805D0FCF7A0FF2046FCF79AFFEEE72046FCF796FF10BD10B50B4681791943817103D08078114602F080FB10BD10B582798A43827102D1807802F08BFB10BD17
:404C400030B50C4C0220A28A0B4B9978002901D0022906D11D785B78EB18282B01D9032002E0032900D101205105490DC0020143A18230BDC0112E40E00D002000B500F0D8
:404C800029F8002807D0012805D0032801D0042801D0002000BD012000BD014600B50020C90701D000F010F800BD014600B50020C90701D000F008F800BD00000148006895
:404CC00070470000D80D002001480088000A704720102E400448008B410501D5042070474007800F7047000000102E400148406870470000D80D00207CB5044600256846F4
:404D00000570200610D5FFF7E5FF01280CD101A801F0F8FE6846007900F036FB012001F0DFFD0220FFF708FF600712D50C48017901290ED10571684601F0E4FE68460078EC
:404D400000F056FB0220FFF7F7FE00212620FFF7EBFA044800680169204688477CBD0000E40D0020100E002010B501460A4A007800241070FFF7A8FF0128084603D002F073
:404D8000F7F9204610BD00F0E7F80400F9D1034801210170F5E70000E00D0020E816002070B50446FFF790FF002801D00C2070BDA27B01211F48002A827801D00A4301E03F
:404DC0005208520082706279012A14D0C17849084900C170184D2868016820468847207901280CD06188208803F04CF82080207904280FD015E0C2780A43C270EAE72868DB
:404E0000C168E01D8847E01D02F032FA0B48008D208006E02868C168E01D8847E01D02F027FA074920798870204602F0AFF9002070BD000028160020100E0020DC1500208C
:404E4000E00D002008B50178FFF73EFF814201D10C2008BD002914D0072069460870FFF70DFF012807D10121684600F0E5F8012801D0092008BDFFF7E3FE02F0BBF90120B5
:404E800011E0FFF7FBFE012806D1684601F03AFE6846007800F0ACFA02F0A2F9FFF714FF0028FBD10220FFF747FE002008BD000010B501460A4A007800245070FFF704FFFE
:404EC0000128084603D002F011FA204610BD00F065F80400F9D1034801214170F5E70000E00D0020E816002038B568460CF04EFC002801D01F2038BD01210098C9020180E4
:404F00004180002505714571857107214173857302F03CF9009C202200212046FDF7FEF925702A460021601CFDF7F8F9204602F01FF9204602F0DAF900980CF091FC0622B3
:404F400000210448FDF7EAF902480C388560002038BD0000E40D0020F8B5044600250D4800950078012806D068460CF00FFC002803D007250CE00C250AE0074E0098306077
:404F80002278611C401CFDF7C0F93168207808702846F8BDE8160020D80D0020F8B5044600250D4800954078012806D068460CF0EDFB002803D007250CE00C250AE0074E10
:404FC000009870602278611C401CFDF79EF97168207808702846F8BDE8160020D80D00200346084800B5834209D8184600F01AFE002804D00089984201D1012000BD002093
:4050000000BD0000FF0E0000074A9179491C8906890E917138220A4092014907090E1143084302490840704728160020FF0E0000C006C00E70470000F8B507460E4600240F
:405040000D4803E0002C01D0002500E005462979002905D0641C2406240EF3D00020F8BD0021204601F02AF92E712046FFF7CCFF28813C700120F8BD4816002010B503F0D5
:40508000B5F90222002100F003F801F0FBFE10BD10B5094B40074907000F090F185A595A40185043C0086421FDF704F8002800D1012080B210BD0000983A0100F7B53D2042
:4050C000405C88B015460C46002802D02878042802D200200BB0F0BD6946087200262046FFF75AFA012800D00126204603A938300191009023460327A17E34333246206A37
:4051000003F098F902A8089900900B46019120463A4603A9243003F015F902466846007A2870204601F0B6F81046D3E7FFB587B00C4605461078694608723D20005D1746D9
:40514000002826D000262046FFF726FA012800D00126204603A93830019100902346A17E34333246206A03F065F902A80090291D019120462B1D03A924300A9A03F0E2F840
:4051800002006846007A388002D1204601F082F810460BB0F0BDF0B505463C20405C89B016460C4600280CD0307869460873002806D000272046FFF7EFF9012803D003E0BE
:4051C0001F2009B0F0BD012703200890204604A93830019100902346E17E34333A46E06903F028F96846007B03A928180290009120462B46019504A92430089A03F0D6F875
:4052000002466846007B3070204601F04DF81046D7E7FFB505463C20405C89B016460C46002810D0084601F0A9F801280BD0308869468883002809D000272046FFF7ACF948
:40524000012805D005E000200DB0F0BD0220FBE70127204603A93830019100902346E17E34333A46E06903F0E5F8291D2B1D07A8129A6D4607C5204603A924300C9A03F0CA
:4052800095F802466846808B3080204601F00CF81046D9E770B50D460446FFF77DF901280AD0E87AA97A00020143A07801F0E6FC012808D0002070BD00222421204602F04B
:4052C00027FD242070BD28214C200155204600F0B1FB282070BD0000002801D0002000E003484030C07F012800D0002070470000481600200146002049070ED50021084B48
:4053000003E0002901D0002200E01A461279022A04D0491C0906090EF3D0704701207047481600200146002049070ED50021084B03E0002901D0002200E01A461279022A44
:4053400004D0491C0906090EF3D07047012070474816002010B5044680346068002803D00CF092FA0020606010BD4030417070474030817070474030017070470171704792
:4053800092001018C166704770B53C2501F0C0F9040004D020460021433001F023FCFF222946204600F0E8FB002C02D0A07801F031F970BD10B5002801D0002000E0034813
:4053C000002802D0008903F095FD10BD4816002010B5002801D0002000E00448002804D00179072901D100F047F810BD4816002010B501F08DF9002802D0807801F00AF93C
:4054000010BD00207047000070B50546008A00281ED01049F122097B1140C90618D5294640314A8A098A521C4A4392B2D10800D10121540801E0621A94B2A042FBD9FEF7BF
:405440008BFE012804D1298AA878224601F0DCFC70BD0000DC15002010B50023054C0B60248A944204D992001018C26E0A60C36610BD00001417002038B5044600200090E2
:40548000A079002814D14020015D052901D00E290ED168460CF08AF9002809D12046009902F014FC03481021428B2046FFF7B4FB38BD0000DC15002010B50B4604460146C2
:4054C000184602F073F8002802D020460CF0D2F910BD13B5044601AA11460620FDF78EFF6846818861811CBD002800D10220704770470000F8B504462346401D5433009073
:405500009A1EA078911E01F019FB25464035A88A298A8000FCF7CEFD401E81B2688A884203D96982A07801F085FF698A8C20015120460021433001F055FB27480088E881B7
:4055400002F054FFE989891C8AB26179FFF7A0FD01F098FC02F04AFF2A8A6179FFF798FD074601F083FC688A002806D01B49088A032212021043088202E0002001F04EFF54
:405580001648803801886E8A002E0CD0304648431349FCF779FE0004000C01D0401C80B21049488002E00F4800214180288A704381B2A07801F0A8FEFF2228374932B9B22B
:4055C0001346204602F062FCE98AA07801F01CFEA07801F049FAF8BD80102E40E0112E4071020000EA0D00207FB504468034616805460E46183108226846FCF786FE314675
:405600002031082202A8FCF780FE102168460CF067F86068102108300CF062F860682B46083024331022694602F0ACFE7FBD10B504460821FFF7FBFA10212046FFF7F7FAF1
:40564000207905281FD006281DD008281AD12189002003F0C7FB072020712046FEF79CFF014620464030012913D00E21017000210176204600F0E0FF2046FFF76BFE204650
:40568000FFF7C2FE10BD20890122002103F08EFBE1E70521EAE70000FFB581B01F4604460821FFF7C4FA10212046FFF7C0FA2079082803D0092804D0042203E00422012591
:4056C00001E009220025204600F044FE264600204036307022712046FFF73CFE0398002D02D0012808D00BE001280AD120890022029903F05BFB04E02189029803F072FB55
:40570000012700203076012F04D0204600F094FF05B0F0BD02983073204602F025FB054605480121428B2046FFF776FA002DEFD109202071ECE70000DC15002070B50C4622
:405740000546FEF729FF012809D108212846FFF76EFA0023012221462846FFF79DFF70BD10B5044600F0F6FD2046FFF7F3FD00214034217010BD70B505461A24FEF70CFF10
:40578000012809D108212846FFF751FA0023012221462846FFF780FF70BD0000F8B50446002000900E4668460CF000F8002801D00D20F8BD8420005908212030009D00F0D6
:4057C0002CFA20460421383000F027FA002E02D1204600F0FBFD2946204602F002FA0E480821428B2046FFF717FA204600F095FF25464035002808D0204600F023F8002851
:4058000001D0092028700020F8BD08202870204600F0FEFFF7E70000DC150020014610B540310A460978082906D0092907D00A2901D100F091F810BD0B20107010BD00F0EE
:4058400001F810BD70B50446007925464035052805D0062803D008280FD00C2070BD03220621204602F054FA0D480821428B2046FFF7D2F91120287010E0062028732046EB
:4058800002F072FA0646AA8A0A20424301212046FFF7C2F9002E01D109202071002070BDDC15002038B504460020009068460BF07DFF002801D00D2038BD2046009D00F0F0
:4058C000C3F908202071204600F080FD2946204602F0BEF900213D2001550F2040210855204600F095FF002038BD00B5024600F031FD10214032117000BD10B50446FEF722
:405900004BFE012809D04020005D112805D100231A4606212046FFF7BFFE10BD10B5FFF786FE10BD38B504460021684600910BF03DFF00280CD12046009902F00AFA05489F
:405940000821428B2046FFF767F90D204034207038BD0000DC15002038B504460021684600910BF023FF002801D00D2038BD2046009902F0E3F905480821428B2046FFF703
:405980004BF90C2040342070002038BDDC15002000787047F8B5002569460D70002801D0002400E01F4C002C18D0204600F0DBFC002813D0207903280BD005280CD0264658
:4059C0004036B18AA07801F0A9FCB078012806D01DE0042020711DE006202071F8BD0021204601F000FE274680373868002802D00BF04AFF3D600020B0702079072802D116
:405A00002046FFF701FD0221204600F01BFF20790428E3D1207A694608703420FEF784FCF8BD00004816002010B54C22115400F052F810BD10B50446FF21FFF7F8F8092066
:405A40002071A07801F090FC10BD000038B5FF216A461180002801D0002400E00B4C002C12D011460620FDF7C9FC684601882046FFF72FFD204600F087FC002804D104486C
:405A80000068C1692046884738BD0000481600202C0E002010B504468079002809D022214C200155FF212046FFF7C1F8204600F012F810BD10B5037902464032002B03D0E9
:405AC0001173092B02D003E0002100E02221117300F001F810BDFEB504460089002700902781207926464036002817D0012815D002280AD112E002AA01A9204601F044FD59
:405B0000002807D101980BF0B5FE204601F064FD0028F0D02046FEF78FFCB776254680352868002802D00BF0AFFE2F606868002802D00BF0A9FE6F60317B002919D00098F9
:405B400000F064F8A078002100F0AAFF2046FFF795FAA07801F07CF8A07800F05BFDFF212046FFF764F80B20FEF7E6FF00F068FCFEBD1F213173E2E7F8B517460E460546FD
:405B800002F030FC04003CD020460C3001F01AF82046062200211830FCF7C0FB2046062200211230FCF7BAFB1648224600683946436A28469847074626702846FEF7ECFCFF
:405BC000012148406070002D10D02889608028464030C1782171002E0FD169796171018AE180418A2181808A608106E00648008BC005C00F2071002060803946204603F022
:405C000074F8F8BD100E002000102E400A4610B50146002003F086F910BD10B50BF03CFB10BD000000B50146FFF702FA002801D0002000E00348002802D002898A4200D0B5
:405C4000002000BD4816002038B5044680346068002806D168460BF0B9FD002801D100986060606838BD000010B5014600F086FB0128887802D0FEF799FC10BD902148439E
:405C8000024940186030007F10BD00002816002070B5054604464035A87F012811D1A1789020084A484380186030067F3046FEF731FE002805D10220A877A078314601F0FA
:405CC00071F870BD2816002010B50C4CA07A002813D0FEF7CBFE0A48027F417F408B00F0B7FB012809D10020A07200F021FF05498989090B01D000F03BFA10BDF816002006
:405D000028160020A0102E4070477047490510B5490F0B00FCF708FD060704080C0C0F073E21FFF781FE10BD0821FFF7C3FE10BDFFF7D1FE10BDFFF7ADFE10BDF8B507467C
:405D40000025002D01D0002600E0204E00F0BEFE3046403044890021418100F0C1FE304600F001FB01282BD1A00702D52846FFF711FEE00602D52846FFF768FEA00601D520
:405D8000FEF774FE600601D500F014FB200602D5284600F01DF8600702D5284600F02CFA380402D52846FFF713FB780402D52846FFF700FBE00703D021463046FFF7A6FFA6
:405DC0006D1C2D062D0EBCD0F8BD000048160020F8B5002801D0002400E0284C002C4BD025464035A878012846D1FF278820493700593E46002805D02149097B890601D5CD
:405E0000878AC68A2046FEF7C7FB012834D002F0EDFA2A8A6179FFF73BF9009001F026F800983346283081B23A46204602F02EF8E98AA07801F0E8F912480188688A124E5B
:405E4000002810D048431149FCF71EFA0004000C01D0401C80B27080A07DC107C90F002001F0AEFA01E000207080288A698A484381B2A07801F048FAF8BD00004816002083
:405E8000DC15002060112E40EA0D00207102000001490968096808472C0E002070B50D460026194A0146002801D0002401E014462034002C26D0204600F060FA01280AD1C9
:405EC0009020484380186030007FFEF723FD002801D101F0C9FE0D48006881692046884700280CD020464030817EA94202D3491B817600E086762089294602F0B4FF20462A
:405F000000F086FC70BD0000281600202C0E002070B503460088FFF785FE040013D000F022FA00280FD02079092819D02546997840352973204601F017FF0646A87801285F
:405F400003D0AA8A02E0022070BDEA880A20424301212046FEF760FE002E01D109202071002070BD0EB5002217216B460292198100905A810120029B00990BF025FD0EBD40
:405F8000F8B518480024807A002822D1164E0025B089000B22E0204600F034FE1249A039401807882A462146384600F051FA012810D00E480122478305770A4944778A72C7
:405FC000002D01D0002000E02030002801D000F01FFCF8BDB089000B641CE4B20028DAD1F8BD0000F8160020A0102E402816002010B50088FFF716FE002809D001464031FE
:406000000C460978082905D00B2903D00C2010BD022010BDFFF716FC002801D009202070002010BD70B503460088FFF7FBFD040008D0254640352878082805D00B2803D0A6
:406040000C2070BD022070BD8420005910220830991CFCF75AF92046FFF7C6FA2878082804D02046FFF778FC002801D00A202870204600F0CDFB002070BD000010B50C4649
:40608000002121700088FFF7CDFD03000BD000F06AF9002807D00948F121007B0840C00603D4112010BD022010BD022020701A8A1889002102F052FF002010BDDC150020AD
:4060C000F8B50F46002100910088FFF7ABFD040012D000F048F900280ED0E079410641D4617E02264A07002A08DB8907402500291ADA2843E07135E00220F8BD02F072F978
:406100000021017021894180A1898180217E4170E189C1803E7005460178134802F0ECFB284602F0BFFE1DE0204600F02DF9012806D068460BF03AFB002803D00720F8BD4C
:406140002A20F8BDE07900992843E071204601F035FE607E0421304360760448428B2046FEF75AFD0020F8BD1D040000DC1500203EB500220F236C46029223810091019077
:40618000628169460EC900200BF01EFC3EBD0000F8B50F46054600F0BBFA040025D003202071254600264035EE76E6702046FFF7A1F901F015F80920FEF7BEFCA07800F013
:4061C00035FD0121204600F03DFB2E706E70AE703A4600212046FFF7CFFC0649887B401C8873A078FFF754FEF8BD284601F0BCF8F8BD00002816002010B5002801D0002099
:4062000000E0094800280DD0014640310A464978022901D100215170807DC107C90F002001F0CEF810BD00004816002070B503460D460088FFF7F6FC04000BD000F093F836
:40624000002807D01248F121007B0840C00603D4112070BD022070BD20464030418A008A491C41430804C10C5888884201D2122070BD20822079072802D12046FFF7C4F888
:40628000022028702089002102F090FE002070BDDC150020016A491C016204D1817E491C4906490E81767047C169491CC16104D1C17E491C4906490EC1767047F0B507460C
:4062C00087B003A8009005A800260D460190002F01D0002400E01B4C002C05D06846FCF76FF8002803D00BE0022007B0F0BD68460089C00704D1902200212046FCF70EF890
:40630000114829460068826820469047050016D1A77066762746267140373E70204600F019F8204601F054F9084820820848BE77007BF121084000D001202075E682E8B21F
:40634000D3E70000481600202C0E0020B80B0000DC150020002101628176C161C17620300177417770470079002805D0012803D0022801D001207047002070474030807F21
:40638000002800D00120704740300078002807D0012805D0052803D00E2801D0012070470020704710B5807801F092F8002800D0012010BD10B500F0BBFB03498989090B77
:4063C00001D0FFF7D5FE10BDA0102E4070B5054604464035A87F002825D1FF206075A0789021154A484380186030417F9023491CC9B24177A0785843104B8018DB89603030
:40640000994201D300214177A0789021484380186030467F0677A1783046FEF77BFA002802D00120A87770BD0220A877A078314600F0B8FC70BD000028160020141700206C
:406440000020401C0006000EFBD0002070470000F0B58707164685B0000ABF0F6A469080002E01D0002400E0684C002C1FD0084600F0C8FB03906846808800280DD0032F3B
:4064800016D0002000902089029068460BF05EF9002866D0002005B0F0BD5D490398401801882046FFF715F8304600F0E9FAAAE00020029002A80BF059F9002807D03D20C8
:4064C000005D0128F3D12046FFF7E4FE9BE068468388029F202B14D31F233A4600210398FCF79EFE684680881F3885B2012304AA00210398FCF794FE6D1E2D042D0CF5D1EE
:4065000004E03A4600210398FCF78AFE40490398401801882046FEF7DCFF304600F0B0FA01AA21463846FEF7C9FD002806D038460BF08CF93D204C21085533E0FE776946D0
:406540003878898801F092FC00283946204602D001F0B0F957E001F0C2FA38460BF076F951E06846009D83882A1D00210398FCF757FE27490398401801882046FEF7A9FFD5
:40658000304600F07DFA2046FFF7EDFE002805D026464036307E00281CD107E028460BF04BF930E02046FFF745FA2CE0012F09D0022F07D03D20005D0128EFD12046FFF7BA
:4065C00069FEEBE73B4601AA21462846FEF7AEFD002805D028460BF02FF93D203073E1E73846FEF785FF01460298287002980901000A0843687068468088A870000AE870FA
:406600002846FFF7AFFC012045E700004816002000102E4010B5074A917B002901D0491E91730021FFF74AFE002801D0002010BD012010BD28160020F8B50746064640372D
:40664000B87F00282DD0B078902100904843234945186035287F0099FEF771F901281ED0287F401CC4B21E48C089A04200D800240020B877FF276F772F77A8770246014601
:40668000009800F0FFFC717DFF2903D0304600F060FF777501F0E8FA0025114F19E00320B877F8BD00200090224669463046FEF7D3FE0099002904D0FF231A463046FEF7DF
:4066C00056F9641CF889E4B2A04200D800246D1CEDB2F889A842E5D8F8BD0000281600201417002010B502460021084B03E0002901D0002000E018460479944204D0491CE0
:406700000906090EF3D0002010BD00004816002000B50120FFF7E6FF00BD10B5044601F061FE2189018080346168416061682831816002F071FB10BDF7B50646087982B016
:406740000C46092807D0A078F0770846FFF716FE012806D010E030460BF08CF8022005B0F0BDA1789020294A484380186030007FFEF7D0F8012810D0A078FEF7ADFD01286C
:406780000BD037780121304601F016FA25462035062F38D00B2F0FD107E06846027C21463046FEF789FE0D20D9E72046FDF7F4FE012801D1002028772046FFF755FA05464A
:4067C00004AA21463046FEF7E6FC01205F2108556946097C002001910090A07833463A46294600F089FA69460A7CA0780323294600F0CEFDA0782946FDF7FCFD30460BF04E
:4068000039F80020ABE70120D5E700002816002010B502464032937F0021002B03D1927E002A00D00121064A927A002A00D000210279092A00D10121807800F0E1FD10BDB2
:40684000F816002070B50C460546FDF7A5FE00280BD1012C06D92879092806D02846FFF7A1FD0446002C02D004E0012402E0A87DC007FAD1A87DC107C90F204600F0A0FD35
:4068800070BD0000012807D0082804D104480282034808300180704701488038FAE70000A0102E40014908817047000000102E4010B50446FF20F130012C01D1FF20D530A1
:4068C000002200F0CFFD044A108A044980B2A0430880108210BD000000102E40EE0D0020034B198A034A89B2814311801982704700102E40EE0D002010B50446012802D02D
:40690000082C07D102E0FF20D53001E0FF20F13000F0A0FD0348018A034A89B221431180018210BD00102E40EE0D0020034B198A034A89B2014311801982704700102E403D
:40694000EE0D0020F8B505460120A84086B214460F46012231467C2000F084FD3A463146782000F07FFD6078267800020643E078A2780002024360792379000203430C200F
:4069800045430D2080010549281844182680001D44182280001D40180380F8BD00102E40CB065B0E0343480901021943D00108430121C902084301490881704780142E40BB
:4069C0004278037812021343084A1382C37880781B021843908248780B78000203431383C8788978000201439183704700142E40024A1080000C90801181704700142E409C
:406A0000044A002180180288491C89B21029FAD37047000000102E40024A10820148803081817047A0102E4010B5054A1082084600F03CFD024A0021A03A8018018010BDF2
:406A4000A0102E4010B50B46044600F005F819462046FFF7E1FF10BD024A10820148803001817047A0102E4010B504490882FF20002220211D3000F0F5FC10BDA0102E40DE
:406A8000000202494D3008807047000000102E400249888A0422904388827047C0112E4010B5084B074C0202A03B0029208202D075321A8010BD044900200880888076325F
:406AC000F7E70000A0102E40201A2E4000B5034908884880FFF704FF00BD0000EE0D002000B502484088FFF721FF00BDEE0D002010B5FCF74BFD10BD01495220088070474B
:406B000000102E4000210170704700000748808806492039098B884201D8081A03E00022D243101A401880B27047000020112E400148008AC0B27047A0102E4070B5084C7F
:406B4000049D2082074804890548603006880E8001891180808818806007400F287070BDA0102E40E0112E400148008970470000C0102E4000280FD00D4A108B0870000A08
:406B80004870908B8870000AC8700948203000880871000A48717047064A10880870000A487090888870000AC8701089F0E7000040102E40C0112E400148008A7047000041
:406BC000001A2E40064B1A8999891B8A0270120A42708170090AC1700371190A4171704760102E40012904D00549098BC90B017070470349403109898907C90FF7E700008E
:406C000000102E40014840897047000014170020044A10820448028980894843101880B270470000A0102E40141700209021074B414300B5C918FF2260314A770A770022CA
:406C40008A77114600F01EFA00BD00002816002090225043074A10B58018FF21603041770177002181770448C18EFF201D3000F0F1FB10BD28160020DC15002000B5044A8B
:406C80001082034880308088022200F003F800BDA0102E4010B50023884201D8081A03E00024E443201A4018044980B2884201D8824200D90123184610BD0000FF7F00005C
:406CC00070B55478157824022543D47888232602947834435679127936023243002900D09823044908820348A038181805808480028170BDA0102E40FFB581B014460D4618
:406D000007460A9E0B9BFFF783FF002E0AD0009333460021049AFCF713FB05484019C45505B0F0BD0021049AFCF7F0FAF5E70000F20D002070B502460448054D8088082475
:406D40002C800B460021FCF7E1FA70BD14170020A0142E4010B5212402466401044953200880102300212046FCF7D0FA10BD000000102E40417802780902044B0A431A8355
:406D8000C1788078090208439883704760142E40034A1082802001430148803001817047A0102E40054A1082044A6032908B0009000108439115084390837047A0102E407B
:406DC00030B500210F4B0A46012809D0032802D005280AD107E04021198102210A2204E004210C2201E004210D221882054C20342088C0B205460D42FAD022800021198224
:406E000030BD000080142E4010B5044607480482074801808280032189030820FFF76CFD200202497530A039088010BDA0102E40201A2E40054A1082044A60321183000219
:406E400002494B30A039088070470000A0102E40054A491E1082044A60321183000202494C30A03908807047A0102E400349884200D908460249088070470000FF0F000086
:406E800060112E400349884200D908460249888070470000FF0F000060112E408823002900D09823084908820748A038191808881070000A507088889070000AD070088968
:406EC0001071000A50717047A0102E4010B51446024606480B46C0880021FCF7FDF9012C02D103495420088010BD00001417002000102E40064A11880170090A4170918804
:406F00008170090AC1700349542008807047000080142E4000102E400121814010B589B200227C2000F09EFA10BD0000FEB5FF210120FFF7BDFCFF210820FFF7B9FC3020C1
:406F4000FFF7CEFC4148802101804148414D00784007400F022873D001286FD100202880002211460320FCF749FA3B4E3B49308E88823A4F002420373448A0300482B08F27
:406F800038822046FFF764FE641C2406240EF3D0314C3248403421882030018320462C3800F052F9B16970690191009069464879C021084369464871684600F06DF900F0C0
:406FC00055F8224FE088A03738832089B8831F496089C03188802148F18E203001802048002404823920FFF7A1FC184E532030801C490720088354203080E020FFF700FD3D
:40700000E820FFF7FDFCF020FFF7FAFC0020FEF735F813488482282101838015B8810F48403084815B203080094800784007400F022807D0012801D10B482880FEBDFFE731
:4070400003208CE70848C01CF7E7000000102E4014170020001F2E40DC150020C0112E40001A2E4080142E40E0230000044800218183018302497420603908807047000091
:4070800060102E40074B1882064B6033988B00090001084399158843002A01D11021484098837047A0102E40F3B50D2284B0920100924A780B78120213430393CA788B78D2
:4070C000120213434A790979FF20120211431A4A8C46918B9E460291118B01911649742260390A80154900220F7921E00121124B9140009C603BE3181D8889B21C881B8899
:40710000039E6E407546654064462E435C4026430CD1029B194209D00199D140CB070499DB0F8B4202D1104606B0F0BD521CD2B29742DBD8F8E7000060102E401C160020E8
:4071400030B50949FF208C8B084A00210125137905E02A468A40224204D0491CC9B28B42F7D830BD084630BD60102E401C16002010B50446E020FFF743FC20782246401CB2
:40718000C3B20021E020FCF767F810BD42790021012A02D901214171090342790A430179042914D049001143827B032A01D8D2001143427B52010A43817909021143012226
:4071C00052031143054A118300889083704711460122920211430222E5E7000000102E4000B50120FFF77CFB01494120088000BD00102E4000B50120FFF798FB0149402027
:40720000088000BD00102E40024A10820148603081817047A0102E4010B5044C208204488180028183815143018210BDA0102E40A0132E40034B1882024820388180028042
