:200000000040002011000000957200009572000008B507F047F90000F8B572B600248022D2
:20002000644D211CD2002C60634808F0B1FC8022211C6248D20008F0ABFC211C604B614899
:20004000CA5C5B185B781218023113701429F5D1EE225D4B12061A605C4A5D4B5D491A6099
:200060005D4A5E4B5E4E1A6099235E4A1B0413605D4A5E4F13605E4A002413605D4A1360F4
:200080005D4A116006215D4A13605D4A13780B431370D8225B4B12041A6060235A4A5B4909
:2000A00013605B4A11605B4AC42113601D225A4B89021A60594A5A4B1A602423594A1360B2
:2000C000594A1160594A1360123B336007F0BCFE182007F039FD564A564B02211A6080237F
:2000E000554ADB053B601368FA200B431360534A534BC0001A600822524B1C602B6893436F
:200100002B6007F0BDFD504807F0B0FDB8214F4B4F4A1C604F4B49011A604F4A0120146053
:200120004E4A1A604E4A14604E4A1A604E4A14604E4A1A604E4A1160C0214E4A09011A606B
:200140004D4A11604D4A1A604D4A14604D4A1A6082224D4B12061A6043224C4B1C604C4B8D
:200160001A604C4B033A1A604B4B02321A604B4B013A1A604A4B04321A604A4B013A1A6099
:20018000494B3C321A608023DB053B601123474A33600E3B1360464A13608022454B120664
:2001A0001A600422444B1A60444B1C6007F064F8F8BDC0466CF02E4000300F4000400F40A5
:2001C000A2E7010000420F400000024000009999000102400000E1010333030000020240EE
:2001E000300010400003024000500F400C020B4010500F4020500F4028500F4030500F403E
:2002000000700F40080004400001044000103B00080104401801044000020440C77F00000D
:20022000080204400003044008030440180304400600008004010B4078002E402D3E000054
:200240007C002E4064F02E40DC0500000C03014043FF0080000001400003014040FF0080BB
:200260000803014042FF00800403014041FF00801403014045FF00801003014044FF008036
:200280000004014080FF008008010B4000010B402801014024010140200101401C010140EA
:2002A000180101400801014004010140300030403000314000003A4000033A40000E3F408F
:2002C00010B5064C2378002B07D1054B002B02D0044800E000BF0123237010BD381C002039
:2002E00000000000A0D7010008B5084B002B03D00748084900E000BF07480368002B00D183
:2003000008BD064B002BFBD09847F9E700000000A0D701003C1C0020581800200000000092
:20032000F0B5012785B00A9C0C9E01920C33019A97424ED21D1C2A780C33824202D001371D
:20034000FFB2F4E70A2900D983E0081C08F0FEF83F3F878706062D0D1708850004217FE096
:200360002B8902201B0A637000E001202B89201823702A89696808F0EEFA2B8924E0298961
:20038000A21C0131491089B20B0A637021700023686801F0A7FB384B984201D1374869E0E3
:2003A000637822781B0213430EE02989002301314910C9B22170621C89B2686801F092FBF4
:2003C0002D4B9842EAD023780B9A13803FE0012146E0002E3FD002AB9D1D00232B800A2932
:2003E00037D8081C08F0B2F81F1F212123230E0E06061D00281C311C022208F0ACFA2B8817
:2004000002330CE01E4B9E4202D01E4B9E4204D1F37F23702B8001340BE0337801332B8028
:2004200007E00623FBE70123F9E70223F7E70423F5E72A88002A0AD0134B201C9E4203D1BC
:20044000002108F0A5FA02E0311C08F084FA002010E00E480EE00E480CE0062100E002217F
:20046000012389B26868221C01F03CFB024B9842EDD193E705B0F0BDFFFF00000E02000018
:200480006601002086010020C1000020020200000D020000F0B50D1C002485B01668019202
:2004A0006F1A87424ADA2A78252A3ED1821E974202DB0020188044E020226F7897434D2F15
:2004C0003AD1AF78313F052F36D81F88012FF0D91D4A023F94461F80AF78D71B1B4ABF1822
:2004E00062460392372294463F783F09BC44092F01D83037BC4662463270B21C0292AF7840
:20050000039AD71B114ABF183A780F27174037229446BC44092F01D83037BC466246023450
:200520007270A4B20235029E06E032701F880134013FA4B21F8001360135B1E7201C019B36
:200540001E6005B0F0BDC0465C030020EE0400000278042351B2002904DA43780649CB5C68
:200560000433DBB2920604D5427803498A5C9B18DBB2C0187047C04604E4010070B50F2543
:2005800000268379447907332540C0182409AE4204D00136FFF7DCFFF6B2F8E76400001908
:2005A00070BD0000F0B58BB0141C0790101CCB2204915200002108F0EBF940235B422370D7
:2005C00000236370013BA370E370049B1A895B6805939B18013B1B78242B06D1049B013A64
:2005E0001A8110222378134323700027049B414D5B6805936B79E91D0693AE790598321C66
:2006000008F0D5F9002869D1049B1B89B34265D10F23069ABFB21A40231D05939023FF33EA
:20062000E0540133E754231C069200229133FF335A70C9235B00E554231C9333FF332A0A73
:200640005A702A0C9A702A0EDA703F23EA78AE19134063702A786B78071C051C1B02134321
:20066000A3701B0A0736E370069B9F423FD0002D3DD1162304AA9B181D80F378B2781B02FD
:20068000134309D01A0B1C4D1B051B0D5D19002A02D023795343ED185F2330787178184041
:2006A000059B04AA009316239B1801930295079A049BFFF735FE04ABDA8A6378051CD318DF
:2006C000637073780D4A301CD35C059AD3180593FFF73EFF061C781CC7B2C5E7281CFFF720
:2006E0004DFF0137FFB2051C7C2F83D1044D281C0BB0F0BD44D90100C000002004E40100C1
:2007000003020000F0B5A5B0059008F049F983B20393A02B00D92AE1002706AB1F701F818A
:20072000059B3E1C1D1C3C1C0793019702972878002800D1ADE0002C00D0DFE0002F2ED055
:200740002023021C9A434E2A00D1E7E0522A00D1E7E05C2800D1E7E02C2800D1E4E02528E5
:2007600000D1E1E0582A00D0FFE06878002800D1FBE0AF78002F00D1F7E001F0A0F90490E6
:20078000381C01F09CF9049BFF2B00D1EDE0FF2800D1EAE01B011843C0B20327C5E02A1C58
:2007A000252822D1511B8BB29C465378002B09D02020191C8143081C4138192806D9303B3E
:2007C000092B03D96346022B5BD101E00132E9E720226B7893434D2B53D1413B734306AAAA
:2007E0009B181A8901321A8151E05C284CD02C280ED12F70082E49D8731CDEB20C237343D7
:2008000006AA9F549B186A1C5A601F8102973EE020280AD1029B002B1DD10C33734306AA6D
:200820009B185A6801325A6031E03D2817D1002E17D0029B012B16D16B1E187801F038F9F8
:200840000C23734306AA98549B186A1C5A6000221A81022313E0019B01339BB204E00197B6
:2008600003E0019601E0002301930C23734306AA9B181A8901321A81029B01339BB20293FA
:2008800005E08424A40002E0012700E03A4C01354DE7002C32D1002F10D1019B002B0ED069
:2008A0000C23734306AA9B181A890199521A59688C541A890199521A1A8100E02F4C0025E2
:2008C0000136F6B2AC4219D106AB1B89AB4208D9079C6419207801F0EBF801352070EDB24D
:2008E000F2E7274D301C06A92A1CFFF75BFE041E04D1281C00F036FF041E3AD00022214B01
:20090000214922485A5259184A80B62220499200995004329C5200F02FFB2AE001270A20C6
:2009200003E001270D2000E001276B1E0493791C18705918049A059B281C9A1A039B9A1843
:20094000D21B08F011F8002801D181246400039B049DDF1BBBB203930C23734306AA9B1822
:200960001A89002701321A8191E7044CF4E7094CC4E7201C25B0F0BD0B0200000F02000060
:200980009E0400205C0300206A04000034060020800202020A02000070B56C4B6C4C051C07
:2009A000E25C002A09D13F218843011EC02918D1BF39E1546749625213E0012A11D1654A99
:2009C000A25A002A0DD1232809D0021C2E3A012A05D920220243732A01D0672A01D10022E6
:2009E000E254E15C002940D15B4B5B7B002B03D05A4B0131E35C9943564EA35B0D2D01D031
:200A00000A2D17D1002B00D19DE0002905D00D2006F0C8FC0A2006F0C5FC0022A35BE25422
:200A20002378232B02D0201CFFF76CFE0022494BE25288E0082D01D07F2D0CD1002B00D182
:200A400081E0444A013BA352002900D17BE0281C06F0A8FC77E09F2B75D82A1C203A5E2AAD
:200A600071D8E5540133A353EEE701296BD1394EA25B301C002A14D13F232A1C9A43C02A41
:200A800061D18E23DB00E35880201D70A35B673D0133A35390230002DB00E55401F0B4F8FE
:200AA00051E02F49012A0FD18E23DB00E3581E780723334085261B02EB180533B600B342DA
:200AC00001D8635200E066528E239026DB00E358F6009D54235A01339BB22352625A9A4281
:200AE0002BD1012001F0C2F8A35DAB4229D1A22300255B00E65A1B48437802781B021343B7
:200B00009E4209D1184BE5520233E050174800F029FE00288AD006E00135EDB2FFF72EFD48
:200B20007C2DE9D11248B623124A9B00E2500433E052114800F020FA78E7A35DED18A555CC
:200B400001E00E48EFE7002070BDC046740400005C03002082040000C0000020440600008E
:200B60008404000044D90100D20200009E0400200302000080020202340600200902000049
:200B8000F7B5151C071C0E1C07F00AFF2B8884B2A34202D2002028800FE083B21A1C3068CF
:200BA000391C019307F0D7FE3268201C94462B881B1B2B80019B63443360FEBDF7B500916E
:200BC0001F1C1968009B061C00200A2B00D9ADE0181C07F0BBFC06061F1F2323110A160C32
:200BE000270000240223251C1FE0137806E0537810781B0203430AE013785B00151C0024F9
:200C000013E0537810781B0203435B009BB2141C00250AE000240423251C06E00024082383
:200C2000251C02E000240C23251C0120002E00D002301818019008980088844601986045BB
:200C400003DD0020089B188070E02C200870002E01D14E1C03E03D204E708870CE1C009962
:200C600000200A2962D8081C07F070FC3939393939391C061B0D3900691C2A78301C07F01D
:200C80006AFE29780BE06278237812021A43A11C301C07F060FE61782378090219437118B8
:200CA0003CE00132301C0132841BA4B2011C9C4234D2117809090C1C3734092901D83031D6
:200CC0000C1C0F210470147821400C1C3734092901D830310C1C447001320230E4E7301C04
:200CE000590801395218841BA4B2011C9C4215D2117809090C1C3734092901D830310C1C56
:200D00000F210470013A547821400C1C3734092901D830310C1C44700230E4E76B4698881E
:200D2000089B089A1B881B1A13803960FEBD0A880368022A02D8002008800BE00D221A7060
:200D4000033A5A7000229A700A880333033A0A800360032070470000F0B50E258FB00693E4
:200D600004ABED18041C031D0392298009920AA800211022029307F00BFE9023FF33E35CE8
:200D8000012B6AD194269233FF33FF36E05CA25D0233E35C9627120202431B0413431A1C96
:200DA000FF37E35D09A91B0613430F225B796E481A4005921B092A1C0493FFF7E1FEC92326
:200DC0005B00E15CA35D0AA81B020B431A1CCA235B00E55C2D042B1CE55D13432D061D43FC
:200DE000AA79E91D07F0B7FD302322781340102B05D118202422AB7904A90918CA540E250D
:200E000004ABED182A1C09A90AA8FFF7B9FE00950221029A09AB0020FFF7D0FEA31D029386
:200E2000C9235B00E15CA35D00251B020B431A1CCA235B00E35CE45D1B04134324061C43A2
:200E4000A379E4180734059B9D4251D0201CFFF77FFB0135041CEDB2F5E7022B46D191331A
:200E6000FF33E05C9423CA27FF33E25C7F00E35D9626120202431B0413431A1CFF36A35D38
:200E800009A91B061343DB782A1C38480493FFF777FEC9235B00E05C9423FF33E35CE15D25
:200EA0001B02034309041A1C0B1CA15D1343090619430A790AA8053107F04DFD09A92A1C02
:200EC0000AA8FFF75DFEC9235B00E15C9423FF33E35C1B020B431A1CE35DA45D1B0413430C
:200EE00024061C432379E418053401E0204839E0049B5D0065190E2604ABF618AC420ED0FF
:200F000020786178029A09AB0096FFF757FE6378184A0234D35C029AD3180293EBE709A8EE
:200F2000311CFFF704FF00281AD0099B039A04A99B1A12229BB25218191C0A391180069923
:200F4000013B0B803388002004333380039B009602330993022109ABFFF730FE002001E004
:200F60000420FF300FB0F0BD0FE4010018E401000102000004E40100F0B5437885B00193AC
:200F8000C9235B00C15C9423FF33C35C041C1B020B431A1CCA235B00C55C07782D042B1CC4
:200FA00013439622FF32855C2D061D4367D13F233A1C9A43C02A2DD190230122FF33C254AB
:200FC0007848E1784378A678027809021B0231431343994215D1C823ADB25B00E554231CD5
:200FE0009133FF332D0A5D70C9235B00E054231C9333020AFF335A70020C000E9A70D87001
:2010000030E00135EDB2FFF7B9FA7C2DD9D18126B60035E0802A00D0C0E090230222FF335A
:20102000C254C178837809025F4A1943507816780002D3783043814216D1C823ADB25B00F1
:20104000E554231C9133FF332D0A5D70C9235B00E254231C9333110AFF335970110C120E49
:201060009970DA7000260BE010795B0005300135C318EDB2D2181D2DD8D14C4E00E04C4E52
:2010800001224C4D4C4BEB5C00929B0624D401214A4BEA5C4A4B0A4211D04A4A9A5C0A42F6
:2010A00004D19021FF31615C012915D0920706D490220121FF32A25C0091022A0CD0D022AD
:2010C00052009B5C613AFF3A134004D03E490B6893430B60002300933C4BEB5C002B23D1EE
:2010E00002AA971D3B80201C3B1CA021384AFFF733FE374B061E019345D101202F4BEB5CA6
:2011000003420BD0C923DB00EA5A002A06D13A88EA52019A0833EA5001F032F8009B002BB4
:2011200031D1398801982CE0012B2CD10321019B0F403F021F4399220023391D8B4205D294
:20114000E15C01335218D2B29BB2F6E7E25401221A4BEB5C13420FD0C923DB00EA5A002A98
:201160000AD17A1D1A48EA52211C0833E85007F0F2FB012001F004F8009B002B03D1201CE7
:20118000791D06F047F9201C04F060F8CB2211480021520007F0FCFB301C00E0044805B027
:2011A000F0BDC04644D90100A4D7010005020000010200005C0300203C06000044060000CD
:2011C000C00000202B0200000003044074040000FD0300203406002043780278C91803238D
:2011E00013401B02CB1899B2044B994205D8072341709A43090A114301707047FF070000FD
:2012000038B506F0F9FD304D304C02280FD03049281C0B78992B00D02E49A722920007F056
:201220009AFB201C00211C302B4A07F0B1FB7A232021FF33EB5C0B4209D0E020274A8002E8
:20124000136803431360264A13688B431360221C4021C025234B5F32FF32E250224C23486F
:20126000234B244A2160836513682D042B431360214A224B1160C0312160C024036620482C
:20128000036823430360116000F04CFD62B606F0DBF81C4A1C4B1A6002F0FCFB06F03CF934
:2012A00006F0A0F980200021C00100F0ADFC174806F0C2F905F0B4FD8021154A89001368CA
:2012C0000B43136038BDC046C00000204003002080F1010068E40100A4060000080004405A
:2012E000000004408C04000080E100E000000020A51D000004E400E000E100E0491D000008
:2013000008E400E0851F0000581C0020715A00000C010440F7B5BF4BBF4CE35C012B01D1AF
:2013200002F0DCFCBD4AA35C0192002B10D0013BA354231CBA4D1C33605D5D30FF3080007E
:20134000181805F08DFB0322635D013313406355B44BE25C0093002A06D0E35C009A013BD7
:20136000DBB2A35400F0B0FC99250226ED00635B334209D0AC4B9868D96809F0A6FD002872
:2013800002D1635BB343635305F0FEFF0127A74EA74DA051635D3B4220D0A64BE25CA64BCF
:2013A000002A10D0AA225878D200A1181A780002104315F089FF002810D1635DBB43635509
:2013C0009C4BE0540AE058781A780002104316F019F8002802D1635DBB436355635D0425E0
:2013E000934F2B420BD0944A507813780002184315F0A8FB002802D1E35DAB43E35501F03B
:20140000AFFEC823DB00E05C00F00AFF01F0D2F8002001F04BF900F027FE002000F0B0FE41
:20142000A359002B1DD0CB23DB00E25C920606D5E35C9B0715D0022001F038F911E0CC2334
:20144000DB00E35CDB070CD4A359784D002B08D005F076FFC0B2FFF79FFA6359013B6351D5
:20146000F2E705F0E3FF9323DB00E050202804D8724BE35C002B06D115E05F2813D96F4BB7
:20148000E35C002B0FD101206C4AA35C4340A3546B4BE35ADB0606D5CB23DB00E35C5B0799
:2014A00001D501F003F999250426ED00635B33420DD09323DB00E358002B08D1614B1B6885
:2014C0001B0404D402F0E6FA635BB343635307F0BBFA5D4E3378002B02D0002006F004F9C7
:2014E0005A4B5B4D1B78012B00D1D5E03378002B00D0D1E0635D002B00D0CDE0554BE25CBD
:201500001F1C002A00D1C7E00133E35A002B00D0C2E0019BE35C002B00D0BDE0C823DB00A7
:20152000E35C002B00D0B7E0009BE35C002B00D0B2E0494B1B68DB0600D4ADE00122474B65
:201540001B685B08134200D1A6E0032007F070FA009006F04EFD019009F00FFD061C05F0F7
:2015600065FF0122374B1B68DB0B1340C0189323DB00E050009B032B09D1FA333340042B9B
:2015800005D1E35D002807D0022B05D107E00123022E05D1002629E0002BFBD000E0131CEE
:2015A0007A2220202E4EFF32B15C0092014206D0E25D9A4203D12B490A6802430A60022B39
:2015C00002D106F095FB01E006F084FB2021009BF35C0B4203D0234A13688B4313601022B6
:2015E000214B19681142D5D001261A60019806F004FD1E4B1A68CB23DB00E15C120739D4BE
:201600002022114244D1E15C1143E1541849635C134338E0C5040000400300209E050000FD
:201620009D050000A50400005C180020940400004E05000053050000BE380020A4040000CA
:20164000E404000008022440482F0020AC310020C6040000C7040000040104400405044075
:20166000C000002000000440100104400403044059060000202211420AD0E15C9143E15492
:201680000A49635C934363540949635C1A436254002E01D005236355635D064A002B03D09A
:2016A000A35C013BDBB2A354F7BDC046590600005A060000C6040000002370B51C1C0D4D4E
:2016C00061006A5A0C4EB24210D04D5BFF26FF2136028D43B54202D10A409B1802E098423F
:2016E00006D0013301349BB2E4B2E8E7034800E0101C70BD22E40100FFFF0000EEEE000094
:20170000F7B50F4C071C23680E1C151C019307F093F905F08BFE0028FBD10A4B1B681B0439
:20172000F7D480239B042360381C311C2A1C002310F016FF0028F7D1019B2360F7BDC04631
:20174000500024400802244008B5044B0A1CC11A5818034BC918FFF7D3FF08BDC00000204E
:2017600080F101000723F0B50278C04D134042781B021A432B7889B0041C0092992B11D0E7
:20178000A722BB48291C9200FFF7BAFFB94E301C5A3001780131FFF7D7FF301C03211B30E8
:2017A000FFF7D2FF302322781340B34A102B01D1156001E0AF491160402149420B43BD2141
:2017C000AE4A890094255354C927CA23FF35615D7F005B00E65DE35C9620090231431B04A9
:2017E0000B43191CFF30235C1B060B433F211E793140A34E915519788C466646597809021F
:201800003143A04E915300218C46BE2166468900565201218C4666469B495654C821490073
:20182000615C8C4692216646FF31615C09023143964E91539649535252181B0C5380CA23B1
:20184000625D5B00E75DE35C12023A431B0413431A1C235C8A491B061343DB78079169464C
:2018600003900020095EC0205AB202958343002A03DA994200D29AE002E0994200D096E0D4
:20188000201C02F029FC051E00D094E0C9235B00E65C029BE25CCA235B00E35C120232431A
:2018A0001B0413431A1C039BE35C1B0613439A78002A7ED00F225E7916409A799B18D81D86
:2018C000B54204D00135FEF743FEEDB2F8E70026037870480593C9235B00E75C029BE25CFD
:2018E000CA235B00E35C12023A431B0413431A1C039BE35C1B0613439B78B34204D90136B5
:20190000FEF73CFEF6B2E6E70F23002642791A40069285790096451907350196019B069A1D
:20192000934238D0A0222B789343059A93420AD1009B002B07D1E978AB78090219430905A9
:201940000B0D1E1C00936B78063B032B15D8BD224A4B9200484F9B1804933B680498995D47
:20196000FFF73AFC6B78083B012B06D83B6804989B1959780902FFF72FFC6B78464A281C64
:20198000D35CF3189EB2FEF7E3FD019B051C0133DBB20193C2E7394B404A9818079A9A5CD8
:2019A000354B1968009BC91806F0D5FF03E03C485AE03C4858E0C9235B00E05C029B2F4DE7
:2019C000E25CCA235B00E35C120202431B0413431A1C039BE35C1B061343DA7852060DD55E
:2019E00031496A58002A09D19A799B185A7A0733DB781B0213431F4AD3186B50BE239B0082
:201A0000EB5A002B2AD1284EA859002826D09A22D200AB5A002B06D1217807330B4061783A
:201A20001B02CB18AB52214FEB5D002B05D19A23DB00EA5A211D06F08EFF30232278134013
:201A4000102B05D19A23DB00E95AA859FFF77CFE9A220023D200AB51AB52EB55BD239B00C4
:201A6000E818FFF789FA002009B0F0BD80F1010068E40100C0000020EC2D0020400300202C
:201A8000F5020000F602000083040000840400008604000044D9010004E40100FA020000BB
:201AA0000A02000003020000CC040000D2040000031C613B192B01D8202398437047031CA3
:201AC0003038C0B209280CD91A1C413A052A01D8373B05E01A1C613AFF20052A01D8573B7C
:201AE000D8B27047F7B5061C071C0020151C021C01933B78BC1BA4B2002B12D0002804D1C7
:201B0000302B02D1013292B200E001201C1C303C092C04D92024A343413B052B38D801374B
:201B2000E7E7A21A49008A4232DC019B002B01D0631EF6180023271C2B70E31B9BB2002F56
:201B400024D001990122307800290ED0134207D0FFF7B5FF2B78000118432870013502E0A0
:201B6000FFF7ADFF2870013E0DE0174206D0FFF7A6FF2B7818432870013503E0FFF79FFFF2
:201B8000000128700136013FBFB2D6E7201C00E00048FEBDFFFF000030B5541E631C09D03B
:201BA000831A1B5D013CA51A4D196D78AB42F5D0581B00E0002030BD38B5041C0D1C06F08B
:201BC0005DF995230E4ADB00D35C002B0CD00D4B611B994200D9191C012006F09BF9802086
:201BE000400006F063F907E08020400006F074F98020000106F0E6F906F032F938BDC04697
:201C00005C030020FFFF0000F8B50024144B0F1C251C196803234018E2B29446114AE600FD
:201C2000B618114A9659002E03D1032B04D1634602E0864200D201250134032CECD1952660
:201C4000F600945D032C0AD09233DB00D7500134D31858609455002D01D1FFF7ADFFF8BDB6
:201C600004020B40940400005C030020F8B5124B124C19689523071C0120A446DB00E25C14
:201C80000F4E104B40425C68002C0AD01D68BD4204D10024013A5C60D2B202E0A04200D9AB
:201CA000201C0833B342EED195236446DB00E254FFF782FFF8BDC04604020B405C03002084
:201CC00004080020EC070020F8B50125114B124C1E68124F6D426368002B12D0B3420AD8F3
:201CE000002395220E496360D2008B5C013B8B54206805F011FA6368002B02D09D4200D914
:201D00001D1C0834BC42E6D1281C311CFFF754FFF8BDC04604020B40EC0700200408002074
:201D20005C03002008B506F0A9F88020044A054B40021A6006F0BAF806F092F808BDC046E3
:201D40000005015F0C020B4038B506F007F9041C8020C000044207D006F00AF90E490F4A9C
:201D60008B5C0133DBB28B548025ED022C4211D006F084F88020000306F024F9281C06F097
:201D8000F7F806F06DF880200349054A00028B581B188B5038BDC0465C03002089040000C4
:201DA0008C040000664BF7B518686649664AC5B2C0B214680B680E68810708D510210C4225
:201DC00005D00524614B6248C4541160B7E0D022604C5200A15C913AFF3A0194114218D0CE
:201DE000040716D5134214D0D340134011D10120594A57498854002058491A021143086093
:201E0000574901330A43012149421160062BF2D195E00827384254D03E4252D0360C4C4BD2
:201E2000504C514A514849B23E4226D11E5D18373E431E559E5CB4463E439E541E5C3E4340
:201E40001E544B4F019EF65D002E03D1F43F494EFF3F9F55002930DA1E5C032046490642DF
:201E600005D16646064205D01C5D044202D0086880241DE0086880241DE020261F5DB74354
:201E80001F559C5C34439C541C5CB4431C540198374C005D002801D136481E5400290CDA1E
:201EA0009921C900585A80243349000702D50868A04301E00868204308602020995C014307
:201EC00099540022002D3AD0EB0734D52449130219430B689C466046284B9B5C0340012A10
:201EE00009D11C480830C07F002802D13030834301E00F200340FF270F60002B1BD01449B1
:201F00001F4C085D032816D8B02601300855F600885D1B02041C5D34FF34A40001946446B5
:201F2000240C27403F041743019C3B436350032301301840885501326D08D2B2C2E7F7BD8A
:201F4000001004401003044010010440AA0400005C030020C0000020A90400000C00044077
:201F6000100004403D0600003E0600003C06000003020000320500000003044034E70100A5
:201F80008205000038B52B4B2B4A1B6814689B0516D5D0234025294A5B00D35C2B420BD0BB
:201FA00005F044FA002807D1254B1B681B0403D4244A13682B4313608022234B92001A601F
:201FC00020231C4215D01021204A136081331B4AFF33D35C0B420CD01D4B1B68DB0608D521
:201FE0001C4A1D4B106803401360164A13688B43136063071CD5194B194A9A5C022A02D1B2
:202000000521184A9954D02310210C4A5B00D35C0B420DD00E4B1B68DB0609D4094A1368B5
:202020000B43C02113600B4A890013680B43136038BDC0468C0F2440CC0F2440C0000020CB
:202040000802244000030440800F2440C00F2440040304400C030440FFFCFFFF5C0300208F
:20206000AB040000AA040000F7B53B4C3B4A3C4DA15C635D009299426DD03A4E0220A25DB2
:20208000171C0740BC4608D0034206D03648374F385C00280AD0480708D40420171C07406E
:2020A000019709D0034207D0880705D501273B433A436355A25515E06046002801D0980725
:2020C0000AD52A4F2848385C0027B8420AD00198B84207D0580705D40120022783430243B2
:2020E0006355A255012319420ED0022F0CD1625D99439A436255A25D1A43009BA255E15474
:202100001B4BE25C1B4BE254009BE25C01231A4205D0A25D1A420CD0625D1A4209D1B6234C
:20212000154A9B00E250625D04331448E254FEF723FF009BE35CDB0708D4012F06D1635D75
:202140001F430C4B6755E25C094BE254635D009AA3540023A355F7BD5C0300204406000059
:2021600045060000460600002F020000C0000020470600007404000080010B01340600200B
:202180007FB5214B214A1C1C995C0843204998540978002936D11F4E995D002932D1012501
:2021A00028422FD0C921C900595A002928D01B2301AD2B81A623DB00E35A033B8B4200DDCE
:2021C0000B1C9BB2A02B00D9A023AB80CA23124ADB00E35850780193137800021843291C11
:2021E00015F0B0F800280DD1A7232A89DB00E252AA880A4BE2520822A35D1343A35501E08C
:20220000A84398547FBDC0465C0300204A060000B838002032050000BE3800204C06000027
:202220000023F0B5061C85B0181C9E4200D1BEE1B84CB94DB94F6355E35D102B19D1102E8E
:2022400000D149E10822B6490B6813430B60B54B9B18DB7F834200D194E1B349635C93437D
:202260006354B249635C13436354B14AB14B1A6088E1701E0F2800D945E106F07BF91000C8
:202280005400440144018500440192004401A000CF00D700AB00FD00FD002D012D01032B4A
:2022A0000CD19921C900625AD00722D5802002436252A14AA35405F0C1FA1FE0042B0ED1FC
:2022C0009921C900625A900713D5FD33FF331A4362520322994BE25405F0BCFA0EE0072BC3
:2022E00007D19922D200A25A520702D505F0E2FA04E00A3B012B01D814F000FD0F218A4B48
:20230000E25C8A43E254894AA35C0B43A35400238B4AA3548B4AA3548B4B824AD35C022BAC
:2023200000D0F0E054E0012B00D0EFE0D0217D4A4900515C814D890605D5844A1268520976
:202340001A4205D01AE081239B00D35C012B15D17F4813F02FFD0323635500280BD10421D5
:202360007C4A13780B4313709922D200A35AFC310B43A352C7E0FFF79FF9C2E00323002024
:20238000635500F02BFCBCE099228021D200A35A89000B43A3520322684BE25405F05AFA84
:2023A000B1E06D4805F062FA0422002805D19921C900635A13436352A5E06255A3E0674BA6
:2023C000E35A002B03D0664BE35A002B19D10A23635598E00A2B38D00B2B00D093E05F4B02
:2023E000E35A002B43D010214F4BE25C0A43E2544E4AA35C0B43A354514BE35C002B00D024
:2024000081E0584B474AD35C9B0705D5564BE35A002B01D00E23DBE70D23D9E7534A50785A
:2024200013780002184314F0C7FB6CE0504B01A9E35A4E4A0B804F4B5078E35A00024B8091
:202440001378184314F086FB5DE0494BE35A002B05D0484BE35A002B01D00B23B8E7102139
:20246000314BE25C8A43E254304AA35C2DE03C4BE35A002B47D0B6E76B46022201A90233C2
:202480001A808A800022CA80374A0193A25A0A810D2E0DD1334A2348805C0122104203D06B
:2024A0002E4BE35A0B8103E02D48205A1A8008810A89314BE2522D4A50781378000218437B
:2024C00014F022FC10212D4AA35C0B43A3541AE02B4B1B681B0404D504F0A8FF0028FBD174
:2024E000F6E708210E4B1A688A431A60D0220D4952008A5C7F2A06D980211A688A431A6042
:2025000001E0002853D1E655002050E00820FF304DE0C0465C0300202406000023060000A7
:2025200000030440C00000203D0600003E0600000400000250002440C6040000C70400009E
:20254000270600002506000003020000040304406C2F0020D1380020780900203206000016
:2025600036060000150200003A060000BE3800202C0600002E0600004405000042050000BC
:2025800008022440701E0F28BDD805F0E9FFB7FEBFFFBCFFBCFFFDFEBCFF0AFFBCFF18FF1C
:2025A00047FF4FFFBCFF75FF75FFA5FFA5FF05B0F0BDC046F7B52F4B2F4C304DE15C625D1A
:2025C0000093914254D003232D4AA15C0192194239D0625D1A4209D00F222A4BE2542A4A9C
:2025E000A25C0D2A2FD10332E2542CE0625D134029D10821254E042032680A433260C82200
:20260000D200A354224AA354224AA354224AA354FFF72CFB8F27FF00E359002B05D004F0C6
:202620008FFEE359013BE351F4E7A1331B4AFF33D35C7F2B07D9009BE35C9B0603D580226D
:202640003368134333600026154B164AE652E3185E80B6239B00E250625D04331248E254D3
:20266000FEF78AFC635D009ADBB2A354019BE654F7BDC0463C0600005C0300203D0600006D
:202680003E0600002406000023060000000304403F0600002606000041060000C0000020C4
:2026A0006A04000080010A0134060020F7B5B34CB34D635D1843B34B60551B78002B00D0BF
:2026C0005BE1B14EA35D002B00D056E10127384228D0AE4AAE49507813780002184314F050
:2026E00031FE00280BD1C323DB00E25AE03BE2520822635DBB436355A35D1343A355C22388
:20270000DB00E35808221878A249A34B002802D1605C904301E0605C10436054E15C0A4358
:20272000E2542AE1830700D427E19C4BE25C0193130704D59A4BE35C102B00D11DE1A6234F
:20274000DB00E35A420707D59923DB00E25A0223D20600D5B4E0C5E0033B0093802B01D908
:2027600080230093C823DB00E25C8E4D8E4B002A03D0EA5C012A00D99CE0E85C042800D95F
:2027800098E005F0E3FE23032936590088238F229B00D200EB5CA258844E9A4202D2A35D81
:2027A000022B05D10420FFF761FA0023A3550DE0002B00D0E1E00133A3557D4B0421E85C80
:2027C000FF3BFF3B5843FFF71FFAD6E08F23DB00E258C933FF334AE088238F229B00D2003D
:2027E000EB5CA2589A4200D2C7E0C822D200A35460E0704D675D002F0ED18F26F600A3591A
:20280000002B09D004F09CFDA359C0B2013B6055A351802800D96755635D002B00D1ACE04F
:202820008F22D200A2589A4200D2A6E0C822D200A35400225F4B1AE05F4B812118688F23F0
:20284000DB00E658301805F025FF5C4B5C4A5B5CAA5C9A4203D1C823DB00E6542AE0009B9F
:202860009E4200D289E06A46C8231278DB00E25420E0C827FF00E35D002B00D164E7B123BE
:202880006A46DB00E35A1288934200D35CE74D4AA558ED1804F054FDB123B1222870DB00F3
:2028A000E35AD2000133A352A359013BA351E35D013BE3558F26F600A359002BD9D143E75A
:2028C000019AA25C1A4204D00E223F4B3F4DE25222E0324BE35CDB074FD511223A4B3C4DB0
:2028E000E25219E0019AA25C1A420CD0C623DB00E25A354B374DE2520422214BE35C13437B
:202900001F4AA35408E0254BE35CDB0735D5324B324DE25A2C4BE252B126F600A35B002BFB
:202920002BD01A4A2E495078137800021843A847002822D10221124BE25C8A43E254254BD6
:202940009D420CD1274B1030E25C0243E2541E4BE25A254BE2520C4BE35C0B430BE01B4BD2
:20296000A0539D4209D1184BE25A543BE2520822054BE35C1343044AA354F7BD5C030020C2
:2029800026060000B838002032050000BE3800206C0900203D0600003E0600003C06000050
:2029A00023060000C00000201E020000410600001F0200003F060000F02D0020002E0020B6
:2029C00021020000840500008C05000045730100597301001D6D010034060000316D0100D0
:2029E000E0080020420500004405000038B5164D0021281C1F2205F0CBFF281C13490D22BB
:202A0000134C05F0A8FF134A134B144D1978A35C13480B43A3549E2312499B00CA5C635DD2
:202A2000D318DBB26355095C0F482154002901D1023363550D490E4805F08DFF635D0D4A09
:202A40000833A35438BDC046DE09002004E701005C030020840600005C180020890600002A
:202A600077020000C00000208D06000039030020EB090020A106000038B50323194D1A4C74
:202A80001A492B551A4B1722E81805F064FF19490622194805F05FFF184B194AD15C2B1CE5
:202AA000002903D11749695C012901D11D2119555A3211781F221C2901DC8A1CD2B2124850
:202AC000124C1A54501E1855A120C0001D2901D8092100E008211954023A0D490D4805F033
:202AE0003AFF38BD5C0300200605000011E70100E7040000C50200205A08002003020000CC
:202B0000C00000202506000026050000070500001B01002065080020204B70B51A1CA5320D
:202B2000157802221E4915401E4A00D01E490424D16011781D4E0C431D498C551D4E8C555A
:202B40001D4E8C55012816D0002808D002281ED11A481B4C906050681A4A9A5C12E01A48E2
:202B6000002D00D01948906050681A1CA0339F3212781B7807E095241548A400906050680F
:202B8000144A9A5C1B5D1B021343038043800220114A8B5A03438B5270BDC046C000002018
:202BA000630800205C18002086010020E90400005C0300205606000084060000DE090020F6
:202BC00076020000750200004308002066010020B009002053020000AC040000F8B5204A1F
:202BE000204C0023A55C042D37D0D9B2A94205D21D4F5E1CDB19E35C834202D1A9422AD129
:202C000001E0331CF1E7A4256318ED0001315B19C9B2D871A154012917D1FFF77DFF412334
:202C2000583D625B1A4216D1104813F043F9FEF743FD002812D104210D4A13780B43137050
:202C40004022635B1343635308E0022903D180200002FEF7D9FF002000E00648F8BDC046E9
:202C60002B0500005C030020270500005C180020D138002004050000002208B50449054B37
:202C800002205A5404495A54FEF7F0FF08BDC0462C0500005C0300202B050000F8B5051C0C
:202CA000FFF7EAFF9D22494B9200995C0024484A022903D105204749043450544649585CD2
:202CC000022803D10427434E04439755002D13D01E1C9D363678414806704768181C9E308C
:202CE00000783871181C9F300678181CA030007800023043388078809920C000105A0007A7
:202D000014D5002635480670476803203871181C9F300678181CA030007800023043061CA2
:202D20009F2800D8A0263E807E8028E0181CA53006780120064202D0264E90551EE02848E1
:202D4000185C022807D0012801D1002C03D12548105C800613D5D0204000185C800604D5B9
:202D600021480068800605D409E081208000185C002804D103261748165401200443002D21
:202D80000FD1144815545A5C002A01D1013200E0032214439D2292009B5C002B01D00423E2
:202DA0001C430020E30701D5FFF718FFA30704D5002802D10130FFF711FF630704D50028A7
:202DC00002D10230FFF70AFFF8BDC046C00000205C030020C6040000520200005C18002023
:202DE000030200003C06000004030440F0B51C4A0F1C1C49031C885C95B000282ED0022214
:202E0000694601AE8A70301C191C043205F0A3FD154CB7716B46DD1C211C281C12F01CFC40
:202E20006B462878991C03AA12F028FC002810D1002F05D1301C211C062205F07DFD04E0A7
:202E40002621201C694412F085FF002801D1287804E0064B07349C42DCD1002015B0F0BD95
:202E60004B0500005C030020A8080020C4080020A54BF0B51A1C87B00291FF32D27F262169
:202E800003926A469289FF310492922252009A5C5B5C041C1B021343059300231C22181C99
:202EA00000930192019A04998A4200D9CFE0002800D027E1019A04998A4205D20A220199BF
:202EC0004A4392498A1803E0002C00D1FFE0221C009917785678002907D131028C4D39436C
:202EE0004919012900D990E007E0002B05D1894D31023943A94200D089E03102A4263943F3
:202F0000B601B14249D00CD8834EB14205D8013EB14218D201292FD98AE07E4EB14219D009
:202F200086E07E4EB14255D006D87D4EB1423ED07C4EB1423FD07BE07B4EB14254D07B4ECD
:202F4000B1425BD074E00099002962D0012B62D807206DE0012B62D00227167AD179360298
:202F60000E43B11EB94389B200295AD0102E58D0517AFF2959D154E0012B58D8029D002DC8
:202F800000D1BCE06E782F783602257A3E43E7792D022F43BE4248D8A4E0032B47D8167A5D
:202FA000D1793602314302293FD102312AE00821072B27D93BE00F2B39D8167AD1793602D0
:202FC0003143022931D1A24202D105991F292AD8102117E01F2B2AD8167AD17936023143B7
:202FE000022922D11E310DE03F2B20D8167AD17936023143012918D13F3103E0190616D420
:20300000802149420B43DBB212E0062010E008200EE0009B00E000230121009108E0092029
:2030200006E0012304E0052002E00D2000E00B20062196780E40042E03D0D2781140042913
:2030400000D10C20019A013292B201922AE7002858D1002C3BD0039A0230402A52D0667AFA
:20306000FF2E13D090212220274AFF304900515C125C12020A43101CA279617912020A4366
:2030800080218218490004208A423BDC6278217812020A431E495118012918D91D498A42B4
:2030A00015D0FF2E13D091212420174AFF304900515C125C12020A43101C227AE17912029A
:2030C0000A4380218218890003208A421ADC0020009A824204D001229A424041C0B211E0C5
:2030E000101C0FE0012904D1002E04D19178002903D1022186E70E209AE70C2098E7012999
:20310000F7D1F3E707B0F0BDC000002080F4010000D8FFFF032800000128000003290000FE
:203120000129000002290000042900000529000038B5041C181C2369151C002B05D10222BC
:203140000A80211C2A800C3107E0A3890B8023691B88138023690A88596805F0FCFB38BDA1
:20316000F7B50B24404F3A68404ED30107D5404B134085229200B25C520213433B603D4B13
:20318000621CF35C0092E2103B4D0192002B15D13A4BEB5C002B11D16B46188815F0FAFA8F
:2031A000A722019BD200EB189B1807221440063AA240141C9A7814439C7010E06B4618889D
:2031C00015F01EFBA722019BD200EB189B1807221440063AA240141C9A78A2439A70009C78
:2031E0001437152CBFD1264F3A68D30107D5204B13408C229200B25C520213433B60214B2F
:20320000621CF35C0092E2100192002B11D16B46188815F0BFFAA722019BD200EB189B18C1
:2032200007221440063AA240141C9A7814439C7010E06B46188815F0E3FAA722019BD200F0
:20324000EB189B1807221440063AA240141C9A78A2439A70009C14371C2CC5D130210A4A7E
:20326000AB5C8B43AB54F7BD98340020C0000020FFF9FFFF030200005C0300202506000055
:20328000603500202A02000032050000F0B500278FB00D90069709970897059704970397C1
:2032A0000297BBB20793C44B07991A1CFF32D27F8A4200D84AE1BBB201931423019A0A2536
:2032C00053430B93079BBD4A0B9901335352131C5C18A31C0A93019B05225D43B84B0A988D
:2032E0005E19311C05F037FB201C327AF37912021A43B349737A08308280695AFF2B00D13D
:20330000AEE0DD00AF4BED188560AF4DA94211D18022616852040A436260029A059CD100B7
:20332000AA4A5818A21842600222CA52A3189BB2059390E0A64D4E19B5B20C950C9E029DD2
:20334000ED00FF2E1CD859198C46039EA14971186646716081885953039B59188BB20393F3
:203360000C9B012B77D8042A02D18023DB0403E0102A70D180231B056268134363606AE05A
:20338000049A954E96195A19566000225A53802362685B041343636001291ED8019B5D1EE9
:2033A00014235D43854B5D190835AB68002B02D1AB88638015E0596802220A9805F0CBFA56
:2033C000AB681A886368042A02D18022D20401E0802212051343636003E0784B0B9A9B5A01
:2033E0002381029B002B07D1734B764A5A331B7813807A4B53602EE0029B012B05D102220F
:20340000704B1A81764ADA6025E00A2301996C4A4B43995A012914D0D3189C795A79240252
:2034200014430ED0039B6B49221C5918301C05F092FA039B634A1B199BB20393029BDB00AF
:203440009C521423019A53435C4AD3189B89049AD3189BB20493029B0133DBB2029326E0FB
:2034600000238360012922D8802362685B0413436360019B5D1E14235D43504B5D19083501
:20348000AB68002B02D1AB88638010E0596802220A9805F060FAAB681A886368042A02D1BE
:2034A0008022D20401E08022120513436360424A019BFF32D27F013393420BD11423019A80
:2034C00053433E4AD3185B88414A9B18012B01D9012306931423019A5343384AD318598849
:2034E0003B4BCB18012B05D93E4B994202D0069B002B29D0069A079B9446634498B214231A
:20350000089A53432D4AD3181881089A099B934207D8344C294A1423F8B2A1420ED109904F
:203520000DE0019A069C12199342F2DA14225A43224C0133A2181081DBB2F2E7089001993D
:203540004B43D118D35A0B810137AAE66A4620216846127AFF315A54007C1A1DFF32D0773F
:20356000049A581D120AFF30C27768469A1C007BFF32D077039AD81C120AFF30C27768469A
:203580009A1D007DFF32D077059A0733FF33120ADA770D9B0C1C002B04D018391248FF3955
:2035A000FEF7D2F8044B05481A1CFF32D17F1A5D15F0D8F80FB0F0BDC0000020B833002056
:2035C00080F401008C2F0020022900008C31002000D8FFFF00F70100AD3100201B0100208B
:2035E0005B01002003280000DE010020F0B58FB005926F4A03021A43069212686D4D04922D
:203600006D4A1A430792126801926C4A1A430892126802926A4A1A430D234343EB181F1C30
:20362000099214687937674AFF377E78155C81333540961D365CFF332E43F54303963F7ADA
:20364000EDB22F400C975B7812182B40AD250D935D4BED001B18127B5B199B7811409943D6
:203660000F1C012300220A91002F00D18FE001210F4200D185E0059D0D4245D0039919402B
:2036800011D0504912310D5C07211D422BD006314143484D69187931FF31897819404D42EE
:2036A000694106311FE00D25424E4543B44665447935FF35AE791E4202D0019D1D4314E010
:2036C000E9781940114189008C4629796D791940114166461D401541490031432943394D42
:2036E000C9B26918097E019D9D430195032507265543AE40B4460B956546049EAE430B9DD8
:20370000A940351C0D4304950599890714D5029D03999D43194204D02A4901310918C97F17
:2037200007E00D21234E4143B44661447931FF31C97919400D4302950599490721D503217C
:203740005500A9408C430399194210D01D490D1C26352D5C2C311D40AC466646551CAE405B
:20376000095C351C194091400D432C4309E00D99551C1940A9400D1C0C9919409140294304
:203780000C4301325B007F08D2B2DBB26CE7069B049A0A201A60079B019A1A60089B029A88
:2037A0001A6004F063FA099B0A981C600FB0F0BD08000440C0000020180004400000044044
:2037C0000C00044028E701005C0300200B234343F0B56F4E85B0F318C133FF330393DB79A4
:2037E000041C0193012B00D0A2E06946AD2369480979694ADB00D154021C3632125D031C1E
:20380000944655000322161CAE4032331B5D63491F02394302930B68614DB3430B6063464E
:2038200007215A430B1C93403D432E689E430623934033432B606546019A5A4BAA40564D5D
:203840001F43AC46AD253B68ED0013433B60029B63445B199D782A439A70031C3A331B5D79
:20386000514A9B0013431D68039A2D0A127AADB20290954204D01868120201401143196099
:203880000B25029B65433E331B5D414A474E9F0155193E43C1350193FF353368697A1B04C0
:2038A0001B0E03928B420CD004F0A3FB3268404B134033606B7A32681B021343336004F08B
:2038C0009CFB0B23634303983A4AC318C133FF333A43987A1168DB7A89B21B020343994287
:2038E00000D01360344B03991F430B236343CB18C133FF33197B3A685B7B92B21B020B4370
:203900009A4200D03B6004F074FB2C4B019D196801231A1CAA400A4328490A60029A3E32EF
:20392000125D9340264A1B06136004F066FB2CE0012704F05EFB174D391C2A1C3E32125D8D
:203940001E4B91401B681D4A8B43136004F055FB2B1C3233104A1B5D3635D318AD22D20049
:203960009B182A5D97409A78BA439A7000231A1CC832FF32B25C002A07D10B332C2BF6D12D
:20398000AD2305490232DB00CA5405B0F0BDC046C000002028E701005C0300200C000440B5
:2039A00008000440000004400003014000012040FF00FFFF140120400C0120400000204093
:2039C0000800204010B51A4B1A4C1B49E0180F2204F0C1FF194A1A4B1A481978A35C0B43A6
:2039E000A3541949022204F0B6FF18491022184804F0B1FF174B184A995C01329A5C120214
:203A00000A431649100A6054154962541549164A9A5C5B5C1B021343144A190AA154013291
:203A2000A354C022124BE254124BA23AE25410BD540600005C0300206CE701008406000027
:203A40005C180020B5090020150300201C030020B9090020C0000020570200006D060000EF
:203A60006E0600005A020000590200006F06000071060000730600000278054B1A704278A8
:203A80005A7082789A700022DA70C2781A717047B9380020F7B56C4C6C48A31CD97FE31C31
:203AA000DB7F1B020B431A1C231DDD7F2D042B1C1343621DD57F2D061D430C235D43291C27
:203AC00004F062FD87B2680140427843604B291CC01804F059FD5F4D061C092004F090F82F
:203AE0002B6809205B005B082B6004F093F80123013F3F02F6B21F43F600574B574A3743E0
:203B00001F601168564B20260B40802149010B4313601168534B30200B40C02189020B4363
:203B20001360514B1968314319601968103EB14319604E4E4E49775C074328388446A4446A
:203B400060467754C07F009401974A4C4A4F00280ED138603F27019B07223B4073542368C3
:203B6000C0211B021B0A23600130FFF73FFD21E0424838601768424838408027BF033843B4
:203B8000106017683F483840C0277F033843106040201A68402702431A601A68001882437C
:203BA0001A6099222368120613432360019B7F421F4377540F24344B00981A682830A243C1
:203BC0001A6002781968013A0A431A602F4B1A68A2431A6002781968013A0A431A60009B7B
:203BE0002B4A293318782B4B002806D11168303081431160196881430AE0012120261468CE
:203C00000140090134430C431460186830430143072019601168009C814311602A34116827
:203C20002678314311601A6882431A601A68217802300A431A6080222B68120613432B60FE
:203C400003F0D4FFF7BDC046C000002000366E0100C0C62D000024400004014008010440B6
:203C6000FF8FFFFFFF7FFCFF180104405C0300206B050000000102405000244004000002F6
:203C8000FFFF1FFFFFFFE3FF0003244000022440480024404400244010B50B490B4BC87F51
:203CA0000B4A0C4C9854095D884204D90A48185C800600D59954AD21C900595C9A5C8A4242
:203CC00001D9034A995410BDC00000205C030020AB040000130200003C06000080210F4AA4
:203CE00008B5136849000B4313600D4B0D4AFE39D15400230C491A020A43002101331160D0
:203D0000062BF7D1094A0A4B11680B40802149010B43136004F016F808BDC0460C03044072
:203D2000A90400005C0300200800044008030440FF8FFFFFC923F7B55B00041CC05C94234A
:203D4000FF33E25C0133E35C120202431B0413431A1C9623FF33E35C1B0613439E79221D85
:203D600000925D799E190F2307361D400192002D24D07378B34A371DD25C019B9B18019357
:203D800033787F2B09D9BF180198391CFDF704FF002802DA8320800095E133789B0609D569
:203DA0007378A84A0198D25CBF18391CFDF7F4FE0028EFDC013DEDB23E1CD8E79222C823C5
:203DC000FF325B00A05CE35C000218431B2800D1D0E019D8132800D18CE009D80C285BD052
:203DE00002D80A282BD221E101230E286DD01DE1152800D19AE000D290E0162800D19EE0CC
:203E00001A2800D1A3E011E13F2823D00BD8222800D20BE1232800D8CAE0031C273B022B5A
:203E200000D8D5E002E146283FD002D8442869D0FCE0502824D0732800D1E5E0F6E06379EB
:203E400022791B021343A2799B18802252009342A0DCEBE044237C4CFF33E25C00987B497B
:203E600004F06AFD002800D12CE1A1235B00E25C133BFF3B1340102B00D023E1744822E1DB
:203E8000E17A637AA07A227A09021B0201431343994200D97EE715E199236B4ADB00D35AEA
:203EA000034200D009E1072300E02B1C277DE67C3F02617CA27C3C1C120234430A4394426A
:203EC00000D967E70E2800D10123009AD318DA78997812020A4359781C7809020132214340
:203EE00051431A795B791B0213439B00994200DB50E79BE09923544ADB00D25AC1231A42B0
:203F000000D0DAE0E379A2791B0213439F2B00D98CE06379012B00D93CE787E099234A4A63
:203F2000DB00D35ADB0700D4C7E0ADE09923464ADB00D25A474B1A4200D0BEE0C2E0992382
:203F4000414ADB00D35A9B0700D4B6E0BAE0424B424AFF33DB7F3C4901338B526379227976
:203F60001B021343012B00D8ACE03D4A9B189BB23C4A9CE06279237912021A43364B05D176
:203F80001A1CFF32D27F227100226271FF33D97FB8232D4A9B00481CD052637922791B0250
:203FA00013438B4200D9F5E61C2B00D8F2E689E0637922791B0213430A22013B53432A496F
:203FC0005A5CCB185B781B021343012B2ED172E0A37962791B02134302D101336371A5712A
:203FE000237AE2791B02134302D1013BE3712372217AA379E679627909021B02314313437B
:20400000994200D2C6E611E0184B134AD35C012B04D1174B0C4AD35CDB074ED4E37A002BF3
:2040200050D1637A002B00D0B4E64BE02B2821D8242823D2102821D018281FD00E2823D1B3
:204040001CE0C04604E401005C030020E10000201102000002030000C0000020DE0200001D
:2040600000D8FFFFFF01000080F401002E020000440600002F2801D06B2805D19923124AD2
:20408000DB00D35A1B071BD5223803281AD804F05DFA030302020125009B5A5D5D196B7869
:2040A0001B02134300D175E6084AFF32D27F9A4200D26FE606E0064805E00820FF3002E038
:2040C000044800E00020FEBD5C030020C00000200206000002050000F0B589B0041CFFF777
:2040E00029FEB723B24D9B00E8520123002801D001F085F892229033FF33FF32E15CA35C4A
:2041000003921B020B43772B01D901F077F8181C04F030FA87009D009700AB00A500B000B6
:20412000B900CF00D700D700F200FD008A02D202DF02FD0203030F0313031E034E039203E5
:20414000CA03D703DD03E2034D04E804060506050E051C051C051C058E05BB05F005F005ED
:2041600069067F067F067F06B306C806FC06040778005C07690772077E079007900798019D
:204180009E0184009D00090135013C01490188019D009D00E7039D00070418043C049D004A
:2041A0009D009D009D009F07CB07F107C201C201C201C20164027408740825017408740830
:2041C0007408740874087408740874080D042E0474087408740874087408740874087408D4
:2041E0004A024A024A024A027E020F081408240874089D0074089D00740808087408490825
:204200007408510807236B4A6B4EA95C03924B436A495B18EB18029300F092FE2279684B7D
:204220005DE3684B684A1B68AA58D90B8A1867495B046A52120C69184A805B0C644A00F095
:204240006CFC2279614B032A06D1624AEA5200273C1C3E1C00F0B9FFA7229200F6E7A72241
:204260005D480021920004F093FBA7225A485B49920049E00A225A485A4904F06CFBBA23F1
:2042800001229B002BE30427504BEF54564B1A78564BEA54564B1A78B8239B00EA54554BB0
:2042A0001A78554BEA54554B1A78494BEA5400F0E9FC0827454B5248EF5406F050FE00F0E5
:2042C000E1FC504E092B00D14F4E27793F4B1D3FFFB2EF5404F0B0FB211C221C2379601D14
:2042E000474C1D3B0094494C15312232DBB20194BFB2B04700F0C6FC6179237909021943F7
:20430000434BA279E01DC918FDF7FAF99FE7A3792E4A9FB2AB5461792379090219433C4B61
:20432000A279C9182EE30434201C3A49062204F003FB002804D1201C3749062204F00BFB84
:204340009723DB00ED18211C0622281C04F003FB281C04F07DFB281C11F004FB77E72F4B5C
:204360002C491C6806221434201C04F0E5FA002800D1294C154B211CE81800F038FE6379B8
:2043800022791B021343264A136060E705AD281C05F022FD23792B7004F04EFB281C05F02E
:2043A00069FD00F068FD22790B4BDA774FE7C0465C0300204B050000A80800204C050000D4
:2043C0007404000004020B408C040000DE020000E2020000A4060000C000002080F10100C4
:2043E0003A060020C20000207CF1FF0FDF0200007DF1FF0F7BF1FF0FE102000078F1FF0FCF
:204400003B06002035AE0000F1AD00005606002080F00100C204002074180020EC2D002002
:204420007C002E40002705AD2379281C2B706F7006F028FE0123061C281C6B7006F022FEC8
:2044400000F0C2FE2379E14A1B0213431A6845E2DF4AE04B11680B4004211360DE4A136876
:204460000B4313600122DD4B1A600122DC4B19681142FAD01A60DB4B00211868DA4B80B236
:20448000E852DA4A002304F001FAB8230905000B08439B00E850DAE6231D0293D44A23794B
:2044A000D35C62791340637102234422FF32AA5C9A4208D9029A6079D1180A7801330240F6
:2044C0000A70DBB2F1E7C8235B00E25C039BC948E35C1B0213434C2B14D12679C64B627931
:2044E0009B5DA1791A400D2373430A43A271C34AD31896227A33FF33D200AB500223052262
:204500002B522FE04D2B0DD12279403B5343BB4AD31896227C33FF33D200AB50042301226D
:204520002B521FE04E2B0DD12279413B5343B34AD31896228033FF33D200AB500123022261
:204540002B520FE000224F2B0CD12279423B5343AA4AD31896228133FF33D200AB50022359
:2045600004222B520023A64D61792E5A9E4213D99626F600B446AE59F61837788F4361466B
:2045800037706D580299ED18C9188E782978013331432970DBB2E6E72079FFF727F8924B61
:2045A000E8540122974B9AE10D22217996484A4301688918662B01D17A3108E0672B01D1A7
:2045C0007C3104E0682B01D1803100E081318F4BFF31EA5C023A8E4800F00AFD0B2620797F
:2045E000864F70433818C8300722611DFF3004F0B2F92079FFF7EAF8237907225E439623E6
:20460000BF19C837DB00FF37EF507A4BEA52C8E77E4B2179EA5C0B2359437B4B023A1B68CB
:204620005918C831FF31D6E7227BE37A12021A43784B7248DA811A82A27B617B12020A43EA
:204640005A82227CE17B12020A439A82A27C617C12020A431A80227DE17C12020A43002193
:204660005A801973012254211A71FF31415C1E1C8B0700D53273A37D627D1B021343664A7C
:2046800004341380201C6549072204F055F9002801D000233371201C03F0E8F8604B061C5E
:2046A0001A78514BEA54002801D000F08CFD9922D200AB5A0421F5E003F0FCF8061E01D0B4
:2046C00000F081FD99220421D200AB5A8B4300F0E7FBA37962791B02134305A90B804B80A7
:2046E000237AE2791B0213438B80A37A627A1B021343CB809923DB00EA5A494B18789206F6
:2047000002D511F0A3FAB6E30FF068F8B3E3444B617918780FF07AF8ADE399228021D2006E
:20472000AB5AC9000B43AB523D4B187810F08EFEA1E3201D10F09CFD02E0201D11F0BEF88C
:20474000061C3849384810F072FF384B00F0EBFB2379374E29493370E379A27970681B02CA
:2047600013430380E379A2791B02134343806379542203710023FF324371895C533AFF3A3A
:20478000114200D04271837100210622073004F0FFF8227A736800205A73627A9A73E37A3A
:2047A000A27A1B0213433382FEF778FA00F0D3FCFEF762FA992280210027D200AB5A0B4396
:2047C000AB521C4BEF5403F039F841E504000440080304403FFEFFFF1803044024003A4019
:2047E00010023A4080013A40DE0200008096980034E70100B40400002EE70100C0000020DA
:204800005C030020B6040000EC2D0020D90200003A060020522F0020882F0020C20400208D
:20482000BE3800202708002026080020CA0400005C180020C60400002379DD480370637A88
:204840004370A37962791B0213434380237AE2791B0213438380002383715423D54AFF332B
:20486000D35C9B0702D50122D34B1A730027A37AC371637B227B1B0213430381E37A837286
:20488000CE4BEF5411F096FA061EBE4201D000F09BFC0421CA4A13780B4313709922D2008D
:2048A000AB5AFC310B43FBE2992280210027D200AB5A89000B43AB52C04BEF5402F0CAFF64
:2048C000C6E4C04BC049187810F0B5FED3E206F063FBBE4BE854BAE4BD4BEA5CBB4BEA5459
:2048E000B5E4402204AB1A80BA4A611D0592207905AAFBF7CFFDAF4CB74B5A342070C0B2C8
:204900001880FEF7B9F80221B44AAB5A0B43AB520122B34BEA54063BEC5023789B18B14AC3
:20492000FBE0A44B2279C5331A70AF4E0FE0AF4BA64A19680B1CC5331F78A631AF541A7817
:20494000BFB21FE09B4B2279E533A94E1A70611D301C04F000F80221A04AAB5A0B43AB52BA
:2049600001229F4BEA54063BEE501F329D4B6DE49E4B964A19680B1CE5331F78C631AF54C9
:204980001A78BFB29B4803F0E6FF7BE14423FF33EA5C211D984803F0DEFF9923DB00EB5A54
:2049A000DB0700D453E40020FEF778F94FE405AE00210A22301C03F0EBFF211D301C052277
:2049C00003F0C9FF3188012919D81320A37A627A1B0202AFC019134303701B0A43700029AB
:2049E0000AD12023734AFF33D35C11317372237BE27A1B02381C3DE0FF2373723FE07F48DF
:204A0000E37A0818227B012802D97D4881421DD113201202134302AA8018022B0ED92022CB
:204A20006449FF328A5C1121727202AA8918DAB21B0A0A704B700270437020E0211CFF23E5
:204A40000D310222737203F086FF18E020215948FF31415C13277172A17A607A09028C4601
:204A600002A97F18614601433970090A79701121120202A8091813430B701B0A4B70211C65
:204A8000301C0B31FEF7F4F9B82380B29B00E8528822012800D96EE1464D0A222B1CFF3397
:204AA000D97F584B5143301CC918FCF729FE72681202120C0DD090235B00EE5C2223201C5E
:204AC000FF33EB5C0D301B0233434F4E9919FCF717FEFF35EB7F01200133EB77FEF7D6FB1B
:204AE000FFF7B5FB0020334E63792279FF36F17F1B021343CB1A354A01339BB2AB52CB1A19
:204B0000011CF377FEF7B4F9404BE8520120FEF7BDFBB822F37F92000133AB52FFF797FB42
:204B20000020011CFEF7A4F9284BE852FFF78FFB204B264AFF33DB7FAB522779002F01D075
:204B4000FFF785FB1C3BAB52FFF782FB6279217912020A4302D1012162712171E279A17973
:204B600012020A4302D1013AA271E2711149284AFF31C87F142141432648023109188A42D6
:204B800001D1FFF764FB901E0788607926790002304387424AD3E079A67900023043874228
:204BA00044D81F2B38D1A0201688800138E0C0466C2F0020C0000020522F0020C704000082
:204BC000D1380020BE3800203A060020DE020000CA0400001B0100208C2F0020AC040000C1
:204BE000B6040000B404000066010020EC2D0020860100203B0600205D01002000D8FFFF27
:204C00000328000080F4010000F70100E2020000BA330020B8330020202B03D11688D64825
:204C2000864203D1D54EA85B0130A8531432A6E71426637922791B021343013B7343D04E7F
:204C400005AF9E197288CC4B301C04A99A4210D13A1CCC4BFEF76CFA3B88C84A0333AB5252
:204C6000736802321B0CAB542379C74A0133AB5406E03A1CC54BFEF75BFA3B88BF4AAB52C0
:204C8000BE4BEF5A0024261C9FE2231C08330593E379A2791B0205AE1343B3800023F38063
:204CA0006279217912020A433281191C1A1C301C13F0D4FDB72380B29B00002803D0C0225C
:204CC000D2001043E852EB5A002B01D0FFF7BFFA31891433481E4343A948B288C3181B690E
:204CE0001A80032901D0FFF7B2FAA94B5A331A70FFF7ADFA221C08320592E27905A98A80B1
:204D00000022CA80A279607912020243161CA0480A81FF30C07F02900298864214D298480D
:204D200084461420071C574367443F89B7420BD97043604447889748874202D1252B06D1A0
:204D400009E00136B6B2E7E70026252B12D001201027914B02E002202027904B0293002E88
:204D600008D00A23013A5A438D4B9C46624412793A4202D1842252000AE014225643804AA1
:204D80009619326952681278024205D1D022D200B7239B00FFF75AFA8248029B027840784F
:204DA000000210439847002805D0C023DB001843B7239B00E852C8235B00E25C039BE35C99
:204DC0001B021343252B01D0FFF741FAB7239B00EB5A002B01D0FFF73AFA05AB1A89A72311
:204DE000DB00FFF733FA6F4A04AB12781A7000225A706379934203D1049812F003FB3AE012
:204E000005A90A80122204988A70CB7012F05CFA31E0A27960791202024305A90A80227ACB
:204E2000E079120202434A805E4E272B06D1707833780002184311F0D7FE1CE0A27A677A62
:204E4000594812023A432A52282B07D17078337800021843096811F093FE0CE0237BE27AA0
:204E60001B021343A9227078D200AB5233780002184311F06FFE061CA5E14A4AA179637995
:204E800050780902194313780002184311F0D8FE061E00D097E1A37962791B021343434AC1
:204EA000AB5225E1231C0A330593637A227A1B0205AF1343BB800023FB80A37962791B024E
:204EC00013433B81E1793A4A012900D0394A37496B52344948780B7800021843391C9047DF
:204EE000E379061C002B00D06DE1002800D06AE110213B892D4AAB522F4AAB5C0B43AB5472
:204F00002E4A0E39AB5C0B43AB545CE1254A507813780002184311F015FEACE7284810F00B
:204F20003EFB061C274BEA5C144BEA544BE1271D301C391C072203F0FFFC0736002803D061
:204F4000029B9E42F3D109E0381C02F049FC0127061E05D11A4810F022FB01E000273E1C99
:204F6000039BEA5C054BEA54002F00D02BE1164A023BEA5228E1C04603280000DE020000C1
:204F8000B83300203F060020E10200003C060020C0000020022900005973010045730100CB
:204FA00080F40100BE3800204605000044050000316D01001D6D010042050000320500002A
:204FC000A70800204B05000003040000601DFEF753FD8C4B8C49187810F08DF9061C8B4832
:204FE000FEF74AFDEFE08A4BE8188A4BE918062203F0B1FCFFF72BF9834D6379291CEB70CD
:20500000804B0027187810F013FFEF70061CDBE07C4B65791878A379E1791B022B4309047D
:205020001A1C0B1C217A134309061943012210F04BF920E7333B191C724A002710784A42AF
:205040004A410097D1B23B1CA21D10F0C8FC061CBAE001212379704A0B4002D053685971FB
:2050600001E052685371022322796C4913406C4A00D0012313738B7154236A4AFF33D75C4D
:20508000002F0DD05621FF31505C0133D35C000218435339C003FF39FCF7B6FDFFF7D7F8FF
:2050A0000320FCF7E3FDFFF7D3F8207A10F06EFC061E00D087E0201DFEF7DEFC0223607ACF
:2050C000584D18405B33FF33EC5C5E23FF33EB5C1B0223431A1CAF235B00E95C09040B1C72
:2050E00013436022FF32A95C0906194310F0DBF9371C341C69E05C234A4AFF33D05C5A3B71
:20510000FF3B184063792579A1791B022B4309041A1C0B1CE17913430906194310F0C3F99D
:20512000FFF795F82021404AAB5C0B43AB54FFF78EF801223D4B0A20EA540AE001222021F0
:205140003B4BEA54384AAB5C0B43AB54FDF794FC0220FDF765F8B7239B00E6E42026324ABD
:20516000211DAB5C33483343AB544423FF33EA5C03F0F1FBD0222B4B52009A5C32420CD03C
:20518000812292009A5C2C4B002A03D11A6816431E6002E01A68B2431A60FDF76DFC0027BF
:2051A0000124FFF756F86278211D244803F0D3FBFEF708FCF3E76278211D214803F0CBFB34
:2051C000FDF714FCEBE700273C1CFEF765FD1D4D012C07D19923DB00EB5A234202D0002081
:2051E000FDF75CFD1848391CFBF7F6FF301CFCF763FAB7239B00E852012300E00023181C20
:2052000009B0F0BDBE380020B938002016020020DE020000BF0400005C1800206C2F0020D7
:20522000522F0020C0000020320500002706000025060000C30200200003044012030020FD
:20524000340300205C030020340600209023F0B5FF33C35C89B0071C012B00D067E2437918
:2052600002791C02144301D000F0EAFBC04BC14A1D1C9C529A185480C8225200815C922208
:20528000FF32865C019236020E431E2E00D165E10AD8022E45D002D8012E24D0D0E3042E73
:2052A00013D0192E7DD0CBE32D2E00D11AE203D8212E00D89FE0C3E33F2E00D0C0E3042076
:2052C000AD495A5A02435A52BAE3B622AB499200AB489950FBF750FEFF21AA4A13688B43BF
:2052E000FA390B431360C8235B00FA5C019BFB5C1B021343012B06D1FF21A24A13688B4360
:20530000FB390B43136002F091F80028FBD19E4B1B681B04F7D49D4802F0A8FC02F084FCE6
:205320008EE3C679837936021E4304AB9C466146974B85CB85C11B6862460B60A3235B00C1
:20534000EB5C9B009B580193002E00D178E3B623904A9B00EA50933BFF3BEA5C9733FF33B8
:20536000EA548D4B8C4AEC54AA18230A537010270F2E00D8F7B2894B3A1DEA54884B3A1CC8
:2053800001998848EF5403F0E6FA7D48FBF7F4FD019ABBB2F61AD2191C19B6B20192A4B25C
:2053A000D2E7814BEB5CA34200D849E3B6237F4A9B00EA500722111C61437D4B6918C9189D
:2053C000F03BFF3BE81803F0C6FA01346C48FBF7D3FDE4B2E5E7B622654B764992009950E6
:2053E0001422A3276243744D7F00515BDF5B8F4208D90134E4B2714BFF33DB7F01939C42AB
:20540000E9D31DE3A4277F00DF5B8F42F1D3B7270020BF008446D853AA181F2E1CD1A02544
:205420005088AD01A84200D088E0B825AD005853151CD9531189624A08359952A96861480A
:20544000614506D102221A54B922A9889200995274E00A781A546DE0202E29D152885A485F
:2054600082426BD1B82080001A520A226243D95356498A181179564A9954019A013A944267
:2054800005DA1420621C50434D4A415B995214236343494A3648D31819694A4D0833002974
:2054A00046D1022242559A88B9239B00C25245E0D9536146424F4548D9530A218446614392
:2054C000614409798C46604641495854A02051888001814201D112890AE03B4A914208D192
:2054E000019A013A944204DA1420621C5043425BDA530223B922B8271D48324D9200435526
:205500000B0A283B8152BF00012B01D8C15315E00023C3539C4211D0611E14334B432649B8
:20552000CB1819690833002902D19B88835205E00A7842554968274803F00DFAB7220C4B8F
:2055400092009A5A002A00D153E71E4A13499A5C0B4808325A54FBF70FFD4AE7A322520055
:205560009B5C261C002B00D086E070241C2683E05C0300206A040000AC0400008000020336
:20558000340600202C000B4008022440C40900007CE7010080040205DD020000D902000056
:2055A000DF0200003C060020CA04000080070401CB04000080080501B8330020C000002006
:2055C000DE020000E30200000328000080F40100E202000040060020B623CB4DCB4A9B007B
:2055E000EA50731C9BB26A460A270193B723928877439B00EA52C64B0522FF18391CC548EA
:2056000003F0A9F914217143C34B03915A185388083202930299C14BCE18B3B2C04E181C1A
:20562000B446C04EC049AC44B04241D80298000A28282DD10020BA4E6B18A8556646707038
:20564000906800281ED15870B34802228446039B6A546344191CB5480C3103F07CF9B923D4
:205660009B00E958B24E0902301C090CFBF7B4FD301CFBF781FC019EAE4BFF33DB7FB3426B
:20568000AAD8DDE19688320A6E545A70416822E0BE79787936020643A3486E542B18310A65
:2056A000597013799E496B545379624653700EE010799B4EA85560465279BE7942707A790E
:2056C000360216436E549849320A6B185A70002EC5D0994961189548321CA41903F03BF9E0
:2056E000A4B2BCE7954BEB5CA34200D8A8E10726B6236643924A9B00EA50924BA919C91864
:2057000091480FF0A9FFA923AE19DB00F3189A7A834B0134EA548D4B0622E818894BE4B2D1
:20572000F11803F018F98248FBF726FCDAE7022B00D085E17F4C864BE35C002B09D1724BBD
:20574000844A9A5C012A04D0834A9B5C9B0600D476E19222C823FF325B00B85CFB5C00025E
:20576000184306380B2800D96AE102F003FF74000C006901690169016901690169016901DF
:20578000690182006001604D744BEB5C042B00D056E100231F1C04930193714A7B1CAA5CF2
:2057A000934226DAB821EA1989005218EB185B18D6796C4ADB79B91869189A1FC81D012A5B
:2057C0000AD8102E11D95C49102203F0B5F800280BD10123019308E0FF2B06D1062E04D992
:2057E000093104A8042203F0B6F80136BF19FFB2D3E7019B002B00D122E15B4B049EE05C63
:205800000133E25C594B1202E35C02431B0413431A1C574BE35C1B0613435E40554BE05C5D
:205820000133E25C544B1202E35C02431B0413431A1C524BE35C1B061343334200D0FFE09D
:205840004F4B0722E818414BE91803F084F805224C4BEA54F4E02C4B404A9A5C052A00D0C3
:20586000EEE0494A9A5C032A00D0E9E00721454AE5E0B825A022244CAD00635992011B0267
:205880001B0C934219D1B9239B00E25C102A00D0D6E029483D4903F04FF8002800D0CFE0D5
:2058A000B7239B00E3583A4A1B0AA352394BE25C635D1B021343384A10E0384A93427BD190
:2058C000C523DB00E358002B00D1B9E0344A934206D1B7239B00E358324A1B0AA352AFE036
:2058E000314A934205D1B7239B00E3582F4A1B0AF4E72F4A934200D0A2E0B7239B00E35809
:205900002C4A1B0AEAE7C0465C030020800B050480F401003A060020B833002000D8FFFF4C
:20592000E3020000FF010000E50200004306002034060020C000002000F701004B050000B0
:20594000800807014C05000038060020DD02000003020000250600003C060000230600008E
:20596000E6020000E20200000B0200000D0200000E0200000F0200001102000012020000F7
:205980001C06000024060000C7040000410600202C060000DF0200002E0600000229000017
:2059A0008C090020320600009009002036060000940900203A060000002B41D1C525ED00F4
:2059C0006351B9239B00E65C102E39D11D4F1E48391C321C02F0B0FF002808D1B723C62239
:2059E0009B00E358D2001B0AA352184B1DE01848391C321C02F0A0FF002807D1B7239B007C
:205A0000E358144A1B0AA352134B0EE01348391C321C02F091FF002812D1B723C7229B009E
:205A2000E358D2001B0AA3520D4B635108E00D4A0D4BD35C0A3B012B02D80C210B4BD1547A
:205A400009B0F0BD4106002010F701008C09002020F70100340600009009002030F7010089
:205A6000940900205C0300202306000024060000F7B5071C0D1CC44C402801D100F079FCF0
:205A80003DD8242801D100F0D7FEB6239B0024281AD8202800D145E20AD8022800D1B3E0AC
:205AA000042800D1C9E0012801D000F051FF79E0B722B6499200222801D100F0A7FE01D8B9
:205AC00000F080FE00F0A6FE282800D135E107D8262800D1F5E1AD4E01D800F0D3FEB4E090
:205AE0002A2800D1DFE101D200F020FF2B2800D13BE22D2801D100F08DFE00F029FF4E2870
:205B000000D167E222D846280CD8452801D300F06CFC432800D14DE2442801D100F054FC9D
:205B200000F016FF492801D100F0ABFD05D8472801D100F0B3FC00F00BFF4C2800D149E25E
:205B40004D2801D100F022FD00F002FF582801D100F02AFEB6218900582810D88C4A53287B
:205B600001D100F067FD542800D1D4E3522801D000F0EEFE0121874BE15400F05BFD082338
:205B8000FF33984201D200F0E3FE0333984201D800F0FCFD0F3FFF3F032F01D800F004FEFA
:205BA00000F0D6FE9926F600A05BC0080740F8B200F0A2FFA35B1B0705D528207649FFF730
:205BC00057FF00F0C5FEB623744A9B00E25002F013F9734BC0B2E054002802D1714A1268C6
:205BE000E25471490A22714802F0B5FE0122704BE2549722D200A21811680233E3181960B0
:205C000092889A8000F0A4FE0B78022B12D0042B06D0012B01D000F09BFE0222654BBFE12D
:205C2000654B1B78052B01D000F092FE01F042FE00F08EFE614A00F08AFE9922D200A15A48
:205C40005F4B0B40A35200F083FE99210422C900635A134213D0282093435A4F0343635289
:205C60005948391C02F077FE08225848391C02F072FE574B0822E35C072B0AD107E018220D
:205C800013436352524BE35C032B02D1123A514BE25499220121D200A35A8B43A352D0239C
:205CA0004D4A5B00D35C7F2B08D94C4BE35C9B0604D44B4A7F3113688B431360B623494A7C
:205CC0009B00E250B722A52747493078635C9200A054FF00E218D2192F4F01339071635487
:205CE000391C0FF0A8FCA91C0622404802F033FE3F4B381CE15CFDF779F83E4BE0540028AF
:205D000004D002213C4AA35C0B43A3543B4810F059FE99232027DB00E35A3B420BD0C02194
:205D20007078337800021843490010F079FF344AA35C3B43A3540220F0E0902299260B78DA
:205D4000120113432F4AF600A354A2181B0A5370A25B93060AD501F0BDFC2B4801F06CFCE7
:205D60002122A35B9343A35300F0F2FD274B1340A353D2074CD580221343A3530D4B7A3A88
:205D8000E25401F05BFD46E05C030020BE38002032050000DF0200003906002080120201BD
:205DA000E70200002C000B40C200002038060020E6020000C6040000AC310020C7040000C9
:205DC0003FFCFFFFD60200208C090020900900202306000024060000C00000203C060000AF
:205DE00000030440800F04052D05000040060020E3020000EA0200004A0500008C08002058
:205E000042050000DD020000715A0000C3FBFFFF0320FCF743FF6021D44AA35C8B43A3541A
:205E2000D023D34A5B00D25CD24B7F2A03D91A6820310A431A6000260821CF4ACF48A65414
:205E4000CF4AA6541A680A431A60311C102202F09FFD1F21CB4BE25C8A43E254CA4AA35C2F
:205E60000B43A3540122C94B1839E254C84AA35C0B43A354C74BC84AE654B6239B00E250C5
:205E8000C64BE25CB24201D0013AE254A522E35CD200E3189B18B722002699799200A1545F
:205EA0009E7100F056FDBE4A0231E250BD4BBE481A78B7239B00E254062202F04CFD00F085
:205EC00047FDBA4A4027E2509922B94BD200E65CB84BB721E654A35A8900181C38400CD0EB
:205EE0000120BB430343A3526054032E01D000F02FFDA64BE65400F02BFD8127BB43A35298
:205F00006054002E05D1AC4B0122E654AB4B00F001FC062E01D000F01BFD0320FCF7BEFEB3
:205F200000F016FDA64AA74EE2504A78A64BE254A04B4968E018062202F00DFDB7232A782A
:205F40009B00E2542A7C0833E2542B7AA35569786868FCF74BFF9D4BE0542A7A9C48E968D9
:205F600002F0F9FCA65D00F0F4FC9921B720994AC900E250984B8000E65C8E4BE654635A73
:205F8000DA0510D5954A13400432FF321343635201232354032E01D000F0DAFC02327B4B3C
:205FA000E25400F0D5FC00268D4A26541340635200F0CFFCC0234A885B00111C9A4200D9BE
:205FC000191C89B2288811F089F9864810F0FAFC00F0BEFC844BAA89E25201234E2F00D009
:205FE0000023A721814AC900A354A889421ED3175B0F9B18DB10E3185B187D499B780A4017
:2060000004D50821013A49420A43013213411A1C01231A4202D0774A00F099FC291C42226D
:2060200011F080FD734BE05400280FD10A22AB892989013B5343704AD318DA791B7A1B025A
:206040001343994202D90D236A4AA3540026694BE35CB34215D1B623684A9B00E2502A786B
:206060000433E254AB89534A6548A3541B0AA2185370B8232E899B00E6526968321C02F026
:206080006AFC0A22AB895C49013B53435A4AD25CCB185B781B021343012B03D1554BE35CE9
:2060A000002B1CD0534BE15C002901D000F0B9FC4023281D2A1C12F0D1FB4E4BE0544C2F4B
:2060C00016D1932301212A4A5B00D35C0B4208D04C4A2B4BD35C0B432949535408E04C2FD9
:2060E00006D18022414B5242E35C13433F4AA354444B404A9A5C0193002A01D000F029FC3F
:20610000A8890E380E2800D9F4E0012302F01EFAA6B2F2ABBFF2F2D2F2F208F2F284A20097
:20612000174A1749A25C1A436254374AA25C1A4200D0DFE00E4B354A9A5C012A00D0D9E0A1
:20614000334A9A5C2B89934200D0D3E03148696802F0F2FB002800D0CCE004210D4BE25C38
:206160000A43E2540A4AA35C0B4381E042050000C0000020000304404A050000880900202C
:20618000320500003D0600003E060000240600004606000045060000800304062D050000C1
:2061A00080070408BE3800204006002080020402C6040000DD02000025060000230600004B
:2061C000800B0404E6020000E3020000E50200004306002080020403C7040000FFFEFFFFC0
:2061E000FDFDFFFF8C08002034050000DF020000070000803705000080F401008006050214
:206200003E0600205C030020440600002F02000031020000F2020020BF4ABF49A25C1A436D
:206220006254BE4AA25C1A4203D10323BC4AA3540AE000272B89BB4206D96B68D85D01376E
:20624000FAF7AAFBBFB2F5E7B623002201999B00CA504FE02989B34BB34A0EE0AE4AA25C51
:206260001343AD4AA3544022AB4BE35C1343AA4AA3543FE02989AD4AAD4B002904D0696874
:206280000878022108420CD1A15C02202DE02989A64AA74B00290AD06968087801210842B4
:2062A00005D0A05C0843A054E25C0A4321E0A15C01201AE02A899E4B002A13D06A68127825
:2062C00092070FD504219B4AA25C0A4212D19748225C0A432254E25C01200A43E254FCF715
:2062E000E5F907E00420914AA15C8143A154E25C0243E2548E4BE25C03231A4200D128E3F6
:206300008A4AA25C1A4200D023E308218A4A13680B4313601DE3894B00266350884B187830
:20632000B7239B00E054A723DB00E35A85481F0A2354201847700827A05CB843A0541B2B16
:206340000DD1C920804BC000E35A225A6650D21A2252CA22D200A058C318A350F9E20E2B84
:2063600002D0142B00D0F3E2B62300269B00E650EFE2B623754A9B00E250714B744E1A7851
:20638000B7239B00E254C0228B791021D20013436C4AA3541B0AA2185370A35D0B420ED099
:2063A00002205D4F8B43E25DA3558243694BE255E25AEC33E35A9A4201D1FCF777F90F2280
:2063C000A35D9343A355C3E2634810F0FBFA20215F4AA35C8B4349180B43A3545F4B092278
:2063E000E35C082B00D0B3E2D9E500266B89B34200D8ADE2B6235A4A9B00E2502A7804336F
:20640000E254584A0021A318452F00D00321A15428225A70B823A0229B00E35892011B0234
:206420001B0C93421BD0504A93422AD16B68022299194E4802F08FFA6B68F11C59180222DC
:206440004B4802F088FA6B68711D9B199A78494BE2542A890133053AD2B2E2540CE06B68A5
:2064600004229919414802F076FAB9232A899B00043AD2B2E254311D6B683F48591802F02C
:206480006AFAB9239B00E35C3C4A09333C48A354FAF772FD2B89F618B6B2A7E70B7B0427DC
:2064A000022B00D10E3700262B89B34200D84FE2B6232B4A9B00E2502A780433E2546B68C4
:2064C00002229919294802F046FAB923BA1ED2B29B00E2546B68B11C5918274802F03BFA93
:2064E0002B7B012B0AD1274BE35C283B012B05D821490222244802F02EFA04E00023194A54
:20650000A354A21853701D4AFB1D1D48F619A354B6B2FAF731FDC7E7320500004406000067
:206520003705000046060000450600003D0600003E0600003C0600000003044080030503ED
:20654000BE380020DD0200004C0600008003060242050000440500008C08002023060000FC
:2065600080090601E102000003280000390600203B060020E302000041060020D902000096
:2065800034060020E60200003D060020B623C54A9B00E250C44B10261A78B7239B00E2541F
:2065A000C24BC349E25A00236254100A61184870C049C148635461184B70215CB14321547F
:2065C000BE480E3E215CB1432154C621C900615A914206D1B122D200A352B94A0421A35CAD
:2065E000EEE0B84BE35A93420AD10421B64BE25C0A43E254B54AA35C0B43A3540D22CEE4D2
:20660000B34BE35A934208D1B24BB349CB5CDB0703D5AD4B0221E25C07E0B04BE35A93426A
:2066200000D095E10121A84BE25C0A43E254A74AA35C8BE19C4B1978B7239B00E154AB898C
:206640009B4963541B0A61184B709A4BE15C00290ED10231E154A0484131FF31415CC907BD
:2066600004D50421A35C0B43A35401E08222E254B8232A899B00E2522A899948696802F069
:206680006AF9B623974A9B00E250B7229200A3581B021B0C99B200291AD129789048A15499
:2066A000824AA15C824AA154804AA2185178804AA2185170B8229200A3522B89A3522A8901
:2066C000696802F048F908217B4AA35C8B43A354B8239B00E65A844BAA89E15A774B91427C
:2066E00009D18249615CC90705D5522F00D030E1E25C40210DE0C621C900615A91420BD186
:206700007A49615C890707D5532F00D021E14421E25C0A43E2541CE1C721C900615A9142D7
:2067200000D016E1532F03D10421E25C0A43E2546E4BE35C5B0700D40BE12889664B62492F
:20674000624A002812D06868007801280ED10827605CDB1938436054A15C3943A154DB7F5D
:20676000002B00D1F5E0802292040CE00827605CDB19B8436054A15C3943A154DB7F002BA3
:2067800000D1E6E05A4A5B4B1A60E2E05A4B6350454B1A78B7239B00E2541223444A5B4257
:2067A000A354A218537008E0B623534A9B00E2503D4B1A78B7239B00E25407213E4AA35CC6
:2067C0008B43C4E04D48E0500878A05410222B781343374AA3546A78494BE254AA78354B1D
:2067E000E2542A790133E2545C233B4AFF33D35CDB0700D4ACE043490B78102B01D10B3B4D
:2068000000E00023CB700FF013FBA1E03E48E0500B789CE03D4AE250234B1A78B7239B00C9
:20682000E2542B68224A190AA354A2185170190C1B0E9170D3708BE0354E4B78354833702B
:206840000EF0ADFE3378184E002B13D00221324A3078A35C0B43A354B623304A9B0030497E
:20686000E2500EF0E8FEB72332789B002D48E254FAF782FBB6232C4A9B00E25032780433CD
:20688000FFF78EFB284AE250B72332789B00E25490220B7812011343054AA3541B0AA218BD
:2068A000537055E080050604BE38002044050000DD020000DF0200004205000032050000B4
:2068C000260600003A0600003D0600003E0600003206000015020000C0000020360600005A
:2068E0003E06002080060603340600003C0600000400000250002440800306028005070256
:20690000DE020000B93800208001070680050705502F0020A70800204A050000800807011A
:206920003906002034060020800307033F4AE2503F4B1A78B7239B00E2540A783D4BE2544F
