:400000000040002011000000FD030000FD03000080B500AF00F0FCF980B500AF2C4B12221A6001F079FA2B4B180001F03DFC012001F082FA302001F009F9274B274A1A6033
:40004000274B8022D2051A60264B264A126802210A431A60244B254A1A60254B00221A60244B244A126808218A431A60FA23DB00180001F039F9204B180001F0EDF91F4BB4
:400080001F4A1A601F4B204A1A60204B204A1A601C4B204A1A60204B802212061A601F4B8022D2021A601E4B41221A601D4B40221A601D4B1900082001F060F9082001F0E6
:4000C00083F9074B8022D2051A60C046BD4680BD30001040001BB70004010B40060000800C020B4078002E407C002E40BCBC000064F02E406CF02E40DC050000040301407B
:40010000007FBB000000014041FF008000030140009F0F0040FF008008010B4000010B40200101401C0101408D16000080B582B000AF72B6314B00221A60FB1D00221A70B6
:4001400022E0FB1D1A7813005B009B185B002C4A9B183B603B681A78597809020A43997809040A43DB781B06134318003B681A795B791B0213439BB2190000F0D9F8FB1D2C
:400180001A78FB1D01321A70FB1D1B78012BD8D91C4A1D4B1100180000F0DAF81B4BEE2212061A601A4BC02292041A60194B992212041A60184B992212041A60174B8022D7
:4001C00092051A60164A164B1B78DBB206210B43DBB21370134BD82212041A60124B40221A60124BC02252031A60FFF715FF00F0F1F8C046BD4602B080BDC0466CF02E40AE
:40020000A8340100B8340100B4340100000002400002024000500F4020500F4028500F4000700F4008000440000204400802044010B5064C2378002B07D1054B002B02D0BF
:40024000044800E000BF0123237010BD6010002000000000A4340100084B10B5002B03D00749084800E000BF07480368002B00D110BD064B002BFBD09847F9E700000000C8
:4002800064100020A4340100A80B00200000000080B582B000AF786039607B68012B02D0282B00D002E0002000F0F8F9C046BD4602B080BD80B584B000AF786039603B686C
:4002C000FB60FB685B681B681B78002B03D1002000F080FF10E0FB685B681B681B78012B05D1FA235B00180000F074FF04E0FA239B00180000F06EFFC046BD4604B080BDAD
:4003000080B500AF62B6084B180000F02FF9074B180000F0C5FA00F02BFF01F02DFA01F065FA01F0F7FEFCE791020000B502000080B582B000AF786039603A687B68002163
:40034000180001F0ABFEC046BD4602B080BDC04680B586B000AF7860396000233B6100237B612FE07B699B007A68D3181B68BB600F23FB18BA681A70BB68FF229343BB6065
:4003800018E03B695B003A68D3181B781A00BB68D31819003B695B003A68D3185B780B703B6901333B610F23FB181A780F23FB18013A1A700F23FB181B78002BE1D17B691D
:4003C00001337B617B69002BCCD0C046BD4606B080BDC04680B500AF054B03221A60054B03221A60044B00221A60C046BD4680BD3000304030003140000E3F4080B500AF9B
:4004000001F008FE03001B680C2B00D1FEE7FEE780B586B000AF224B7B61224B3B61204B7B6135E03B691B68FB603B695B68BB603B699B683B6000237B600CE0FB681A6890
:40044000BB681A60BB680433BB60FB680433FB607B6804337B607A683B689A42EED13B69DB683B6000237B6008E0BB6800221A60BB680433BB607B6804337B607A683B684A
:400480009A42F2D13B6910333B617B69013B7B617B69002BC6D101F0C3FDFFF731FFFEE7010000000437010080B582B000AF154B144A126801218A431A6000237B600FE0DB
:4004C0007B68032B04D8104B7A689200D35800E00E4B0F4A796889008B507B6801337B607B682F2BECD9FFF721FE0A4B00221A60044B044A126801210A431A60C046BD463B
:4005000002B080BD0000104000000000FD03000000000020C000002080B500AF094B00221A70094B00221A70084B00221A7000F013F8074B00221A70064B00221A70C0469D
:40054000BD4680BD4B220020442200204A220020302200203822002080B500AF00F014FD00F098F9C046BD4680BDC046B0B594B004AF78603E23FB1800221A802823FA183D
:400580003D4B1000190014231A0001F07EFD3B4B1B78002B04D1FFF7BFFF384B01221A707B68002B5CD0364B7A681A603E23FB181B88002B29D11023FB181C22BA185A606D
:4005C0001023FB182022BA181A601023FB1800221A812023FB181B221A802023FB181B225A802023FB1804221A711C23FB1800221A703E23FC180E23FA181023FB18110076
:40060000180001F063FE030023803E23FB181B88002B29D13E23FC182823FD18AE231A0118491948194B0293194B0193052300932B0001F0A1FD030023803E23FB181B88C8
:40064000002B11D1134B01221A703E23FC18124B0F22172118000EF071FB0300238003E03E23FB1801221A803E23FB181B881800BD4610B0B0BDC046C03401007C100020E5
:4006800034220020C8000020ED0A000079020000803F010040220020DC34010090B585B000AF0200FB1D1A70FB1D1B78022B04D90E23FB1801221A804AE0294B1B78042B34
:4006C00041D1284B1B78DBB21A00042313403AD1FB1D1B78002B0BD1234B1E221A82224B5B6820221A80204B5B6830225A8010E0FB1D1B78012B0CD11B4B96221A821A4B91
:400700005B68C822D2001A80174B5B688022D2015A80164BFA1D12781A700E23FC18124B18000BF04FFF030023800E23FB181B88002B0DD10B4B1B78DBB204221343DAB289
:40074000084B1A7004E00E23FB180422FF321A800E23FB181B881800BD4605B090BDC046402200204B220020DC0B00204A22002080B584B000AF78600A00FB1C1A70002319
:40078000BB60BB68002B20D07B689A79BB681A700F23FB1800221A7012E00F23FB181B780133BA68D3180F22BA18127879688A5C1A700F23FB181A780F23FB1801321A708A
:4007C0000F23FB181B78052BE7D9C046BD4604B080BDC04680B582B000AF78607B681B789AB27B6801331B789BB21B029BB213439BB21800BD4602B080BDC04690B585B0F3
:4008000000AF78600F23FB1800221A707B689B890F22934232D17B68181D7A680F23FC18402300210EF0A2FA030023700F23FB181B78002B1AD17B685B681800FFF7CAFFD1
:4008400003001A00022313409BB2002B07D00F4B1B687968822252001000984706E00B4B1B6879680622FF3210009847084B1B78DBB201229343DAB2054B1A700F23FB18F2
:400880001B781800BD4605B090BDC046342200204B22002080B500AFC046BD4680BDC04680B582B000AF7860034B7A681A60C046BD4602B080BDC046A410002080B584B07C
:4008C00000AF0F23FB1800221A7012223B001A813B000F22BA181A603B0001229A8038000023002200210EF041FAC046BD4604B080BDC04680B584B000AF78601E4B1B686B
:40090000002B34D012227B689B899A422FD17B681B89012B2BD17B685B681B78022B26D87B68181D7A68402300210EF01FFA031E1DD10823FB187A6812881A800823FB1828
:4009400000229A707B681A1D0823FB185A600A4B1B680822B918BE22FF3210009847074B1B78DBB201229343DAB2044B1A70C046BD4604B080BDC046A41000204B22002035
:4009800090B585B000AF78600F23FC187B681800FFF734FF030023701F4B1B78DBB21A00012313400CD00F23FB181B78002B07D10F23FC187B68180000F0ECFA03002370B7
:4009C000154B1B78DBB21A00012313401FD10F23FB181B78002B16D00823FB1812229A707B689A890823FB181A800823FB180F22BA181278DA700823FA187B6811001868ED
:400A00000CF034FF03E07B6818680CF0A7FFC046BD4605B090BDC0464B22002080B582B000AF7860C046BD4602B080BD80B500AF054B00225A70044B00221A70FFF73EFFCD
:400A4000C046BD4680BDC0464822002080B582B000AF7860C046BD4602B080BD80B500AFC046BD4680BDC04680B584B000AF78600E23FB1800221A707B689B79002B1CD19B
:400A80000F23FB1800221A7012E00F23FB181B787A68D35C002B04D00E23FB1801221A700BE00F23FB181A780F23FB1801321A700F23FB181B78052BE7D90E23FB181B7817
:400AC0001800BD4604B080BD80B582B000AF0200BB1D1A80C046BD4602B080BD80B582B000AF7860C046BD4602B080BD80B588B000AF02003960FB1D1A70CB4B1B78DBB2F3
:400B000001221343DAB2C84B1A70FB1D1B78412B00D1A9E123DC212B00D1EFE00DDC022B00D1C1E002DC012B3BD004E2052B00D1BFE0062B00D1C1E0FDE1272B00D117E1F7
:400B400006DC242B00D109E1262B00D11CE1F2E1282B00D114E12A2B00D104E1EBE14F2B00D1DBE10BDC432B00D19CE100DA97E14C2B00D1B4E14E2B00D1B6E1DBE1572BAF
:400B800000D1CDE106DC502B00D1CBE1542B00D1B7E1D0E1712B00D140E1FA2B00D1B5E1C9E11023FB1807221A701023FB1800225A701023FB18180003F098FA1023FB182B
:400BC00007221A701023FB1801225A701023FB18180003F08BFA0B23002B01D001F092FA924B1B681800FFF73FFF031E11D08F4B1B68180001F092FA8C4B1B68002118005F
:400C0000FFF7B6FD894B1B6801211800FFF7B0FD36E0874B1B781A003F231A40854B1B789901FC231B010B401A43834B1B781903F8235B020B401A43804B1B785904FE232D
:400C40001B040B401343BB61BB69DAB27C4B1A70BB691B0ADAB27A4B5A70BB691B0CDAB2774B9A70764B180001F058FA744B00211800FFF77DFD724B01211800FFF778FDAA
:400C800000200BF043FB0C23FB183F221A700C23FB1800225A700C23FB1818000BF054FB684B04221A7046E13B681800FFF7CEFE41E13B681A78644B1A703CE13B687B61A9
:400CC0007B691B78002B00D02EE17B695B78002B0BD15E4B0022DA805C4B00229A805B4B5B4A1A607B69594A5A604F4B1B78DBB201229343DAB24C4B1A7015E14A4B1B7829
:400D0000DBB21A002023134000D00FE1514B1B78102B02D14F4B0522DA704F4B1B784D4A110018000BF010FC03001A000A23FB181A800A23FB181B88002B06D0474B1B688A
:400D40000A22BA18110036209847374B1B78DBB201221343DAB2344B1A70E7E03B685A783F4B1A70E7E03B681800FFF7B7FEE2E03B681800FFF7B2FE324B02221A70DAE0FA
:400D8000304B04221A70D6E02E4B1B78022B00D1CEE0254B1B78DBB21A000123134000D1C6E0214B1B78DBB21A00042313400BD0244B03221A701C4B1B78DBB20422934366
:400DC000DAB2194B1A70B3E0174B1B78DBB21A00082313400BD01B4B04221A70124B1B78DBB208229343DAB20F4B1A70A0E0154B1B78032B00D09BE0124B04221A70194B91
:400E00001B78002B00D093E00120FFF747FC031E00D08DE00B4B03221A7089E03B681B881800FFF751FE86E04B220020F80B00207CF1FF0F7DF1FF0F7BF1FF0F78F1FF0FEA
:400E4000F00B00204022002044220020A8100020A80B00207C0C00204822002034220020382200204A220020404A3B681000190002231A0001F009F93D4B00221A703B4BB4
:400E80001B789E339A003B4BD31801333A4A1000190004231A0001F0F8F8FFF7DFFD4AE0FFF7C4FD47E03B685B88162B05D81E23FB183A6852881A8003E01E23FB18172268
:400EC0001A801E23FB1819883B681A8800231204120C1B0C1B04134318000CF0D1FC2AE03B681800FFF74CFD25E0244B1B78DBB21A00012313401DD03B681800FFF7FAFC8D
:400F000018E03B681800FFF789FD14E01C4B1B7801221343DAB21A4B1A700CE0C0460AE0C04608E0C04606E0C04604E0C04602E0C04600E0C046114B1B78DBB21A00112362
:400F400013400ED00D4B1B78DBB201229343DAB20A4B1A700B4B1B68FA1D1278396810009847C046BD4608B080BDC0464822002044220020803F01003C2200204B2200207B
:400F8000302200203422002080B500AFC046BD4680BDC04690B587B000AF78601723FB1800221A701623FB1800221A70454B1B68002B00D17FE07B689B89172293426DD164
:400FC0001723FB181B78404ADB00D31802331B885A1E3E4913009B009B189B00CB1804331A6880235B0313404BD07B68181D7A681623FC18402300210DF0B8FE03002370CF
:401000001623FB181B78002B3FD10C23FB187A6812881A800C23FB181722BA1812789A700C23FB180022DA700C23FB1800225A607B685B681800FFF7CDFB03001A000123D4
:4010400013409BB2002B08D01E4B1B680C22B9183222FF321000984707E01A4B1B680C22B9189922520010009847194B1B78012B0BD1184B1B7802221343DAB2154B1A70BF
:4010800003E01623FB1806221A70134B1B78DBB201229343DAB2104B1A700CE01723FB181A781723FB1801321A701723FB181B78002B00D17FE71623FB181B781800BD4656
:4010C00007B090BDB0100020A8360100DC34010038220020302200204B22002080B500AF114B8022D2041A600F4B0F4A12681A60002000F04FF80C4B0B4A12681A600B4B7D
:401100000C221A60012000F093F8094B31221A60FA239B00180000F04DF8002000F05AF8C046BD4680BDC04640012040640120406801204090B583B000AFFC1D00F0BDFB80
:4011400003002370094B094A126802210A431A60FB1D1B78180000F0B4FB1821022000F049F8C046BD4603B090BDC0460000204080B500AF064B1B78002B04D1FFF7AEFF06
:40118000034B01221A70FFF7D5FFC046BD4680BDB410002080B582B000AF7860044B7A681204120C1A60C046BD4602B080BDC0464801204080B582B000AF7860044B7A68AD
:4011C0001204120C1A60C046BD4602B080BDC0465401204080B582B000AF7860044B7A681204120C1A60C046BD4602B080BDC0464C01204090B585B000AF786039600F234A
:40120000FC1800F05AFB03002370084B79683A6891400A001A600F23FB181B78180000F050FBC046BD4605B090BDC0460800204080B582B000AF7860034B7A681A60C04652
:40124000BD4602B080BDC0467801204090B58BB000AF78602723FC1800F02FFB03002370194B1A680C23FB181A60184B1A680C23FB185A607B68033B154AD35C1A000C230D
:40128000FB189A60134B1A680C23FB18DA601C23FB18114A1A600C23FA181C23FB185A600E4B1C22BA181A600D4B0E4A1A600B4B1B682723FB181B78180000F002FBC04670
:4012C000BD460BB090BDC04608010B4000010B40B036010030001040B6EA000008001040040010401700008080B584B000AF78600023FB60154B154A126801210A431A6063
:40130000134B144A1A60144B134A1268802109020A431A607B68002B12D01023FB600CE0012000F099F800F019F8031E02D00023FB6005E07B68013B7B607B68002BEFD1A3
:40134000FB681800BD4604B080BDC04660F02E4078002E400220000010002E4080B582B000AF054B1B68012213407B607B681800BD4602B080BDC0460C002E4080B584B0A4
:4013800000AF02003960FB1D1A7080239B05FB60FB1D1B781F2B02D9002000F02BF8FB1D1B7810339B00FA68D3181B68BB60FB1D1B7810339B00FA68D3183A681A60BB6817
:4013C0001800BD4604B080BD80B582B000AF0200FB1D1A70064BFA1D12781F210A40012191400A001A60C046BD4602B080BDC04600E100E080B582B000AF0200FB1D1A70BB
:4014000001BEC046BD4602B080BDC04680B582B000AF786009E00D4B1B68180000F044FA7B680B4A944663447B607A6880231B029A42F0D8074B1B687A685343180000F0C8
:4014400033FAC046BD4602B080BDC046900C00200080FFFF880C002080B582B000AF0200BB1D1A80BB1D1B88044A12785343180000F01AFAC046BD4602B080BD8C0C002014
:4014800080B500AF0F4B0F4A126801218A431A600C4B0C4A126802218A431A600A4B0A4A126830218A4310210A431A60064B064A126807218A4301210A431A60C046BD46E6
:4014C00080BDC04600F02E4000FF2E4080B500AF0F4B0F4A126802218A431A600D4B0D4A126807218A4302210A431A60094B094A126830218A4320210A431A60044B044A77
:40150000126801210A431A60C046BD4680BDC04600F02E4000FF2E4080B500AFFFF7B0FF044B044A1268802109060A431A60C046BD4680BD00F02E4080B584B000AF786086
:401540000C4B1B6801221340FB607B68002B02D0012B03D005E0FFF793FF06E0FFF7B6FF03E00020FFF746FFC046FB681800BD4604B080BD00F02E4090B583B000AFFC1D92
:4015800000F09BF903002370074B074A1268C02109020A431A60FB1D1B78180000F091F9C046BD4603B090BD00010B4080B500AF054B1A68C0231B02134001D0012300E0D1
:4015C00000231800BD4680BD00010B4090B583B000AFFC1D00F071F9030023700D4B0D4A12680D490A408021C9010A431A60094B084A126808490A40802109020A431A60CB
:40160000FB1D1B78180000F05CF9C046BD4603B090BDC04600010B40FF3FFFFF90B585B000AF78600B23FC1800F047F903002370FFF7BCFF031E04D00123FB60FFF7C6FF22
:4016400001E00023FB607B680D4A13407B600D4B0C4A12680C4911407A680A431A60094B1B68FB68012B01D1FFF786FF0B23FB181B78180000F025F9C046BD4605B090BD74
:401680000404040010020B40FBFBFBFF80B500AF344B1B68042213401FD0334B1B680422134017D0314B1B6804221340DA432E4B1B681A402C4B1A602C4B1B680422934350
:4016C0001A002A4B1A602A4B1B68002B02D0284B1B6898470420FFF7A1FF224B1A688023DB00134022D0204B1A688023DB00134017D01E4B1A688023DB001340DA431A4BC8
:401700001B681A40184B1A60184B1B68194A1A40164B1A60164B5B68002B02D0144B5B6898478023DB001800FFF778FF0D4B1A688023DB02134011D00B4B1A688023DB0266
:40174000134006D00A4B9B68002B02D0084B9B6898478023DB021800FFF760FFC046BD4680BDC04610020B409C0C0020C0100020C4100020FFFBFFFF80B500AF0A4B8022A1
:4017800092041A60094B0C221A60012000F07EF89623DB00180000F04BF8002000F038F8C046BD4680BDC046000120402401204090B583B000AFFC1D00F07FF80300237008
:4017C000094B094A126801210A431A60FB1D1B78180000F076F81821012000F039F8C046BD4603B090BDC0460000204080B500AF064B1B78002B04D1FFF7BEFF034B0122E8
:401800001A70FFF7D5FFC046BD4680BDE010002080B582B000AF7860044B7A681204120C1A60C046BD4602B080BDC0460801204080B582B000AF7860044B7A681204120C77
:401840001A60C046BD4602B080BDC0461401204090B585B000AF786039600F23FC1800F02CF803002370084B79683A6891400A001A600F23FB181B78180000F022F8C046C6
:40188000BD4605B090BDC0460800204080B582B000AF7860034B7A681A60C046BD4602B080BDC046380120400230800803D00138FDD1C046C046C0467047EFF3108072B68F
:4018C000704780F31088704780B582B000AF78600A00BB1C1A80BB1C1A887B681A60C046BD4602B080BDC04680B582B000AF78600A00BB1C1A80BB1C1A887B681A60C046ED
:40190000BD4602B080BDC04680B584B000AF494B1B78DBB21B02484A1278D2B21343FB60464B1B78DBB21B02454A1278D2B21343BB60BB68434A934207D1FB68072B04D1D2
:40194000414BBB600423FB6009E0BA68D4231B019A4204D1FB68042B01D13B4BBB603B4BBA681A603A4BFA681A603A4B1B78DBB21B02394A1278D2B21343FB60FA688023DE
:401980009B019A4202D0FB68002B01D1334BFB60334BFA681A60334B1B78DBB21B02324A1278D2B21343FB60FB68304A934206D0FB682F4A934202D0FB68052B01D12D4B6C
:4019C000FB602D4BFA681A602C4B1B681B097B602B4B1B68AA2B29D17B68012B26D9214B1B78DBB20E2B21D1264B1B78DBB29BB21B0299B2244B1B78DBB29AB2BB1C0A436D
:401A00001A80224BBA1C12881A60214B1B78DBB29BB21B0299B21F4B1B78DBB29AB23B000A431A801C4B3A0012881A60C046BD4604B080BDD9F0FF0FD8F0FF0FDFF0FF0F43
:401A4000DEF0FF0F580B0000580D00006C002E4074002E40DBF0FF0FDAF0FF0F0220000078002E40DDF0FF0FDCF0FF0F0F0F000005050000050F000080002E40EC0F00F083
:401A8000E00F00F06DF2FF0F6CF2FF0F84002E406FF2FF0F6EF2FF0F94002E4080B582B000AF0200BB1D1A80BB1D1B881800FFF7D3FCC046BD4602B080BDC04680B582B056
:401AC00000AF78607B681800FFF7A0FCC046BD4602B080BD80B500AF00F0ECF8C046BD4680BDC04680B500AF00F0F0F8C046BD4680BDC04680B500AF00F0E8F8044B1800B3
:401B000000F0A2F8032000F0ADF8C046BD4680BD191D000080B500AF034B180000F080F8C046BD4680BDC046191D000080B500AF0223FF331800BD4680BDC04680B582B0B3
:401B400000AF78602B231800BD4602B080BDC04680B582B000AF78602B231800BD4602B080BDC04680B582B000AF78602B231800BD4602B080BDC04680B582B000AF7860FA
:401B80002B231800BD4602B080BDC04680B582B000AF78602B231800BD4602B080BDC04680B582B000AF78602B231800BD4602B080BDC04680B582B000AF78602B231800DB
:401BC000BD4602B080BDC04680B582B000AF78602B231800BD4602B080BDC04680B500AF2B231800BD4680BD80B582B000AF0200FB1D1A702B231800BD4602B080BDC046FF
:401C000080B582B000AF786039602B231800BD4602B080BD80B500AFC046BD4680BDC04680B582B000AF786000F050F87B68180000F00AF8032000F015F800F03BF8C04639
:401C4000BD4602B080BDC04680B582B000AF7860034B7A681A67C046BD4602B080BDC0460000002090B585B000AF0200FB1D1A700623FB600B23FC18FFF71FFE0300237073
:401C80000B4B0B4A1268C0218A431100FA1D1078FA68904002000A431A600B23FB181B781800FFF70EFEC046BD4605B090BDC0460CE400E080B500AF034B802252011A6036
:401CC000C046BD4680BDC04600E100E080B500AF034B802252011A60C046BD4680BDC04680E100E090B583B000AFFC1DFFF7E5FD03002370074B074A126804218A431A6072
:401D000030BFFB1D1B781800FFF7DBFDC046BD4603B090BD10ED00E080B500AF11F0AEFBC046BD4680BDC046002243088B4274D303098B425FD3030A8B4244D3030B8B420B
:401D400028D3030C8B420DD3FF22090212BA030C8B4202D31212090265D0030B8B4219D300E0090AC30B8B4201D3CB03C01A5241830B8B4201D38B03C01A5241430B8B42F6
:401D800001D34B03C01A5241030B8B4201D30B03C01A5241C30A8B4201D3CB02C01A5241830A8B4201D38B02C01A5241430A8B4201D34B02C01A5241030A8B4201D30B0237
:401DC000C01A5241CDD2C3098B4201D3CB01C01A524183098B4201D38B01C01A524143098B4201D34B01C01A524103098B4201D30B01C01A5241C3088B4201D3CB00C01A2E
:401E0000524183088B4201D38B00C01A524143088B4201D34B00C01A5241411A00D20146524110467047FFE701B5002000F0F0F802BDC0460029F7D076E7704703460B433F
:401E40007FD4002243088B4274D303098B425FD3030A8B4244D3030B8B4228D3030C8B420DD3FF22090212BA030C8B4202D31212090265D0030B8B4219D300E0090AC30B6B
:401E80008B4201D3CB03C01A5241830B8B4201D38B03C01A5241430B8B4201D34B03C01A5241030B8B4201D30B03C01A5241C30A8B4201D3CB02C01A5241830A8B4201D372
:401EC0008B02C01A5241430A8B4201D34B02C01A5241030A8B4201D30B02C01A5241CDD2C3098B4201D3CB01C01A524183098B4201D38B01C01A524143098B4201D34B0174
:401F0000C01A524103098B4201D30B01C01A5241C3088B4201D3CB00C01A524183088B4201D38B00C01A524143088B4201D34B00C01A5241411A00D201465241104670478E
:401F40005DE0CA0F00D04942031000D34042534000229C4603098B422DD3030A8B4212D3FC22890112BA030A8B420CD3890192118B4208D3890192118B4204D389013AD0F2
:401F8000921100E08909C3098B4201D3CB01C01A524183098B4201D38B01C01A524143098B4201D34B01C01A524103098B4201D30B01C01A5241C3088B4201D3CB00C01A63
:401FC000524183088B4201D38B00C01A5241D9D243088B4201D34B00C01A5241411A00D20146634652415B10104601D34042002B00D54942704763465B1000D3404201B5B3
:40200000002000F005F802BD0029F8D016E770477047C046014B18687047C046581000200E4B70B500251E000D4CE41AA410A54204D0AB00F35898470135F8E711F050FBA4
:40204000084B00251E00084CE41AA410A54204D0AB00F35898470135F8E770BDEC360100EC360100EC360100F436010030B50024A24208D0035D651C0C5DA34201D0181B66
:4020800002E02C00F4E7002030BD002310B59A4203D0CC5CC4540133F9E710BD03008218934202D019700133FAE77047134A1088810703D08107890F401A001D1179103028
:4020C000484381B25088820703D08207920F801A001D800040180A494030098980B2CA0701D0503080B2890706D504495422091F09785143081880B270470000A60C002014
:40210000F010002010B501F011FF10BD10B501F013FF10BD10B500F05BFA10BD10B50749044609780220002907D1204601F054FF002802D120460AF0EDF910BD440E002053
:4021400070B504460120002C12D02368002B0FD0616800290CD0074D06222889208118462968FFF792FF6968606809780170002070BD0000F0100020FFB585B00027684664
:402180000E9D07734F481C460078002802D0082009B0F0BD10990F9801900095029105A807C800F007F90028F2D16946264603AB84460873002C19D0002115E08A00B75ACD
:4021C000082F09D990198078002805D0083FB7521878401C187005E0002914D00027B75290198770491CC9B2A942E7D360460028CED10F98002809D0109901F047FA002805
:4022000004D00120C4E701208446EFE701F094FE2D480021416081600599016021888180022D07D3A1798171A17AC171A1890181218A418100211EE0481C19E082008B00F5
:40224000A75AE65ABE46BE4211D26F463E80B4461E190296B678BE7001967646E6521719029EBB78B3706646A652019EBE70401CA842E3D3491CA942DED3134822460C3080
:4022800000906846037B0799069800F01BF90028B8D168460B4C007B60700B480C3001F07BFE0028AED1084907480C3107F002FA0028A7D107F01CFA0028A3D101212170B3
:4022C00066E70000A00C0020E4100020F8B5054636480F460078002802D002242046F8BD002F60D000243249002D16D02A89D0070DD02868002808D003881B3BE12B04D268
:402300004088FB2801D81B2801D2012409E0900707D56868002804D1F7E70020088108604860002CDAD122482E8906811F481B21801D01804180042101711C490020891C1C
:402340000870F00705D019480622801D2968FFF79CFE1749B00703D56A68144812788270124D0E46AD1D281F0D60486001F05AFE284601F049FE30890DF008FE30890CF000
:40238000F1FF28880CF0F4FF30890DF069FF03461033FFF78BFE1F21C018890140183880A91F88809AE7012498E70000A00C0020F0100020FFB58446384F1C460020BB8808
:4023C0003F78054602460646002F11D100290ED0029999420BD36146002908D0002C06D00A99002906D02E4B0B99994202D2012004B0F0BD002144E0AB001F19BF78002FB3
:402400003BD0E35A002B38D07B43591889B22B0000F04AF8050410161C253100A7782388BC46FF27233BEB37BB4222D26346032B1FD322E0A388002B1FD0302B19D31CE003
:402440002389002B19D0282B13D316E0A289002A13D01346134F233BBB420AD20DE0268A002A0AD033460F4F233BBB4201D2964203D901200EE0002001E000280AD16D1C4D
:40248000EDB2099B9D42B7D31C2463435B1802998B42ACD89642AAD8AAE70000A00C002079020000BAFF000030B47446641E2578641CAB4200D21D46635D5B00E31830BCDF
:4024C00018470000FFB583B0002469460C801F4606468C80002806D00598002803D004983043800701D0012466E0002FFBD03449049809888842F6D3FFF70CFBFFF7F2FAFC
:4025000000F016FC002855D100F07EFD002851D12C49084601F0EEF805042D0C4AD12A480499066081800021C18007810C98007AC00704D0684601F018FD040007D10C9852
:40254000007A800703D501A801F018FD0446BF1DFEB2002C20D13146059800F05DF804001AD10DF08BFE040016D16A461088928808368518144AF1B29088D288AEB293196B
:40258000984207D3401B801A80B201F0A3FB050007D000E0FF25012400F062FA002D04D008E0F8B200F01CF9F6E700F085FA07490120087000F0CEFB204607B0F0BD000010
:4025C000A40C002005270000FC100020AC0C002010B503480078012801D101F01DFA10BDAC0C002070B5084B0446DA889E8803205518B54206D8186880182060D8884018AC
:40260000D880002070BD0000FC1000200148008970470000FC100020F0B587B007460D4600208900009006916846FFF7DBFF844600285DD1304800990160002117E02E4B27
:4026400088001A680629115406D22C4C0419667882185670628805E0C419203CA67A8218567022891B68C018491C4280C9B2A942E5D300242DE0601CC2B2059025E01E4F16
:40268000A30039689600581840887118039604904E88B04217D938466F46FE80B6464F786E4677710297049F4F800168039F5E18767879184E700168764659184E800068F5
:4026C000029F18184770521CD2B2AA42D7D30598C4B2AC42CFD36046002809D168460699FFF780FF8446002802D1054900980860604607B0F0BD0000B00C00201837010074
:40270000B40C00207047000010B5002809D005494A68002A05D0011F08788000105801F087FA10BDB00C002010B50446FFF76EFFC0B2801DA0420CD307484068002808D061
:40274000A100405801F0E6F9002801D00470001D10BD002010BD0000B00C0020F8B516460D460446FFF752FFC0B2801DA04203D20020C0430090F8BDB2B2E9B2684601F077
:40278000EFF90099481C03D0024AA000526811500098F8BDB00C0020F8B50746FFF736FF801DC6B20A49002005460C680DE06178002907D06188B94202D32078FFF7B4FF05
:4027C000002804D1241D6D1CEDB2B542EFD3F8BDB00C002010B5002801D0FFF795FF10BD70B506460948002504680BE06178002905D062882078121D0023FFF7AFFF241D46
:402800006D1CEDB2B542F1D370BD0000B00C0020FFB581B00A9F16000C4620D000F0F6F8054604281BD0002F0CD03846FFF7B4FF20492A0151184860002810D03A4604998A
:40284000FFF723FC1B4928010E504618778101980570200406D47D20C000444304E0FF2005B0F0BD6404640C00F0BEF80746042807D000F053FAA0420BD800F04FFA201A6A
:4028800003E0204600F0AEFA0020F06035720020E6E700F043FA009000F0BAFA00980121001B009000F0F0F802493A0151180098C860E6E708110020F8B5042801D3FF2014
:4028C000F8BD060116483418217A042903D0E068002802D017E00020F8BD00F01FFA054600F096FA00F0A0F804280CD001010C480F18F8680021451900F0C6F80020F860E3
:40290000284600F06FFA6068054D002801D0FFF761FF042020720020A8516081E060DAE708110020FEB500266A46304601232549050169180D7A042D02D0C96800291BD096
:4029400000211154401CC0B20428F0D300246846005D002830D01B48210108184189476805680291002101604160042241810272C160002E02D015E01354E3E700F054F89D
:4029800004280ED001010F4808180190C6680021304600F079F801980021C160304600F021FA0126002D07D038460299A847002F02D03846FFF70EFF641CE4B2042CC6D3ED
:4029C000FEBD0000081100200EB5002005216A460090118150810348694600680EF0B3FA0EBD0000B80C0020074A0020010189180B7A042B02D0C968002903D0401CC0B2E6
:402A00000428F3D370470000081100200549002002015218127A042A03D0401CC0B20428F6D370470811002030B50A4B04200A4C00210A011219157A042D06D0D268002A94
:402A400003D09A4201D808461346491CC9B20429EFD330BDFFFF0000081100207047000030B50020074C05460423020111190B72A5504D60401C4D81C0B2CD600428F4D3AB
:402A800030BD00000811002030B5094C00231A011219157A042D04D0D568002906D02D18D5605B1CDBB2042BF1D330BD2D1AF7E708110020002070471CB5002469460C70CA
:402AC000142001902346054A05480EF041FA04480068401C00D1FF2420461CBD352B0000B80C00203EB5124A0146FF2000230124126800290DD0012914D0042908D1042097
:402B00006946009308814B8110460EF01CFA80B23EBD6846009304814381694610460EF00DFAF4E768460093048143816946EBE7B80C002070B54589046841680089030075
:402B4000FFF7B2FC08280509091E22282628002005F066FC1EE0022908D0C8B22A4621460CF054FB2046FFF735FE13E002202A4621460CF04BFB2946204600F00DF809E030
:402B800000200DF0DFFE05E02046FFF7CBFE01E0FFF740F8002070BD014B0022DB681847BC0C002070B5448905680089022803D0032809D0FF2070BD2246094C0023A4689C
:402BC00029460120A04708E0FFF7A0FA241DA2B200232946022006F020FC002070BD0000BC0C002070470000024800214160018041807047BC0C002070B50C46002186B0E4
:402C000016460391012802D0022859D116E003A9012006F057FC01281BD1039D324621462846FFF732FA0095287801900220694608814E816846FFF7B5FF41E0214D002B24
:402C4000686809D0049004A9022006F03BFC01281DD0022006B070BD002812D0298840182146FFF712FA28880024801980B228806988091D884206D12C801348FFF792FFF7
:402C800003E00320E6E788421AD96C6018E004986860E278A378110219430B4A698000231060E3565360032313815181A1788170E178C1706178417021780170042028803B
:402CC0000020C7E7BC0C0020481100203EB515460C46022803D004280CD000203EBD0091019002206946088107484A8100680EF02AF907E00CF08AFA044B0022DB6829463C
:402D00002046984701203EBDB80C0020BC0C0020014AD16090607047BC0C0020034801688068081A0A214843000970475411002010B5FEF7DFFE4C2204490548FFF7A5F96F
:402D400003490120C870002010BD0000343701005815002010B5FEF7BDFE10BD70B5134C2368002B08D0207B1149C20705D04008400020738868A08070BD88680B4AA1881B
:402D800080B29268814203D90A4D691A091802E0814202D2411A5118A160A080A0689842EAD30EF0EDF800F013F870BD54110020C0102E40FFFF000010B508461946FFF71C
:402DC000A7FF10BD704710B5FFF780FF10BD000003480021016041608160C1607047000054110020024610B5FF20002A0CD0FFF7EFFF064C0321207B0843207310010A21B5
:402E0000FFF718F82060002010BD00005411002000B504480A21806848430209FFF7D8FF104600BD541100200248007B8007C00F704700005411002010B54B490868002843
:402E400002DA4A4B01221A70022290430860484800694549C00B4031096A0246C907C90F0A4259D0012000F097FA3F480E216C30FEF73AFD3E4820218430FEF735FD3C48F4
:402E800014219C30FEF730FD3948FF21C131A430FEF72AFD3648FF212F31B030FEF724FD33483449BC30FEF71FFD31483249AC30FEF71AFD30492E48491CB430FEF714FD69
:402EC0002B482E49B830FEF70FFD29482C49CC30FEF70AFD26482B490830FEF705FD24482949A830FEF700FD214828498830FEF7FBFC1F4826498C30FEF7F6FC1C481921D3
:402F0000C9029030FEF7F0FCFEF7FEFCFEF70EFEC0B2022812D01FE000290BD0002101420AD0114801216030FEF7DEFC0120FEF7C5FD97E70121F2E7FF2010BD15491648A3
:402F4000FEF7D2FC14481549001DFEF7CDFC124800210830FEF7C8FC54200449C043891C0870002010BD000000F02E40CC0C002000002E40320300002F3F00003102000025
:402F800010520000EC160000FA12000031D000003AE300009956000080012E40F80F000070B50646581C80B245086D00002408E0304600F0C1F81055000A1119A41C487091
:402FC000A4B2AC42F4D3D80705D0D0182038D15CC47FD454C17770BD30B50A4C002100195B1E07E0541864782502545C2C430480891C89B29942F5DB994201D1515C018088
:4030000030BD000000102E4010B5FF2000F0C4F90F49FF2048700E481021801D41800121417001700A490020C91C4870FFF704FF04000AD100F010F907210648FEF744FCB0
:40304000044807211830FEF73FFC204610BD0000CC0C0020CC112E4070B5002405465B1E0AE0284600F068F8010A161971702D1D1055A41CADB2A4B29C42F2DB9C4203D19D
:40308000284600F059F8105570BD000070B500210A4D5B1E0AE0541864782602545C344346193480001D891C80B289B29942F2DB994202D1515C4019018070BD00102E406E
:4030C000F0B50599091FCFB200217E1E0BE0541864782502545C2C43164D45192C80001D891C80B289B2B142F1DBFC0712D01C78515C24020F4A0C4381180C809C785D7851
:40310000001D210280B2294384182180001D80B2D9780CE059781A7809021143054A84182180001DD9789B78090280B2194380180180F0BD00102E4001494018008870475B
:4031400000102E4010B50B490020487000F084F8002000F047F9002000F034F907210648FEF7B2FB044807211830FEF7ADFB002010BD0000CF0C0020CC112E4010B50B462D
:40318000062812D006DC01280CD0032801D1FFF7D9FF10BD0A28FCD00B28FAD105480078107010BDFFF730FF10BD1146184600F035F910BDD20C0020F8B5244DAC6A012786
:4031C000A007234E002816DA307806280ED1286A384328621F480069F903084381B21D481030FEF781FB042000F0D6F8174802212830FEF769FBE00718D000F01FFF0128D8
:403200000FD1002000F06CFF062000F0C5F81049FF20C91E48707078002802D1686B384368630A4801212830FEF74EFBE0050BD53078042802D1052000F0AEF80348FF21B1
:4032400001312830FEF740FBF8BD000040F02E40CF0C002000002E4010B503212348FEF743FB0120FEF71AFC20483038406A204C80076178800F890001431C480C38FEF7E6
:4032800033FB6078002808D0401E022181401820FEF7BAFEC000083800E0B82081B21548FEF722FB1348032109021438FEF71CFB10481149B830FEF717FB612189010F48A1
:4032C000FEF712FB0D480321001FFEF70DFB0C490C48FEF709FB0B480B496038FEF704FB084801218838FEF7FFFA10BD70F02E40D20C0020D8102E4090890000041E2E40AA
:40330000FF0F000058122E40209000000848017806290BD140780749002803D1486B400840004863C86A01221043C86270470000CF0C002040F02E4001480078704700009F
:40334000CF0C002000B50300FFF7AEF8080D050D0B070507090D012000BD032000BD042000BD022000BDFF2000BD0000074A9168D26889B2064B92B2994204D105498A422B
:4033800001D1012100E000210170704780002E4033D000003FE3000010B50446FEF7A2FB072C01D9FF2C01D102480470FEF792FB10BD0000CF0C0020014948707047000071
:4033C000CC0C002010B5064A012805D01921C9021046FEF789FA10BD1D21C902F8E7000090002E4010B50A4A141D012808D009491046FEF779FA08492046FEF775FA10BDF9
:4034000004491046891CFEF76FFA0349491DF3E788002E4031D000003AE3000070B50C460546FEF783FBC0B202280E49287804D0FF2810D04C280CD810E0FF2809D10A4A06
:40344000D0680004800F032801D0087807E09069000A553803E00878207070BD4F382070087070BDCE0C002000002E40F0B50122002834D0002932D00424420600D00524C2
:40348000792342065B06D21800D0641C034600221EE00C2516466E43124D00277519AF72104F002ABB51696007D0661EB24209D10D4E86197606760E05E05E06760E8027BC
:4034C000BE1B00E080269B198919521C2E81D2B2A242DED303480549006B002288611046F0BD0000E013002079020000D80C002018B50020694608700A48006900280ED068
:40350000132149014018047E684604704F21C900054800F05BF8A04201D0012018BD002018BD0000D80C002064110020074900200C2242435218927A012A05D0401CC0B2AA
:403540000628F5D30020704701207047E0130020F8B50F000446164609D01A4D1A496868A04202D94018A04201D38E4201D90120F8BD39462046FEF779FD002820D0324693
:4035800039462046FEF781FD0E49F0B2012620318E7600210C220B4653430A4A9A1813895568EF18A74207D9641B1B1B9672834206DAC01A1469C0B2491CC9B20629E9D3E3
:4035C0000020F8BDE013002079020000034610B50020024604E09C5C2018521CC0B292B28A42F8D310BD000070B500F05FF8084C064A216907480D46FEF747FD0549284625
:40360000FFF734FFFFF774FF207070BD79020000D80C002064110020002070470020054A002902D0012902D002E0906000E0D06000207047D80C002070B5084C154608460B
:403640000549E26889182A46FEF71FFDE0684019E06028B270BD000064110020D80C00203EB50A226946FFF7E7FF044606480A2200686946FEF7FAFC002802D00020C04382
:403680003EBD20463EBD0000DC0C0020002802D0044A914201D2FF20704703494A6108610020704779020000D80C0020024800218160C16070470000D80C002070B5074C8C
:4036C00015460548A26880182A46FFF741FFA0684019A06028B270BD64110020D80C002010B503490A220968FFF7E8FF10BD0000DC0C002010B50F4A002313600E4A1360FA
:403700000E4B18600E4801600E49012008600E490860000290600E490C4808600D4914300860FF381538506000F0BCF800F0CAF9002010BD0C0D0020F40C0020200D00203D
:40374000240D0020100D0020000D002028150020040D0020180D0020014610B50020002910D0094B1A689C685118A14209D25868196080188A0704D08A07920F891A091D54
:40378000196010BD002010BDF40C0020F8B50024164E671E321F3D463168136806E01422624310328A58521C1BD0641C9C42F6D36A1C14D02C461422544322460C32885088
:4037C0000C214843FFF7C8FF3168002808510AD031680020103408517068401C70602846F8BD2546E4E73846F8BD0000040D0020F3B50026F64381B000281BDB1E4909681B
:40380000884217D80299002914D01B4F142204463F1D54432546396810354859401C09D0FEF760F938682F1F4159C359994203DBFEF750F93046FEBD21460831009146583A
:4038400001590C20704308180C220299FEF71DFC0948761C001D0068C159B14200D100260549009A091D865008684159491C4151FEF730F90020FEBD000D0020002803DB9B
:4038800007490968884202D90020C043704704491422091D096850431030085870470000000D0020F0B500200D4A451E0346171F50600FE014260146714314680E1DA3512A
:4038C0000C461668083433511668083435511468401C635039688842ECD30020F0BD0000040D0020F3B50026F64381B0002841DB2349096888423DD8029900293AD0204FD0
:40390000142204463F1D54432546396810354859401C2FD0FEF7E6F83868415900292BD0211D009146580C21005971430F46C1190C220298FEF7A9FB11480021001D006860
:40394000761C00590C34C0190160416081600C48001D00680159B14200D100260849009A091D865008684159491E4151FEF7B2F80020FEBD3046FEBDFEF7ACF8FAE7000034
:40398000000D0020FEB504460D4600201E49089E0860471E009001900290002C11D0486885420ED2002A0CD0002E0AD0642E08D808460C3001681C2068430C18207A002839
:4039C00001D03846FEBD0120226020721846FFF7DDFE6060401C13D06681A6810A4827610C3067610179A94200D205710021684601810A462846029B00F040F82846FEBDC4
:403A000000202072DDE700000C0D002038B50124009400F039F838BDFEB50027164EFF433D4600240EE01C20316860430818017A002906D04068FFF721FF002801D02546D2
:403A400003E0641C3079A042EDDA681C12D01C2130684D434419FEF745F869466068FFF741FF0546FEF736F8002DD9D1216868468847D5E7FEBD0000180D002038B5002472
:403A8000009400F001F838BD1FB500220C49541E0A60002811DB496888420ED808491C220C31096850430818406801A9FFF7A0FE401C02D0002004B010BD2046FBE700000B
:403AC0000C0D0020F0B50021114A4D1E174611710C3F0B46BD6016E008461C2460431668041D355114680646235014680836A3551468361DA353044616680A343353183097
:403B00001468491C255078688142E5D30020F0BD180D002038B500210091002811DB0F49097888420DDA0D4D04010C3529680859002807D0201D0818694600F06FF9002868
:403B400001D0002038BDFDF7CDFF28680F34015D491E0155FDF7BEFF009838BD280D0020F7B582B0002502986E1E06602E48D21C024017462D4A2C4610460C380178106818
:403B800005E02301C358002B0FD0641CE4B28C42F7D3711C28D03401211D40180191039900F02AF900281FD101E02646F1E71F48016820460C300F521C48039902682046B8
:403BC0000E30115419480399026820460F3011540398784300F0A0F8144900280968085102D00024009011E001251AE00F48016801980818009900F02CF9002801D00125A7
:403C000002E00098C0190090641CE4B203988442ECD3002D05D10298066004480179491C0171284605B0F0BDFCFF0000340D0020F8B50D4600216A468C461180002839DB2F
:403C400023490978884235DA214B04010C3319680A59002A2ED020460C300B5A801C0E5C184670438018954224D3854222D2002006E007465F43BF18AF4206D0401CC0B222
:403C8000B042F6D36046002814D0114E271DC8190C366A46294600F006F900280AD168460088012808D030682946C01900F0D1F8002803D00120F8BD0020F8BDFDF712FF45
:403CC00030680F34015D491C0155FDF703FFF3E7280D0020F8B50F46002400F031F8002817D10C4900220B460C334A600EE021011D680E466A501D680C36AA53B61C1D68ED
:403D00000F31AA551D68641C6A54E4B2BC42EED31A71F8BD280D002000280BD0C01C074A81085068890053884118994203D89368516018187047002070470000280D0020F4
:403D4000F8B5064600200F4D009029700C0121466846FEF747FC00280CD129460C3100980860301B001F84B221466846FEF73AFC002801D0FF20F8BD6C800098A860002041
:403D8000F8BD0000280D0020F8B5002827DB19490978884223DA174C05010C342168485900281CD028460C30085A009028460E300E5C401C0E5420682F1DC01900F064F828
:403DC00000280CD12068002445590EE0094829460C300068C01900F03CF8002801D00120F8BD00982D18641CE4B2B442EED30020F8BD0000280D002030B50D4604000BD06B
:403E0000A800FFF789FF6060002805D000202570C0436080002030BD012030BD70B50D46040005D0002D03D00220205E002801DA012070BDFDF756FE0221615E606889002F
:403E4000405828606088401E6080FDF743FE002070BD70B50D46040007D0002D05D002212078615E401E814201DB012070BDFDF739FE6088401C00B26080616880000D50B9
:403E8000FDF728FE002070BD10B5040009D0227800216068FEF702F90020C0436080002010BD012010BDF0B500231D46002802D00224045F0AE00120F0BD46689F00F659A6
:403EC0008E4201D1012503E05B1CDBB29C42F4DA15700020F0BD000001480078704700003C0D00207CB505460024FEF70FF9A8796946087000A8062229460130FEF7C5F82D
:403F00000021684604F05EFD0C2806D0072806D01F2806D0122806D006E0022404E0042402E0272400E0012420467CBD01480121417270476416002010B500F05FF9FFF7CC
:403F4000FBF9FFF7FFF910BD70B504460025FEF7DDF8002C06D0A079012803D8214602F0C9FC00E00125284670BD01460120002902D05020088000207047000001460120BC
:403F8000002905D0034854220078504308800020704700003E0D002010B502460D49FE204870032410460DF0F1FA002810D10DF095FA00280CD105F0E1FA002808D100F074
:403FC000F9FA002804D104F0A3FF002800D10024204610BD3C0D002070B50025044600280ED0A07901280BD8FEF790F8A0790028204602D003F010F803E002F0E5FF00E039
:404000000125284670BD0000014610B50120002904D006220248FEF738F8002010BD0000480D002001460120002903D00878024908700020704700003E0D00200148007AF0
:40404000704700006416002038B504460120002C20D0617801291DD800290BD0FF25E535FEF754F80C4828180088C0B22070072803D00EE0FF25CD35F2E7002069460870AC
:404080006846FFF773F969460878012801D108202070002038BD000000102E40014A0021926810473C0D002008B500226B461A7026280CD0094A342852680BD0352805D19A
:4040C000900703D50021352005F034FB08BD19462620F9E7D007F9D03420F5E73C0D0020014908727047000064160020F8B504460120002C26D06178012902D92278092A3A
:4041000020D8002905D0FF25E5352078092803D004E0FF25CD35F8E708202070FDF7F6FF2078114F114E08280DD00020FFF75AF970780128207810D00D4969180880FE2052
:4041400070700020F8BD0120FFF74CF90720B8810549203188800120F2E7B8810248217820308180EBE70000C0112E403C0D002000102E4070B50E46050001D0002400E075
:404180000C4C002C11D0E28A500609D5D107C90F022002F0D5FFE08A40218843E08204E0D107C90F012002F0CBFF3146284602F0AFFC70BDC4150020F8B5054600200446EF
:4041C0000D4E009013E022466946284601F004F80098002801D00DF0BBF9A878214602F0F1FAA878214602F0DFFA641CE4B2308AA042E8D8F8BD00009016002038B51E4C33
:40420000FFF79AF8042813D0052811D0062812D003282AD007280AD100206946087002460120FEF7ABFFFFF787F80128FBD138BD00F09CFB38BD02F01BFB00F097FB02F0F4
:404240007BFB8007800F0228F4D10C4841880029F0D05B21095D0029ECD101210170A07D0140022002F06CFF38BD02F005FB0120FFF792F838BD0000C4150020620D002080
:40428000F8B50646002402F0C9FF0546304602F0DFFF03460A480021068A0DE001228A401046174628401F40002803D0002F01D1224394B2491CC9B28E42EFD82046F8BDBD
:4042C000901600201CB50020694648706846FFF7BBFE01AA69460A20FEF750FF6946042008561CBD70B50D4601F05CFB04000BD02079002808D0FDF709FFE178A0782A465C
:4043000002F08CFC002070BD022070BD0148007970470000981500204030C07E002800D00120704700B500F001F800BD902148430749084A40186030417F491CC9B241772A
:40434000D289914201D300214177C8B270470000A41500209016002013B501F023FB04000BD001F0C0FE002807D0214601AA0A310620FEF703FF00201CBD02201CBD0000D0
:4043800010B50C4601F00EFB00280AD001F0ABFE002806D0224604490A20FEF7EFFE002010BD022010BD000085150020F3B581B0074601460026029802F028FF0446002F3C
:4043C00001D0002500E0154D002D21D0284601F01FFB032C04D13946029802F073FF06463846029902F0E0F9032C06D0002C10D00121384601F012FC03E03146384603F0C2
:4044000071F9284602F0C4F80221284602F0DAF8FEBD3846029902F0C7F9FEBDC415002010B5044600F04CFA002804D103F03CFE002801D00C2010BD2078611C02F0F4FC0F
:40444000FF2801D01F2010BD02F03AFDFF280AD02178621C02F036F9044821780068026B601C904710BD072010BD0000880D002010B503F019FE002801D00C2010BD02F0A0
:40448000B5FC03480068C06A8047002010BD0000880D002070B50D46044610210CF098FF1021601806460CF093FF334610221946204603F027FE102130460CF089FF022027
:4044C0002870204604F05AFC70BD0000FEB504464078217802028006870FE0781143A5780E050002360D0543304601F05BFAEAB23B4621460096019000F0FAF90006000E12
:4045000014D10B48224600680199436928469847C0B2FF280AD10198EAB24030817EFF23491C81762146019800F0E1F8FEBD0000A40D00200020704710B5044603F0B4FD6B
:40454000002801D00C2010BD2078611C02F06CFCFF2808D002F0A0FB044821780068426B601C904710BD1F2010BD0000880D002010B500F06BF904F0CBFC002010BD10B5ED
:40458000044600786178E2780843A17811430843217908436179084305D003F077FD002803D00C2010BD122010BD204602F034FD002010BD10B5FDF7B9FA02F051FE04485B
:4045C00003F0DEFD02F072FB012000F003F810BD6C150020F1B586B003A8009005A8019028489F22017B114001736846FDF7A8FD002845D169460989C90705D022480699D9
:404600000068C2686846904769460989890706D5002835D11D480068816A0698884700282ED11B4E0025757075737571F575357675767575B570F570B5713746F57301205C
:40464000D03738731F20F880FF2130467972A0300176457600F008FB00242046069901F0EDFC002803D1641C2406240EF5D0FD720749BD72B573C0310D704D704D600D724E
:4046800007B0F0BD58150020A40D0020880D0020A415002070B505460E46084602F0BEFD0446304602F0D4FD0121A9400A46224001400A4301D0012070BD002070BD10B5EC
:4046C0000446084602F0C4FD0121A140014201D0012010BD002010BD10B5FEF72DFE032804D102F0C9F80120FEF756FE10BDFEB51C4616460F46054601F04AFFA878FFF74D
:4047000011FE02460190334639460094284600F00DF8002808D1A8780199FFF72BFDFF2C02D138460CF014FFFEBD0000FFB585B005460E980C46FF2810D02B49C0000968AB
:404740000A5840180179C0795278814201D9012601E09006860F6846038108E06078A1788006860FE0780002014368460181284601F0C4FC070007D021462846079A00F0DB
:40478000BFFC384609B0F0BD304600F06DFD04AE0346039002AA29460096204600F0F9FB3C20405D002818D0284601F0A7FC012813D0684600890096C0B20190A878231DBA
:4047C000FF22079902F058F968460089039BC2B2A878079902F09CFCD3E7684600890021C0B20091E9E70000A00D0020F8B5002600253046FFF744FD07001DD090201149CD
:40480000704340186030447F12E0601CFDF712FBCCB23846E040C007C00F07D02146304601F0BAFF21463046FFF7C0FD6D1CEDB20548018AA942E8D8761C3606360ED7D0A7
:40484000F8BD0000A41500209016002010B502F02DFA0020FFF7BEFE0CF010FF002010BDF8B5002400F0F0F80123012800D10124104F00203E4620360425082203E0002899
:4048800001D0002100E031460979002907D001290BD002290BD0114681402143CCB2401C0006000EEBD07C70F8BD1C43F7E72C43F5E70000A415002010B5FFF7D1FF10BDA3
:4048C00010B5044604F076FC002802D1601C00F001F810BD1CB500240094062269460194FDF7C4FB002800D1122420461CBD0000F8B5044600201E4617460D46002C12D0C7
:40490000002D10D0022E0ED0032E0CD0002F0AD02179092907D0002905D013494A7F5A21095D8A4207D82089002104F05CF928460CF00EFEFF20E18F012905D1002F03D0DA
:40494000012E06D0002E04D0374301D10121E187F8BD0021E187069A2A70069A120A6A70AF70E970F8BD00005815002010B5FCF7A4FF0446FEF7E0FC012809D0FEF7DCFC4D
:40498000022805D0FDF7AEF92046FCF79AFFEEE72046FCF796FF10BD10B50B4681791943817103D08078114602F080FB10BD10B582798A43827102D1807802F08BFB10BD91
:4049C00030B50C4C0220A28A0B4B9978002901D0022906D11D785B78EB18282B01D9032002E0032900D101205105490DC0020143A18230BDC0112E40580D002000B500F0E3
:404A000029F8002807D0012805D0032801D0042801D0002000BD012000BD014600B50020C90701D000F010F800BD014600B50020C90701D000F008F800BD00000148006817
:404A400070470000500D002001480088000A704720102E400448008B410501D5042070474007800F7047000000102E400148406870470000500D00207CB504460025684686
:404A80000570200610D5FFF7E5FF01280CD101A801F0F8FE6846007900F036FB012001F0DFFD0220FFF708FF600712D50C48017901290ED10571684601F0E4FE684600786F
:404AC00000F056FB0220FFF7F7FE00212620FFF7EBFA044800680169204688477CBD00005C0D0020880D002010B501460A4A007800241070FFF7A8FF0128084603D002F007
:404B0000F7F9204610BD00F0E7F80400F9D1034801210170F5E70000580D00206416002070B50446FFF790FF002801D00C2070BDA27B01211F48002A827801D00A4301E0CD
:404B40005208520082706279012A14D0C17849084900C170184D2868016820468847207901280CD06188208803F04CF82080207904280FD015E0C2780A43C270EAE728685D
:404B8000C168E01D8847E01D02F032FA0B48008D208006E02868C168E01D8847E01D02F027FA074920798870204602F0AFF9002070BD0000A4150020880D002058150020A1
:404BC000580D002008B50178FFF73EFF814201D10C2008BD002914D0072069460870FFF70DFF012807D10121684600F0E5F8012801D0092008BDFFF7E3FE02F0BBF90120C0
:404C000011E0FFF7FBFE012806D1684601F03AFE6846007800F0ACFA02F0A2F9FFF714FF0028FBD10220FFF747FE002008BD000010B501460A4A007800245070FFF704FF80
:404C40000128084603D002F011FA204610BD00F065F80400F9D1034801214170F5E70000580D00206416002038B568460CF006FC002801D01F2038BD01210098C9020180BA
:404C80004180002505714571857107214173857302F03CF9009C202200212046FDF7FEF925702A460021601CFDF7F8F9204602F01FF9204602F0DAF900980CF049FC06227E
:404CC00000210448FDF7EAF902480C388560002038BD00005C0D0020F8B5044600250D4800950078012806D068460CF0C7FB002803D007250CE00C250AE0074E00983060CB
:404D00002278611C401CFDF7C0F93168207808702846F8BD64160020500D0020F8B5044600250D4800954078012806D068460CF0A5FB002803D007250CE00C250AE0074EE6
:404D4000009870602278611C401CFDF79EF97168207808702846F8BD64160020500D00200346084800B5834209D8184600F01AFE002804D00089984201D1012000BD002021
:404D800000BD0000FF0E0000074A9179491C8906890E917138220A4092014907090E11430843024908407047A4150020FF0E0000C006C00E70470000F8B507460E46002417
:404DC0000D4803E0002C01D0002500E005462979002905D0641C2406240EF3D00020F8BD0021204601F02AF92E712046FFF7CCFF28813C700120F8BDC415002010B503F0DD
:404E0000B5F90222002100F003F801F0FBFE10BD10B5094B40074907000F090F185A595A40185043C0086421FDF704F8002800D1012080B210BD000080370100F7B53D20DF
:404E4000405C88B015460C46002802D02878042802D200200BB0F0BD6946087200262046FFF75AFA012800D00126204603A938300191009023460327A17E34333246206AB9
:404E800003F098F902A8089900900B46019120463A4603A9243003F015F902466846007A2870204601F0B6F81046D3E7FFB587B00C4605461078694608723D20005D17465C
:404EC000002826D000262046FFF726FA012800D00126204603A93830019100902346A17E34333246206A03F065F902A80090291D019120462B1D03A924300A9A03F0E2F8C3
:404F000002006846007A388002D1204601F082F810460BB0F0BDF0B505463C20405C89B016460C4600280CD0307869460873002806D000272046FFF7EFF9012803D003E040
:404F40001F2009B0F0BD012703200890204604A93830019100902346E17E34333A46E06903F028F96846007B03A928180290009120462B46019504A92430089A03F0D6F8F7
:404F800002466846007B3070204601F04DF81046D7E7FFB505463C20405C89B016460C46002810D0084601F0A9F801280BD0308869468883002809D000272046FFF7ACF9CB
:404FC000012805D005E000200DB0F0BD0220FBE70127204603A93830019100902346E17E34333A46E06903F0E5F8291D2B1D07A8129A6D4607C5204603A924300C9A03F04D
:4050000095F802466846808B3080204601F00CF81046D9E770B50D460446FFF77DF901280AD0E87AA97A00020143A07801F0E6FC012808D0002070BD00222421204602F0CD
:4050400027FD242070BD28214C200155204600F0B1FB282070BD0000002801D0002000E003484030C07F012800D0002070470000C41500200146002049070ED50021084B4F
:4050800003E0002901D0002200E01A461279022A04D0491C0906090EF3D0704701207047C41500200146002049070ED50021084B03E0002901D0002200E01A461279022A4C
:4050C00004D0491C0906090EF3D0704701207047C415002010B5044680346068002803D00CF04AFA0020606010BD40304170704740308170704740300170704701717047E2
:4051000092001018C166704770B53C2501F0C0F9040004D020460021433001F023FCFF222946204600F0E8FB002C02D0A07801F031F970BD10B5002801D0002000E0034895
:40514000002802D0008903F095FD10BDC415002010B5002801D0002000E00448002804D00179072901D100F047F810BDC415002010B501F08DF9002802D0807801F00AF9C8
:4051800010BD00207047000070B50546008A00281ED01049F122097B1140C90618D5294640314A8A098A521C4A4392B2D10800D10121540801E0621A94B2A042FBD9FEF742
:4051C0008BFE012804D1298AA878224601F0DCFC70BD00005815002010B50023054C0B60248A944204D992001018C26E0A60C36610BD00009016002038B50446002000906E
:40520000A079002814D14020015D052901D00E290ED168460CF042F9002809D12046009902F014FC03481021428B2046FFF7B4FB38BD00005815002010B50B460446014610
:40524000184602F073F8002802D020460CF08AF910BD13B5044601AA11460620FDF78EFF6846818861811CBD002800D10220704770470000F8B504462346401D543300903D
:405280009A1EA078911E01F019FB25464035A88A298A8000FCF7CEFD401E81B2688A884203D96982A07801F085FF698A8C20015120460021433001F055FB27480088E8813A
:4052C00002F054FFE989891C8AB26179FFF7A0FD01F098FC02F04AFF2A8A6179FFF798FD074601F083FC688A002806D01B49088A032212021043088202E0002001F04EFFD7
:405300001648803801886E8A002E0CD0304648431349FCF779FE0004000C01D0401C80B21049488002E00F4800214180288A704381B2A07801F0A8FEFF2228374932B9B2AD
:405340001346204602F062FCE98AA07801F01CFEA07801F049FAF8BD80102E40E0112E4071020000620D00207FB504468034616805460E46183108226846FCF786FE31467F
:405380002031082202A8FCF780FE102168460CF01FF86068102108300CF01AF860682B46083024331022694602F0ACFE7FBD10B504460821FFF7FBFA10212046FFF7F7FA04
:4053C000207905281FD006281DD008281AD12189002003F0C7FB072020712046FEF79CFF014620464030012913D00E21017000210176204600F0E0FF2046FFF76BFE2046D3
:40540000FFF7C2FE10BD20890122002103F08EFBE1E70521EAE70000FFB581B01F4604460821FFF7C4FA10212046FFF7C0FA2079082803D0092804D0042203E00422012513
:4054400001E009220025204600F044FE264600204036307022712046FFF73CFE0398002D02D0012808D00BE001280AD120890022029903F05BFB04E02189029803F072FBD7
:40548000012700203076012F04D0204600F094FF05B0F0BD02983073204602F025FB054605480121428B2046FFF776FA002DEFD109202071ECE700005815002070B50C4629
:4054C0000546FEF729FF012809D108212846FFF76EFA0023012221462846FFF79DFF70BD10B5044600F0F6FD2046FFF7F3FD00214034217010BD70B505461A24FEF70CFF93
:40550000012809D108212846FFF751FA0023012221462846FFF780FF70BD0000F8B50446002000900E4668460BF0B8FF002801D00D20F8BD8420005908212030009D00F09A
:405540002CFA20460421383000F027FA002E02D1204600F0FBFD2946204602F002FA0E480821428B2046FFF717FA204600F095FF25464035002808D0204600F023F80028D3
:4055800001D0092028700020F8BD08202870204600F0FEFFF7E7000058150020014610B540310A460978082906D0092907D00A2901D100F091F810BD0B20107010BD00F0F5
:4055C00001F810BD70B50446007925464035052805D0062803D008280FD00C2070BD03220621204602F054FA0D480821428B2046FFF7D2F91120287010E00620287320466E
:4056000002F072FA0646AA8A0A20424301212046FFF7C2F9002E01D109202071002070BD5815002038B504460020009068460BF035FF002801D00D2038BD2046009D00F03E
:40564000C3F908202071204600F080FD2946204602F0BEF900213D2001550F2040210855204600F095FF002038BD00B5024600F031FD10214032117000BD10B50446FEF7A4
:405680004BFE012809D04020005D112805D100231A4606212046FFF7BFFE10BD10B5FFF786FE10BD38B504460021684600910BF0F5FE00280CD12046009902F00AFA05486B
:4056C0000821428B2046FFF767F90D204034207038BD00005815002038B504460021684600910BF0DBFE002801D00D2038BD2046009902F0E3F905480821428B2046FFF753
:405700004BF90C2040342070002038BD5815002000787047F8B5002569460D70002801D0002400E01F4C002C18D0204600F0DBFC002813D0207903280BD005280CD026465E
:405740004036B18AA07801F0A9FCB078012806D01DE0042020711DE006202071F8BD0021204601F000FE274680373868002802D00BF002FF3D600020B0702079072802D1E0
:405780002046FFF701FD0221204600F01BFF20790428E3D1207A694608703420FEF784FCF8BD0000C415002010B54C22115400F052F810BD10B50446FF21FFF7F8F809206E
:4057C0002071A07801F090FC10BD000038B5FF216A461180002801D0002400E00B4C002C12D011460620FDF7C9FC684601882046FFF72FFD204600F087FC002804D10448EF
:405800000068C1692046884738BD0000C4150020A40D002010B504468079002809D022214C200155FF212046FFF7C1F8204600F012F810BD10B5037902464032002B03D079
:405840001173092B02D003E0002100E02221117300F001F810BDFEB504460089002700902781207926464036002817D0012815D002280AD112E002AA01A9204601F044FDDB
:40588000002807D101980BF06DFE204601F064FD0028F0D02046FEF78FFCB776254680352868002802D00BF067FE2F606868002802D00BF061FE6F60317B002919D0009854
:4058C00000F064F8A078002100F0AAFF2046FFF795FAA07801F07CF8A07800F05BFDFF212046FFF764F80B20FEF7E6FF00F068FCFEBD1F213173E2E7F8B517460E46054680
:4059000002F030FC04003CD020460C3001F01AF82046062200211830FCF7C0FB2046062200211230FCF7BAFB1648224600683946436A28469847074626702846FEF7ECFC81
:40594000012148406070002D10D02889608028464030C1782171002E0FD169796171018AE180418A2181808A608106E00648008BC005C00F2071002060803946204603F0A4
:4059800074F8F8BD880D002000102E400A4610B50146002003F086F910BD10B50BF0F4FA10BD000000B50146FFF702FA002801D0002000E00348002802D002898A4200D00A
:4059C000002000BDC415002038B5044680346068002806D168460BF071FD002801D100986060606838BD000010B5014600F086FB0128887802D0FEF799FC10BD90214843EE
:405A0000024940186030007F10BD0000A415002070B5054604464035A87F012811D1A1789020084A484380186030067F3046FEF731FE002805D10220A877A078314601F001
:405A400071F870BDA415002010B50C4CA07A002813D0FEF7CBFE0A48027F417F408B00F0B7FB012809D10020A07200F021FF05498989090B01D000F03BFA10BD7416002091
:405A8000A4150020A0102E4070477047490510B5490F0B00FCF708FD060704080C0C0F073E21FFF781FE10BD0821FFF7C3FE10BDFFF7D1FE10BDFFF7ADFE10BDF8B5074684
:405AC0000025002D01D0002600E0204E00F0BEFE3046403044890021418100F0C1FE304600F001FB01282BD1A00702D52846FFF711FEE00602D52846FFF768FEA00601D5A3
:405B0000FEF774FE600601D500F014FB200602D5284600F01DF8600702D5284600F02CFA380402D52846FFF713FB780402D52846FFF700FBE00703D021463046FFF7A6FF28
:405B40006D1C2D062D0EBCD0F8BD0000C4150020F8B5002801D0002400E0284C002C4BD025464035A878012846D1FF278820493700593E46002805D02149097B890601D5D4
:405B8000878AC68A2046FEF7C7FB012834D002F0EDFA2A8A6179FFF73BF9009001F026F800983346283081B23A46204602F02EF8E98AA07801F0E8F912480188688A124EDE
:405BC000002810D048431149FCF71EFA0004000C01D0401C80B27080A07DC107C90F002001F0AEFA01E000207080288A698A484381B2A07801F048FAF8BD0000C41500208B
:405C00005815002060112E40620D0020710200000149096809680847A40D002070B50D460026194A0146002801D0002401E014462034002C26D0204600F060FA01280AD1E0
:405C40009020484380186030007FFEF723FD002801D101F0C9FE0D48006881692046884700280CD020464030817EA94202D3491B817600E086762089294602F0B4FF2046AC
:405C800000F086FC70BD0000A4150020A40D002070B503460088FFF785FE040013D000F022FA00280FD02079092819D02546997840352973204601F017FF0646A8780128F0
:405CC00003D0AA8A02E0022070BDEA880A20424301212046FEF760FE002E01D109202071002070BD0EB5002217216B460292198100905A810120029B00990BF0DDFC0EBD0C
:405D0000F8B518480024807A002822D1164E0025B089000B22E0204600F034FE1249A039401807882A462146384600F051FA012810D00E480122478305770A4944778A7249
:405D4000002D01D0002000E02030002801D000F01FFCF8BDB089000B641CE4B20028DAD1F8BD000074160020A0102E40A415002010B50088FFF716FE002809D00146403189
:405D80000C460978082905D00B2903D00C2010BD022010BDFFF716FC002801D009202070002010BD70B503460088FFF7FBFD040008D0254640352878082805D00B2803D029
:405DC0000C2070BD022070BD8420005910220830991CFCF75AF92046FFF7C6FA2878082804D02046FFF778FC002801D00A202870204600F0CDFB002070BD000010B50C46CC
:405E0000002121700088FFF7CDFD03000BD000F06AF9002807D00948F121007B0840C00603D4112010BD022010BD022020701A8A1889002102F052FF002010BD58150020B3
:405E4000F8B50F46002100910088FFF7ABFD040012D000F048F900280ED0E079410641D4617E02264A07002A08DB8907402500291ADA2843E07135E00220F8BD02F072F9FA
:405E80000021017021894180A1898180217E4170E189C1803E7005460178134802F0ECFB284602F0BFFE1DE0204600F02DF9012806D068460BF0F2FA002803D00720F8BD18
:405EC0002A20F8BDE07900992843E071204601F035FE607E0421304360760448428B2046FEF75AFD0020F8BD1D040000581500203EB500220F236C4602922381009101907E
:405F0000628169460EC900200BF0D6FB3EBD0000F8B50F46054600F0BBFA040025D003202071254600264035EE76E6702046FFF7A1F901F015F80920FEF7BEFCA07800F0DE
:405F400035FD0121204600F03DFB2E706E70AE703A4600212046FFF7CFFC0649887B401C8873A078FFF754FEF8BD284601F0BCF8F8BD0000A415002010B5002801D00020A0
:405F800000E0094800280DD0014640310A464978022901D100215170807DC107C90F002001F0CEF810BD0000C415002070B503460D460088FFF7F6FC04000BD000F093F83E
:405FC000002807D01248F121007B0840C00603D4112070BD022070BD20464030418A008A491C41430804C10C5888884201D2122070BD20822079072802D12046FFF7C4F80B
:40600000022028702089002102F090FE002070BD58150020016A491C016204D1817E491C4906490E81767047C169491CC16104D1C17E491C4906490EC1767047F0B5074612
:4060400087B003A8009005A800260D460190002F01D0002400E01B4C002C05D06846FCF76FF8002803D00BE0022007B0F0BD68460089C00704D1902200212046FCF70EF812
:40608000114829460068826820469047050016D1A77066762746267140373E70204600F019F8204601F054F9084820820848BE77007BF121084000D001202075E682E8B2A2
:4060C000D3E70000C4150020A40D0020B80B000058150020002101628176C161C17620300177417770470079002805D0012803D0022801D001207047002070474030807F36
:40610000002800D00120704740300078002807D0012805D0052803D00E2801D0012070470020704710B5807801F092F8002800D0012010BD10B500F0BBFB03498989090BF9
:4061400001D0FFF7D5FE10BDA0102E4070B5054604464035A87F002825D1FF206075A0789021154A484380186030417F9023491CC9B24177A0785843104B8018DB896030B2
:40618000994201D300214177A0789021484380186030467F0677A1783046FEF77BFA002802D00120A87770BD0220A877A078314600F0B8FC70BD0000A415002090160020F9
:4061C0000020401C0006000EFBD0002070470000F0B58707164685B0000ABF0F6A469080002E01D0002400E0684C002C1FD0084600F0C8FB03906846808800280DD0032FBE
:4062000016D0002000902089029068460BF016F9002866D0002005B0F0BD5D490398401801882046FFF715F8304600F0E9FAAAE00020029002A80BF011F9002807D03D20DA
:40624000005D0128F3D12046FFF7E4FE9BE068468388029F202B14D31F233A4600210398FCF79EFE684680881F3885B2012304AA00210398FCF794FE6D1E2D042D0CF5D170
:4062800004E03A4600210398FCF78AFE40490398401801882046FEF7DCFF304600F0B0FA01AA21463846FEF7C9FD002806D038460BF044F93D204C21085533E0FE7769469B
:4062C0003878898801F092FC00283946204602D001F0B0F957E001F0C2FA38460BF02EF951E06846009D83882A1D00210398FCF757FE27490398401801882046FEF7A9FFA0
:40630000304600F07DFA2046FFF7EDFE002805D026464036307E00281CD107E028460BF003F930E02046FFF745FA2CE0012F09D0022F07D03D20005D0128EFD12046FFF784
:4063400069FEEBE73B4601AA21462846FEF7AEFD002805D028460BF0E7F83D203073E1E73846FEF785FF01460298287002980901000A0843687068468088A870000AE870C5
:406380002846FFF7AFFC012045E70000C415002000102E4010B5074A917B002901D0491E91730021FFF74AFE002801D0002010BD012010BDA4150020F8B5074606464037BA
:4063C000B87F00282DD0B078902100904843234945186035287F0099FEF771F901281ED0287F401CC4B21E48C089A04200D800240020B877FF276F772F77A8770246014684
:40640000009800F0FFFC717DFF2903D0304600F060FF777501F0E8FA0025114F19E00320B877F8BD00200090224669463046FEF7D3FE0099002904D0FF231A463046FEF761
:4064400056F9641CF889E4B2A04200D800246D1CEDB2F889A842E5D8F8BD0000A41500209016002010B502460021084B03E0002901D0002000E018460479944204D0491C6C
:406480000906090EF3D0002010BD0000C415002000B50120FFF7E6FF00BD10B5044601F061FE2189018080346168416061682831816002F071FB10BDF7B50646087982B01E
:4064C0000C46092807D0A078F0770846FFF716FE012806D010E030460BF044F8022005B0F0BDA1789020294A484380186030007FFEF7D0F8012810D0A078FEF7ADFD012837
:406500000BD037780121304601F016FA25462035062F38D00B2F0FD107E06846027C21463046FEF789FE0D20D9E72046FDF7F4FE012801D1002028772046FFF755FA0546CC
:4065400004AA21463046FEF7E6FC01205F2108556946097C002001910090A07833463A46294600F089FA69460A7CA0780323294600F0CEFDA0782946FDF7FCFD30460AF0D1
:40658000F1FF0020ABE70120D5E70000A415002010B502464032937F0021002B03D1927E002A00D00121064A927A002A00D000210279092A00D10121807800F0E1FD10BDFB
:4065C0007416002070B50C460546FDF7A5FE00280BD1012C06D92879092806D02846FFF7A1FD0446002C02D004E0012402E0A87DC007FAD1A87DC107C90F204600F0A0FD3C
:4066000070BD0000012807D0082804D104480282034808300180704701488038FAE70000A0102E40014908817047000000102E4010B50446FF20F130012C01D1FF20D53023
:40664000002200F0CFFD044A108A044980B2A0430880108210BD000000102E40660D0020034B198A034A89B2814311801982704700102E40660D002010B50446012802D0BF
:40668000082C07D102E0FF20D53001E0FF20F13000F0A0FD0348018A034A89B221431180018210BD00102E40660D0020034B198A034A89B2014311801982704700102E4048
:4066C000660D0020F8B505460120A84086B214460F46012231467C2000F084FD3A463146782000F07FFD6078267800020643E078A2780002024360792379000203430C201A
:4067000045430D2080010549281844182680001D44182280001D40180380F8BD00102E40CB065B0E0343480901021943D00108430121C902084301490881704780142E403D
:406740004278037812021343084A1382C37880781B021843908248780B78000203431383C8788978000201439183704700142E40024A1080000C90801181704700142E401E
:40678000044A002180180288491C89B21029FAD37047000000102E40024A10820148803081817047A0102E4010B5054A1082084600F03CFD024A0021A03A8018018010BD75
:4067C000A0102E4010B50B46044600F005F819462046FFF7E1FF10BD024A10820148803001817047A0102E4010B504490882FF20002220211D3000F0F5FC10BDA0102E4061
:40680000000202494D3008807047000000102E400249888A0422904388827047C0112E4010B5084B074C0202A03B0029208202D075321A8010BD04490020088088807632E1
:40684000F7E70000A0102E40201A2E4000B5034908884880FFF704FF00BD0000660D002000B502484088FFF721FF00BD660D002010B5FCF74BFD10BD0149522008807047DD
:4068800000102E4000210170704700000748808806492039098B884201D8081A03E00022D243101A401880B27047000020112E400148008AC0B27047A0102E4070B5084C02
:4068C000049D2082074804890548603006880E8001891180808818806007400F287070BDA0102E40E0112E400148008970470000C0102E4000280FD00D4A108B0870000A8B
:406900004870908B8870000AC8700948203000880871000A48717047064A10880870000A487090888870000AC8701089F0E7000040102E40C0112E400148008A70470000C3
:40694000001A2E40064B1A8999891B8A0270120A42708170090AC1700371190A4171704760102E40012904D00549098BC90B017070470349403109898907C90FF7E7000010
:4069800000102E40014840897047000090160020044A10820448028980894843101880B270470000A0102E40901600209021074B414300B5C918FF2260314A770A77002257
:4069C0008A77114600F01EFA00BD0000A415002090225043074A10B58018FF21603041770177002181770448C18EFF201D3000F0F1FB10BDA41500205815002000B5044A9C
:406A00001082034880308088022200F003F800BDA0102E4010B50023884201D8081A03E00024E443201A4018044980B2884201D8824200D90123184610BD0000FF7F0000DE
:406A400070B55478157824022543D47888232602947834435679127936023243002900D09823044908820348A038181805808480028170BDA0102E40FFB581B014460D469A
:406A800007460A9E0B9BFFF783FF002E0AD0009333460021049AFCF713FB05484019C45505B0F0BD0021049AFCF7F0FAF5E700006A0D002070B502460448054D8088082480
:406AC0002C800B460021FCF7E1FA70BD90160020A0142E4010B5212402466401044953200880102300212046FCF7D0FA10BD000000102E40417802780902044B0A431A835D
:406B0000C1788078090208439883704760142E40034A1082802001430148803001817047A0102E40054A1082044A6032908B0009000108439115084390837047A0102E40FD
:406B400030B500210F4B0A46012809D0032802D005280AD107E04021198102210A2204E004210C2201E004210D221882054C20342088C0B205460D42FAD0228000211982A6
:406B800030BD000080142E4010B5044607480482074801808280032189030820FFF76CFD200202497530A039088010BDA0102E40201A2E40054A1082044A6032118300029C
:406BC00002494B30A039088070470000A0102E40054A491E1082044A60321183000202494C30A03908807047A0102E400349884200D908460249088070470000FF0F000009
:406C000060112E400349884200D908460249888070470000FF0F000060112E408823002900D09823084908820748A038191808881070000A507088889070000AD0700889EA
:406C40001071000A50717047A0102E4010B51446024606480B46C0880021FCF7FDF9012C02D103495420088010BD00009016002000102E40064A11880170090A417091880B
:406C80008170090AC1700349542008807047000080142E4000102E400121814010B589B200227C2000F09EFA10BD0000FEB5FF210120FFF7BDFCFF210820FFF7B9FC302044
:406CC000FFF7CEFC4148802101804148414D00784007400F022873D001286FD100202880002211460320FCF749FA3B4E3B49308E88823A4F002420373448A0300482B08FAA
:406D000038822046FFF764FE641C2406240EF3D0314C3248403421882030018320462C3800F052F9B16970690191009069464879C021084369464871684600F06DF900F042
:406D400055F8224FE088A03738832089B8831F496089C03188802148F18E203001802048002404823920FFF7A1FC184E532030801C490720088354203080E020FFF700FDBF
:406D8000E820FFF7FDFCF020FFF7FAFC0020FEF735F813488482282101838015B8810F48403084815B203080094800784007400F022807D0012801D10B482880FEBDFFE7B4
:406DC00003208CE70848C01CF7E7000000102E4090160020001F2E4058150020C0112E40001A2E4080142E40E023000004480021818301830249742060390880704700001D
:406E000060102E40074B1882064B6033988B00090001084399158843002A01D11021484098837047A0102E40F3B50D2284B0920100924A780B78120213430393CA788B7854
:406E4000120213434A790979FF20120211431A4A8C46918B9E460291118B01911649742260390A80154900220F7921E00121124B9140009C603BE3181D8889B21C881B881B
:406E8000039E6E407546654064462E435C4026430CD1029B194209D00199D140CB070499DB0F8B4202D1104606B0F0BD521CD2B29742DBD8F8E7000060102E4098150020F0
:406EC00030B50949FF208C8B084A00210125137905E02A468A40224204D0491CC9B28B42F7D830BD084630BD60102E409815002010B50446E020FFF743FC20782246401CBA
:406F0000C3B20021E020FCF767F810BD42790021012A02D901214171090342790A430179042914D049001143827B032A01D8D2001143427B52010A438179090211430122A8
:406F400052031143054A118300889083704711460122920211430222E5E7000000102E4000B50120FFF77CFB01494120088000BD00102E4000B50120FFF798FB01494020A9
:406F8000088000BD00102E40024A10820148603081817047A0102E4010B5044C208204488180028183815143018210BDA0102E40A0132E40034B18820248203881800280C5
:406FC00070470000A0102E404178027809020A4306490A80C2788378120213438B804279007912021043088170470000C0112E404178027809020A4306490A81C2788378FA
:40700000120213438B81427900791202104308827047000060102E40417802780902084B0A431A83C178827809020A439A8341790079090208430249203108807047000099
:4070400040102E404178027809020A4306498A80C2788378120213430B814279007912021043888170470000001F2E4010B50446E820FFF785FB20782246401CC3B20021DC
:40708000E820FBF7A9FF10BD024A10820248818370470000A0102E40001A2E40024A10820148603081807047A0102E4010B5044688000521FAF7BEFE04490C8204498880B1
:4070C000200202497230A039088010BDA0102E40001A2E4003490882000202497330A03908807047A0102E4003490882000202497030A03908807047A0102E4003490882E2
:40710000000202497130A03908807047A0102E40F8B505461C4617460E46084600F086F8054AB90021431582034AA03A80180180024880194455F8BDA0102E406F0D002036
:4071400030B50E4C238A01251A46012804D0022804D000290BD00CE02A430AE0002908D12A4322825008400020821A4601E05A0852009A4200D0228230BD0000001A2E4054
:40718000054A1082044A6032908B4023984389010143918370470000A0102E40044A118A0223002801D0194300E0994311827047001A2E4000B5064A108205486030018117
:4071C000002901D0012000E00020FFF7E7FF00BDA0102E40024A801802880A430280704700102E4070B5084BC5182C880023080003D104E040085B1C9BB2C607FAD08C43ED
:407200009A4022432A8070BD00102E40024A1018405C8007800F70476F0D0020024908820148803080897047A0102E408000FF3041307047044B02461B8AFF208B4202D9BB
